{
  "contractName": "Rebase",
  "abi": [
    {
      "constant": true,
      "inputs": [],
      "name": "name",
      "outputs": [
        {
          "name": "",
          "type": "string"
        }
      ],
      "payable": false,
      "stateMutability": "view",
      "type": "function"
    },
    {
      "constant": true,
      "inputs": [],
      "name": "currentBlockWinner",
      "outputs": [
        {
          "name": "",
          "type": "bytes32"
        }
      ],
      "payable": false,
      "stateMutability": "view",
      "type": "function"
    },
    {
      "constant": true,
      "inputs": [],
      "name": "_txFee",
      "outputs": [
        {
          "name": "",
          "type": "uint16"
        }
      ],
      "payable": false,
      "stateMutability": "view",
      "type": "function"
    },
    {
      "constant": true,
      "inputs": [],
      "name": "decimals",
      "outputs": [
        {
          "name": "",
          "type": "uint8"
        }
      ],
      "payable": false,
      "stateMutability": "view",
      "type": "function"
    },
    {
      "constant": true,
      "inputs": [],
      "name": "rebasePaused",
      "outputs": [
        {
          "name": "",
          "type": "bool"
        }
      ],
      "payable": false,
      "stateMutability": "view",
      "type": "function"
    },
    {
      "constant": false,
      "inputs": [],
      "name": "renounceOwnership",
      "outputs": [],
      "payable": false,
      "stateMutability": "nonpayable",
      "type": "function"
    },
    {
      "constant": true,
      "inputs": [],
      "name": "tokenPaused",
      "outputs": [
        {
          "name": "",
          "type": "bool"
        }
      ],
      "payable": false,
      "stateMutability": "view",
      "type": "function"
    },
    {
      "constant": true,
      "inputs": [],
      "name": "owner",
      "outputs": [
        {
          "name": "",
          "type": "address"
        }
      ],
      "payable": false,
      "stateMutability": "view",
      "type": "function"
    },
    {
      "constant": true,
      "inputs": [],
      "name": "monetaryPolicy",
      "outputs": [
        {
          "name": "",
          "type": "address"
        }
      ],
      "payable": false,
      "stateMutability": "view",
      "type": "function"
    },
    {
      "constant": true,
      "inputs": [],
      "name": "isOwner",
      "outputs": [
        {
          "name": "",
          "type": "bool"
        }
      ],
      "payable": false,
      "stateMutability": "view",
      "type": "function"
    },
    {
      "constant": true,
      "inputs": [],
      "name": "_rewardAddress",
      "outputs": [
        {
          "name": "",
          "type": "address"
        }
      ],
      "payable": false,
      "stateMutability": "view",
      "type": "function"
    },
    {
      "constant": true,
      "inputs": [],
      "name": "symbol",
      "outputs": [
        {
          "name": "",
          "type": "string"
        }
      ],
      "payable": false,
      "stateMutability": "view",
      "type": "function"
    },
    {
      "constant": true,
      "inputs": [],
      "name": "_rewardPercentage",
      "outputs": [
        {
          "name": "",
          "type": "uint16"
        }
      ],
      "payable": false,
      "stateMutability": "view",
      "type": "function"
    },
    {
      "constant": false,
      "inputs": [
        {
          "name": "newOwner",
          "type": "address"
        }
      ],
      "name": "transferOwnership",
      "outputs": [],
      "payable": false,
      "stateMutability": "nonpayable",
      "type": "function"
    },
    {
      "anonymous": false,
      "inputs": [
        {
          "indexed": true,
          "name": "epoch",
          "type": "uint256"
        },
        {
          "indexed": false,
          "name": "totalSupply",
          "type": "uint256"
        }
      ],
      "name": "LogRebase",
      "type": "event"
    },
    {
      "anonymous": false,
      "inputs": [
        {
          "indexed": false,
          "name": "paused",
          "type": "bool"
        }
      ],
      "name": "LogRebasePaused",
      "type": "event"
    },
    {
      "anonymous": false,
      "inputs": [
        {
          "indexed": false,
          "name": "paused",
          "type": "bool"
        }
      ],
      "name": "LogTokenPaused",
      "type": "event"
    },
    {
      "anonymous": false,
      "inputs": [
        {
          "indexed": false,
          "name": "monetaryPolicy",
          "type": "address"
        }
      ],
      "name": "LogMonetaryPolicyUpdated",
      "type": "event"
    },
    {
      "anonymous": false,
      "inputs": [
        {
          "indexed": false,
          "name": "addr",
          "type": "address"
        },
        {
          "indexed": false,
          "name": "winner",
          "type": "bool"
        }
      ],
      "name": "LogWinner",
      "type": "event"
    },
    {
      "anonymous": false,
      "inputs": [
        {
          "indexed": false,
          "name": "to",
          "type": "address"
        },
        {
          "indexed": false,
          "name": "value",
          "type": "uint256"
        }
      ],
      "name": "LogClaimReward",
      "type": "event"
    },
    {
      "anonymous": false,
      "inputs": [
        {
          "indexed": false,
          "name": "blockWinner",
          "type": "bytes32"
        }
      ],
      "name": "LogStimulus",
      "type": "event"
    },
    {
      "anonymous": false,
      "inputs": [
        {
          "indexed": true,
          "name": "previousOwner",
          "type": "address"
        }
      ],
      "name": "OwnershipRenounced",
      "type": "event"
    },
    {
      "anonymous": false,
      "inputs": [
        {
          "indexed": true,
          "name": "previousOwner",
          "type": "address"
        },
        {
          "indexed": true,
          "name": "newOwner",
          "type": "address"
        }
      ],
      "name": "OwnershipTransferred",
      "type": "event"
    },
    {
      "anonymous": false,
      "inputs": [
        {
          "indexed": true,
          "name": "from",
          "type": "address"
        },
        {
          "indexed": true,
          "name": "to",
          "type": "address"
        },
        {
          "indexed": false,
          "name": "value",
          "type": "uint256"
        }
      ],
      "name": "Transfer",
      "type": "event"
    },
    {
      "anonymous": false,
      "inputs": [
        {
          "indexed": true,
          "name": "owner",
          "type": "address"
        },
        {
          "indexed": true,
          "name": "spender",
          "type": "address"
        },
        {
          "indexed": false,
          "name": "value",
          "type": "uint256"
        }
      ],
      "name": "Approval",
      "type": "event"
    },
    {
      "constant": true,
      "inputs": [
        {
          "name": "value",
          "type": "uint256"
        }
      ],
      "name": "getTxBurn",
      "outputs": [
        {
          "name": "",
          "type": "uint256"
        }
      ],
      "payable": false,
      "stateMutability": "view",
      "type": "function"
    },
    {
      "constant": false,
      "inputs": [
        {
          "name": "rewards_",
          "type": "address"
        }
      ],
      "name": "setRewardAddress",
      "outputs": [],
      "payable": false,
      "stateMutability": "nonpayable",
      "type": "function"
    },
    {
      "constant": true,
      "inputs": [],
      "name": "getRewardBalance",
      "outputs": [
        {
          "name": "",
          "type": "uint256"
        }
      ],
      "payable": false,
      "stateMutability": "view",
      "type": "function"
    },
    {
      "constant": false,
      "inputs": [
        {
          "name": "txFee_",
          "type": "uint16"
        }
      ],
      "name": "setTxFee",
      "outputs": [],
      "payable": false,
      "stateMutability": "nonpayable",
      "type": "function"
    },
    {
      "constant": false,
      "inputs": [
        {
          "name": "rewardPercentage_",
          "type": "uint16"
        }
      ],
      "name": "setRewardPercentage",
      "outputs": [],
      "payable": false,
      "stateMutability": "nonpayable",
      "type": "function"
    },
    {
      "constant": false,
      "inputs": [],
      "name": "runStimulus",
      "outputs": [],
      "payable": false,
      "stateMutability": "nonpayable",
      "type": "function"
    },
    {
      "constant": true,
      "inputs": [],
      "name": "alreadyRewarded",
      "outputs": [
        {
          "name": "",
          "type": "bool"
        }
      ],
      "payable": false,
      "stateMutability": "view",
      "type": "function"
    },
    {
      "constant": false,
      "inputs": [
        {
          "name": "addr",
          "type": "address"
        }
      ],
      "name": "isRewardWinner",
      "outputs": [
        {
          "name": "",
          "type": "bool"
        }
      ],
      "payable": false,
      "stateMutability": "nonpayable",
      "type": "function"
    },
    {
      "constant": false,
      "inputs": [
        {
          "name": "to",
          "type": "address"
        }
      ],
      "name": "claimReward",
      "outputs": [],
      "payable": false,
      "stateMutability": "nonpayable",
      "type": "function"
    },
    {
      "constant": false,
      "inputs": [
        {
          "name": "monetaryPolicy_",
          "type": "address"
        }
      ],
      "name": "setMonetaryPolicy",
      "outputs": [],
      "payable": false,
      "stateMutability": "nonpayable",
      "type": "function"
    },
    {
      "constant": false,
      "inputs": [
        {
          "name": "paused",
          "type": "bool"
        }
      ],
      "name": "setRebasePaused",
      "outputs": [],
      "payable": false,
      "stateMutability": "nonpayable",
      "type": "function"
    },
    {
      "constant": false,
      "inputs": [
        {
          "name": "paused",
          "type": "bool"
        }
      ],
      "name": "setTokenPaused",
      "outputs": [],
      "payable": false,
      "stateMutability": "nonpayable",
      "type": "function"
    },
    {
      "constant": false,
      "inputs": [
        {
          "name": "epoch",
          "type": "uint256"
        },
        {
          "name": "supplyDelta",
          "type": "int256"
        }
      ],
      "name": "rebase",
      "outputs": [
        {
          "name": "",
          "type": "uint256"
        }
      ],
      "payable": false,
      "stateMutability": "nonpayable",
      "type": "function"
    },
    {
      "constant": false,
      "inputs": [
        {
          "name": "owner_",
          "type": "address"
        }
      ],
      "name": "initialize",
      "outputs": [],
      "payable": false,
      "stateMutability": "nonpayable",
      "type": "function"
    },
    {
      "constant": false,
      "inputs": [
        {
          "name": "name",
          "type": "string"
        },
        {
          "name": "symbol",
          "type": "string"
        },
        {
          "name": "decimals",
          "type": "uint8"
        }
      ],
      "name": "initialize",
      "outputs": [],
      "payable": false,
      "stateMutability": "nonpayable",
      "type": "function"
    },
    {
      "constant": true,
      "inputs": [],
      "name": "totalSupply",
      "outputs": [
        {
          "name": "",
          "type": "uint256"
        }
      ],
      "payable": false,
      "stateMutability": "view",
      "type": "function"
    },
    {
      "constant": true,
      "inputs": [
        {
          "name": "who",
          "type": "address"
        }
      ],
      "name": "balanceOf",
      "outputs": [
        {
          "name": "",
          "type": "uint256"
        }
      ],
      "payable": false,
      "stateMutability": "view",
      "type": "function"
    },
    {
      "constant": false,
      "inputs": [
        {
          "name": "to",
          "type": "address"
        },
        {
          "name": "value",
          "type": "uint256"
        }
      ],
      "name": "transfer",
      "outputs": [
        {
          "name": "",
          "type": "bool"
        }
      ],
      "payable": false,
      "stateMutability": "nonpayable",
      "type": "function"
    },
    {
      "constant": true,
      "inputs": [
        {
          "name": "owner_",
          "type": "address"
        },
        {
          "name": "spender",
          "type": "address"
        }
      ],
      "name": "allowance",
      "outputs": [
        {
          "name": "",
          "type": "uint256"
        }
      ],
      "payable": false,
      "stateMutability": "view",
      "type": "function"
    },
    {
      "constant": false,
      "inputs": [
        {
          "name": "from",
          "type": "address"
        },
        {
          "name": "to",
          "type": "address"
        },
        {
          "name": "value",
          "type": "uint256"
        }
      ],
      "name": "transferFrom",
      "outputs": [
        {
          "name": "",
          "type": "bool"
        }
      ],
      "payable": false,
      "stateMutability": "nonpayable",
      "type": "function"
    },
    {
      "constant": false,
      "inputs": [
        {
          "name": "spender",
          "type": "address"
        },
        {
          "name": "value",
          "type": "uint256"
        }
      ],
      "name": "approve",
      "outputs": [
        {
          "name": "",
          "type": "bool"
        }
      ],
      "payable": false,
      "stateMutability": "nonpayable",
      "type": "function"
    },
    {
      "constant": false,
      "inputs": [
        {
          "name": "spender",
          "type": "address"
        },
        {
          "name": "addedValue",
          "type": "uint256"
        }
      ],
      "name": "increaseAllowance",
      "outputs": [
        {
          "name": "",
          "type": "bool"
        }
      ],
      "payable": false,
      "stateMutability": "nonpayable",
      "type": "function"
    },
    {
      "constant": false,
      "inputs": [
        {
          "name": "spender",
          "type": "address"
        },
        {
          "name": "subtractedValue",
          "type": "uint256"
        }
      ],
      "name": "decreaseAllowance",
      "outputs": [
        {
          "name": "",
          "type": "bool"
        }
      ],
      "payable": false,
      "stateMutability": "nonpayable",
      "type": "function"
    }
  ],
  "bytecode": "0x608060405234801561001057600080fd5b5061384d806100206000396000f3006080604052600436106101cd576000357c0100000000000000000000000000000000000000000000000000000000900463ffffffff16806306fdde03146101d2578063095ea7b3146102625780631624f6c6146102c75780631725da1b1461038357806318160ddd146103b657806322872e0b146103e157806323b872dd14610410578063295194571461049557806330288d75146104c4578063313ce567146104f757806339509351146105285780633986829d1461058d57806353ca9f24146105be578063544f0b42146105ed5780635e00e679146106485780635e42b4551461068b57806370a08231146106b6578063715018a61461070d5780637a43e23f146107245780637dbaed881461076f5780637e5933c0146107b057806383e3605c146107e157806386c75e74146107f85780638b5a6a08146108275780638da5cb5b1461086a5780638e27d7d7146108c15780638f32d59b1461091857806390241a6f1461094757806395d89b411461099e578063a1444a4a14610a2e578063a457c2d714610a61578063a9059cbb14610ac6578063c4d66de814610b2b578063d279c19114610b6e578063dd62ed3e14610bb1578063de2dc41014610c28578063f2fde38b14610c57575b600080fd5b3480156101de57600080fd5b506101e7610c9a565b6040518080602001828103825283818151815260200191508051906020019080838360005b8381101561022757808201518184015260208101905061020c565b50505050905090810190601f1680156102545780820380516001836020036101000a031916815260200191505b509250505060405180910390f35b34801561026e57600080fd5b506102ad600480360381019080803573ffffffffffffffffffffffffffffffffffffffff16906020019092919080359060200190929190505050610d3c565b604051808215151515815260200191505060405180910390f35b3480156102d357600080fd5b50610381600480360381019080803590602001908201803590602001908080601f0160208091040260200160405190810160405280939291908181526020018383808284378201915050505050509192919290803590602001908201803590602001908080601f0160208091040260200160405190810160405280939291908181526020018383808284378201915050505050509192919290803560ff169060200190929190505050610e4a565b005b34801561038f57600080fd5b50610398610fda565b60405180826000191660001916815260200191505060405180910390f35b3480156103c257600080fd5b506103cb610fe0565b6040518082815260200191505060405180910390f35b3480156103ed57600080fd5b5061040e600480360381019080803515159060200190929190505050610fea565b005b34801561041c57600080fd5b5061047b600480360381019080803573ffffffffffffffffffffffffffffffffffffffff169060200190929190803573ffffffffffffffffffffffffffffffffffffffff16906020019092919080359060200190929190505050611055565b604051808215151515815260200191505060405180910390f35b3480156104a157600080fd5b506104c260048036038101908080351515906020019092919050505061155c565b005b3480156104d057600080fd5b506104d96115c7565b604051808261ffff1661ffff16815260200191505060405180910390f35b34801561050357600080fd5b5061050c6115db565b604051808260ff1660ff16815260200191505060405180910390f35b34801561053457600080fd5b50610573600480360381019080803573ffffffffffffffffffffffffffffffffffffffff169060200190929190803590602001909291905050506115f2565b604051808215151515815260200191505060405180910390f35b34801561059957600080fd5b506105bc600480360381019080803561ffff16906020019092919050505061180a565b005b3480156105ca57600080fd5b506105d361183d565b604051808215151515815260200191505060405180910390f35b3480156105f957600080fd5b5061062e600480360381019080803573ffffffffffffffffffffffffffffffffffffffff169060200190929190505050611850565b604051808215151515815260200191505060405180910390f35b34801561065457600080fd5b50610689600480360381019080803573ffffffffffffffffffffffffffffffffffffffff169060200190929190505050611a0c565b005b34801561069757600080fd5b506106a0611a63565b6040518082815260200191505060405180910390f35b3480156106c257600080fd5b506106f7600480360381019080803573ffffffffffffffffffffffffffffffffffffffff169060200190929190505050611ae0565b6040518082815260200191505060405180910390f35b34801561071957600080fd5b50610722611b3d565b005b34801561073057600080fd5b506107596004803603810190808035906020019092919080359060200190929190505050611bf9565b6040518082815260200191505060405180910390f35b34801561077b57600080fd5b5061079a60048036038101908080359060200190929190505050611dc2565b6040518082815260200191505060405180910390f35b3480156107bc57600080fd5b506107df600480360381019080803561ffff169060200190929190505050611e27565b005b3480156107ed57600080fd5b506107f6611e5a565b005b34801561080457600080fd5b5061080d611fcb565b604051808215151515815260200191505060405180910390f35b34801561083357600080fd5b50610868600480360381019080803573ffffffffffffffffffffffffffffffffffffffff169060200190929190505050611fde565b005b34801561087657600080fd5b5061087f612098565b604051808273ffffffffffffffffffffffffffffffffffffffff1673ffffffffffffffffffffffffffffffffffffffff16815260200191505060405180910390f35b3480156108cd57600080fd5b506108d66120c2565b604051808273ffffffffffffffffffffffffffffffffffffffff1673ffffffffffffffffffffffffffffffffffffffff16815260200191505060405180910390f35b34801561092457600080fd5b5061092d6120e8565b604051808215151515815260200191505060405180910390f35b34801561095357600080fd5b5061095c612140565b604051808273ffffffffffffffffffffffffffffffffffffffff1673ffffffffffffffffffffffffffffffffffffffff16815260200191505060405180910390f35b3480156109aa57600080fd5b506109b3612166565b6040518080602001828103825283818151815260200191508051906020019080838360005b838110156109f35780820151818401526020810190506109d8565b50505050905090810190601f168015610a205780820380516001836020036101000a031916815260200191505b509250505060405180910390f35b348015610a3a57600080fd5b50610a43612208565b604051808261ffff1661ffff16815260200191505060405180910390f35b348015610a6d57600080fd5b50610aac600480360381019080803573ffffffffffffffffffffffffffffffffffffffff1690602001909291908035906020019092919050505061221c565b604051808215151515815260200191505060405180910390f35b348015610ad257600080fd5b50610b11600480360381019080803573ffffffffffffffffffffffffffffffffffffffff169060200190929190803590602001909291905050506124ca565b604051808215151515815260200191505060405180910390f35b348015610b3757600080fd5b50610b6c600480360381019080803573ffffffffffffffffffffffffffffffffffffffff1690602001909291905050506128c1565b005b348015610b7a57600080fd5b50610baf600480360381019080803573ffffffffffffffffffffffffffffffffffffffff169060200190929190505050612bc6565b005b348015610bbd57600080fd5b50610c12600480360381019080803573ffffffffffffffffffffffffffffffffffffffff169060200190929190803573ffffffffffffffffffffffffffffffffffffffff16906020019092919050505061329e565b6040518082815260200191505060405180910390f35b348015610c3457600080fd5b50610c3d613325565b604051808215151515815260200191505060405180910390f35b348015610c6357600080fd5b50610c98600480360381019080803573ffffffffffffffffffffffffffffffffffffffff169060200190929190505050613379565b005b606060338054600181600116156101000203166002900480601f016020809104026020016040519081016040528092919081815260200182805460018160011615610100020316600290048015610d325780601f10610d0757610100808354040283529160200191610d32565b820191906000526020600020905b815481529060010190602001808311610d1557829003601f168201915b5050505050905090565b6000609b60159054906101000a900460ff16151515610d5a57600080fd5b81609f60003373ffffffffffffffffffffffffffffffffffffffff1673ffffffffffffffffffffffffffffffffffffffff16815260200190815260200160002060008573ffffffffffffffffffffffffffffffffffffffff1673ffffffffffffffffffffffffffffffffffffffff168152602001908152602001600020819055508273ffffffffffffffffffffffffffffffffffffffff163373ffffffffffffffffffffffffffffffffffffffff167f8c5be1e5ebec7d5bd14f71427d1e84f3dd0314c0f7b2291e5b200ac8c7c3b925846040518082815260200191505060405180910390a36001905092915050565b60008060019054906101000a900460ff1680610e6a5750610e69613398565b5b80610e8157506000809054906101000a900460ff16155b1515610f1b576040517f08c379a000000000000000000000000000000000000000000000000000000000815260040180806020018281038252602e8152602001807f436f6e747261637420696e7374616e63652068617320616c726561647920626581526020017f656e20696e697469616c697a656400000000000000000000000000000000000081525060400191505060405180910390fd5b600060019054906101000a900460ff161590508015610f6a576001600060016101000a81548160ff02191690831515021790555060016000806101000a81548160ff0219169083151502179055505b8360339080519060200190610f80929190613750565b508260349080519060200190610f97929190613750565b5081603560006101000a81548160ff021916908360ff1602179055508015610fd45760008060016101000a81548160ff0219169083151502179055505b50505050565b60a35481565b6000609c54905090565b610ff26120e8565b1515610ffd57600080fd5b80609b60146101000a81548160ff0219169083151502179055507fb36927c68760751ec71d827eb30be804be612d87c7c6b6a1f255258c6a1bea6681604051808215151515815260200191505060405180910390a150565b600080600080600080600088600073ffffffffffffffffffffffffffffffffffffffff168173ffffffffffffffffffffffffffffffffffffffff161415151561109d57600080fd5b3073ffffffffffffffffffffffffffffffffffffffff168173ffffffffffffffffffffffffffffffffffffffff16141515156110d857600080fd5b609b60159054906101000a900460ff161515156110f457600080fd5b61118389609f60008e73ffffffffffffffffffffffffffffffffffffffff1673ffffffffffffffffffffffffffffffffffffffff16815260200190815260200160002060003373ffffffffffffffffffffffffffffffffffffffff1673ffffffffffffffffffffffffffffffffffffffff168152602001908152602001600020546133a990919063ffffffff16565b609f60008d73ffffffffffffffffffffffffffffffffffffffff1673ffffffffffffffffffffffffffffffffffffffff16815260200190815260200160002060003373ffffffffffffffffffffffffffffffffffffffff1673ffffffffffffffffffffffffffffffffffffffff1681526020019081526020016000208190555061120c89611dc2565b9650869550868903945061122b609d548a6133ca90919063ffffffff16565b9350611242609d54866133ca90919063ffffffff16565b9250611259609d54876133ca90919063ffffffff16565b91506112ad84609e60008e73ffffffffffffffffffffffffffffffffffffffff1673ffffffffffffffffffffffffffffffffffffffff168152602001908152602001600020546133a990919063ffffffff16565b609e60008d73ffffffffffffffffffffffffffffffffffffffff1673ffffffffffffffffffffffffffffffffffffffff1681526020019081526020016000208190555061134283609e60008d73ffffffffffffffffffffffffffffffffffffffff1673ffffffffffffffffffffffffffffffffffffffff1681526020019081526020016000205461340890919063ffffffff16565b609e60008c73ffffffffffffffffffffffffffffffffffffffff1673ffffffffffffffffffffffffffffffffffffffff168152602001908152602001600020819055506113f982609e600060a060029054906101000a900473ffffffffffffffffffffffffffffffffffffffff1673ffffffffffffffffffffffffffffffffffffffff1673ffffffffffffffffffffffffffffffffffffffff1681526020019081526020016000205461340890919063ffffffff16565b609e600060a060029054906101000a900473ffffffffffffffffffffffffffffffffffffffff1673ffffffffffffffffffffffffffffffffffffffff1673ffffffffffffffffffffffffffffffffffffffff168152602001908152602001600020819055508973ffffffffffffffffffffffffffffffffffffffff168b73ffffffffffffffffffffffffffffffffffffffff167fddf252ad1be2c89b69c2b068fc378daa952ba7f163c4a11628f55a4df523b3ef876040518082815260200191505060405180910390a360a060029054906101000a900473ffffffffffffffffffffffffffffffffffffffff1673ffffffffffffffffffffffffffffffffffffffff168b73ffffffffffffffffffffffffffffffffffffffff167fddf252ad1be2c89b69c2b068fc378daa952ba7f163c4a11628f55a4df523b3ef886040518082815260200191505060405180910390a360019750505050505050509392505050565b6115646120e8565b151561156f57600080fd5b80609b60156101000a81548160ff0219169083151502179055507f398c4e18c8ef7f11eb3921fe2d01d3b469329a5f01febf5ba17f2462f27f439c81604051808215151515815260200191505060405180910390a150565b60a060009054906101000a900461ffff1681565b6000603560009054906101000a900460ff16905090565b6000609b60159054906101000a900460ff1615151561161057600080fd5b61169f82609f60003373ffffffffffffffffffffffffffffffffffffffff1673ffffffffffffffffffffffffffffffffffffffff16815260200190815260200160002060008673ffffffffffffffffffffffffffffffffffffffff1673ffffffffffffffffffffffffffffffffffffffff1681526020019081526020016000205461340890919063ffffffff16565b609f60003373ffffffffffffffffffffffffffffffffffffffff1673ffffffffffffffffffffffffffffffffffffffff16815260200190815260200160002060008573ffffffffffffffffffffffffffffffffffffffff1673ffffffffffffffffffffffffffffffffffffffff168152602001908152602001600020819055508273ffffffffffffffffffffffffffffffffffffffff163373ffffffffffffffffffffffffffffffffffffffff167f8c5be1e5ebec7d5bd14f71427d1e84f3dd0314c0f7b2291e5b200ac8c7c3b925609f60003373ffffffffffffffffffffffffffffffffffffffff1673ffffffffffffffffffffffffffffffffffffffff16815260200190815260200160002060008773ffffffffffffffffffffffffffffffffffffffff1673ffffffffffffffffffffffffffffffffffffffff168152602001908152602001600020546040518082815260200191505060405180910390a36001905092915050565b6118126120e8565b151561181d57600080fd5b8060a060006101000a81548161ffff021916908361ffff16021790555050565b609b60149054906101000a900460ff1681565b60008060008060008060008060a3546001900496507f100000000000000000000000000000000000000000000000000000000000000080880281151561189257fe5b0495507f10000000000000000000000000000000000000000000000000000000000000007f010000000000000000000000000000000000000000000000000000000000000088028115156118e257fe5b0494508873ffffffffffffffffffffffffffffffffffffffff1693507f100000000000000000000000000000000000000000000000000000000000000080850281151561192b57fe5b0492507f10000000000000000000000000000000000000000000000000000000000000007f0100000000000000000000000000000000000000000000000000000000000000850281151561197b57fe5b049150828614801561198c57508185145b90507f769d093dd059d6d71d30fc2a601b5b18fd42c57dadb27e5b9395596d2083ef028982604051808373ffffffffffffffffffffffffffffffffffffffff1673ffffffffffffffffffffffffffffffffffffffff168152602001821515151581526020019250505060405180910390a180975050505050505050919050565b611a146120e8565b1515611a1f57600080fd5b8060a060026101000a81548173ffffffffffffffffffffffffffffffffffffffff021916908373ffffffffffffffffffffffffffffffffffffffff16021790555050565b6000611adb609d54609e600060a060029054906101000a900473ffffffffffffffffffffffffffffffffffffffff1673ffffffffffffffffffffffffffffffffffffffff1673ffffffffffffffffffffffffffffffffffffffff1681526020019081526020016000205461342990919063ffffffff16565b905090565b6000611b36609d54609e60008573ffffffffffffffffffffffffffffffffffffffff1673ffffffffffffffffffffffffffffffffffffffff1681526020019081526020016000205461342990919063ffffffff16565b9050919050565b611b456120e8565b1515611b5057600080fd5b606860009054906101000a900473ffffffffffffffffffffffffffffffffffffffff1673ffffffffffffffffffffffffffffffffffffffff167ff8df31144d9c2f0f6b59d69b8b98abd5459d07f2742c4df920b25aae33c6482060405160405180910390a26000606860006101000a81548173ffffffffffffffffffffffffffffffffffffffff021916908373ffffffffffffffffffffffffffffffffffffffff160217905550565b6000609b60009054906101000a900473ffffffffffffffffffffffffffffffffffffffff1673ffffffffffffffffffffffffffffffffffffffff163373ffffffffffffffffffffffffffffffffffffffff16141515611c5757600080fd5b609b60149054906101000a900460ff16151515611c7357600080fd5b6000821415611cc057827f72725a3b1e5bd622d6bcd1339bb31279c351abe8f541ac7fd320f24e1b1641f2609c546040518082815260200191505060405180910390a2609c549050611dbc565b6000821215611cf157611ce6611cd583613453565b609c546133a990919063ffffffff16565b609c81905550611d0d565b611d0682609c5461340890919063ffffffff16565b609c819055505b6000196fffffffffffffffffffffffffffffffff16609c541115611d47576000196fffffffffffffffffffffffffffffffff16609c819055505b611d76609c546009600a0a622e286802600019811515611d6357fe5b066000190361342990919063ffffffff16565b609d81905550827f72725a3b1e5bd622d6bcd1339bb31279c351abe8f541ac7fd320f24e1b1641f2609c546040518082815260200191505060405180910390a2609c5490505b92915050565b600080611dec60a060009054906101000a900461ffff1661ffff168461342990919063ffffffff16565b9050600060a060009054906101000a900461ffff1661ffff1684811515611e0f57fe5b06141515611e1e576001810190505b80915050919050565b611e2f6120e8565b1515611e3a57600080fd5b8060a060166101000a81548161ffff021916908361ffff16021790555050565b609b60009054906101000a900473ffffffffffffffffffffffffffffffffffffffff1673ffffffffffffffffffffffffffffffffffffffff163373ffffffffffffffffffffffffffffffffffffffff16141515611eb657600080fd5b600143034060a381600019169055505b600060a2805490501115611f8857600060a1600060a2600160a28054905003815481101515611ef157fe5b9060005260206000200160009054906101000a900473ffffffffffffffffffffffffffffffffffffffff1673ffffffffffffffffffffffffffffffffffffffff1673ffffffffffffffffffffffffffffffffffffffff16815260200190815260200160002060006101000a81548160ff02191690831515021790555060a2805480919060019003611f8291906137d0565b50611ec6565b7f7238f942a59d60c6c3694d1f5fe180aeec5d886951ab4a19b7bf5687d86d85ae60a35460405180826000191660001916815260200191505060405180910390a1565b609b60159054906101000a900460ff1681565b611fe66120e8565b1515611ff157600080fd5b80609b60006101000a81548173ffffffffffffffffffffffffffffffffffffffff021916908373ffffffffffffffffffffffffffffffffffffffff1602179055507f0e6961f1a1afb87eaf51fd64f22ddc10062e23aa7838eac5d0bdf140bfd3897281604051808273ffffffffffffffffffffffffffffffffffffffff1673ffffffffffffffffffffffffffffffffffffffff16815260200191505060405180910390a150565b6000606860009054906101000a900473ffffffffffffffffffffffffffffffffffffffff16905090565b609b60009054906101000a900473ffffffffffffffffffffffffffffffffffffffff1681565b6000606860009054906101000a900473ffffffffffffffffffffffffffffffffffffffff1673ffffffffffffffffffffffffffffffffffffffff163373ffffffffffffffffffffffffffffffffffffffff1614905090565b60a060029054906101000a900473ffffffffffffffffffffffffffffffffffffffff1681565b606060348054600181600116156101000203166002900480601f0160208091040260200160405190810160405280929190818152602001828054600181600116156101000203166002900480156121fe5780601f106121d3576101008083540402835291602001916121fe565b820191906000526020600020905b8154815290600101906020018083116121e157829003601f168201915b5050505050905090565b60a060169054906101000a900461ffff1681565b600080609b60159054906101000a900460ff1615151561223b57600080fd5b609f60003373ffffffffffffffffffffffffffffffffffffffff1673ffffffffffffffffffffffffffffffffffffffff16815260200190815260200160002060008573ffffffffffffffffffffffffffffffffffffffff1673ffffffffffffffffffffffffffffffffffffffff168152602001908152602001600020549050808310151561234a576000609f60003373ffffffffffffffffffffffffffffffffffffffff1673ffffffffffffffffffffffffffffffffffffffff16815260200190815260200160002060008673ffffffffffffffffffffffffffffffffffffffff1673ffffffffffffffffffffffffffffffffffffffff168152602001908152602001600020819055506123de565b61235d83826133a990919063ffffffff16565b609f60003373ffffffffffffffffffffffffffffffffffffffff1673ffffffffffffffffffffffffffffffffffffffff16815260200190815260200160002060008673ffffffffffffffffffffffffffffffffffffffff1673ffffffffffffffffffffffffffffffffffffffff168152602001908152602001600020819055505b8373ffffffffffffffffffffffffffffffffffffffff163373ffffffffffffffffffffffffffffffffffffffff167f8c5be1e5ebec7d5bd14f71427d1e84f3dd0314c0f7b2291e5b200ac8c7c3b925609f60003373ffffffffffffffffffffffffffffffffffffffff1673ffffffffffffffffffffffffffffffffffffffff16815260200190815260200160002060008873ffffffffffffffffffffffffffffffffffffffff1673ffffffffffffffffffffffffffffffffffffffff168152602001908152602001600020546040518082815260200191505060405180910390a3600191505092915050565b600080600080600080600088600073ffffffffffffffffffffffffffffffffffffffff168173ffffffffffffffffffffffffffffffffffffffff161415151561251257600080fd5b3073ffffffffffffffffffffffffffffffffffffffff168173ffffffffffffffffffffffffffffffffffffffff161415151561254d57600080fd5b609b60159054906101000a900460ff1615151561256957600080fd5b61257289611dc2565b96508695508689039450612591609d548a6133ca90919063ffffffff16565b93506125a8609d54866133ca90919063ffffffff16565b92506125bf609d54876133ca90919063ffffffff16565b915061261384609e60003373ffffffffffffffffffffffffffffffffffffffff1673ffffffffffffffffffffffffffffffffffffffff168152602001908152602001600020546133a990919063ffffffff16565b609e60003373ffffffffffffffffffffffffffffffffffffffff1673ffffffffffffffffffffffffffffffffffffffff168152602001908152602001600020819055506126a883609e60008d73ffffffffffffffffffffffffffffffffffffffff1673ffffffffffffffffffffffffffffffffffffffff1681526020019081526020016000205461340890919063ffffffff16565b609e60008c73ffffffffffffffffffffffffffffffffffffffff1673ffffffffffffffffffffffffffffffffffffffff1681526020019081526020016000208190555061275f82609e600060a060029054906101000a900473ffffffffffffffffffffffffffffffffffffffff1673ffffffffffffffffffffffffffffffffffffffff1673ffffffffffffffffffffffffffffffffffffffff1681526020019081526020016000205461340890919063ffffffff16565b609e600060a060029054906101000a900473ffffffffffffffffffffffffffffffffffffffff1673ffffffffffffffffffffffffffffffffffffffff1673ffffffffffffffffffffffffffffffffffffffff168152602001908152602001600020819055508973ffffffffffffffffffffffffffffffffffffffff163373ffffffffffffffffffffffffffffffffffffffff167fddf252ad1be2c89b69c2b068fc378daa952ba7f163c4a11628f55a4df523b3ef876040518082815260200191505060405180910390a360a060029054906101000a900473ffffffffffffffffffffffffffffffffffffffff1673ffffffffffffffffffffffffffffffffffffffff163373ffffffffffffffffffffffffffffffffffffffff167fddf252ad1be2c89b69c2b068fc378daa952ba7f163c4a11628f55a4df523b3ef886040518082815260200191505060405180910390a3600197505050505050505092915050565b60008060019054906101000a900460ff16806128e157506128e0613398565b5b806128f857506000809054906101000a900460ff16155b1515612992576040517f08c379a000000000000000000000000000000000000000000000000000000000815260040180806020018281038252602e8152602001807f436f6e747261637420696e7374616e63652068617320616c726561647920626581526020017f656e20696e697469616c697a656400000000000000000000000000000000000081525060400191505060405180910390fd5b600060019054906101000a900460ff1615905080156129e1576001600060016101000a81548160ff02191690831515021790555060016000806101000a81548160ff0219169083151502179055505b612a576040805190810160405280600681526020017f52454241534500000000000000000000000000000000000000000000000000008152506040805190810160405280600681526020017f52454241534500000000000000000000000000000000000000000000000000008152506009610e4a565b612a6082613486565b6000609b60146101000a81548160ff0219169083151502179055506000609b60156101000a81548160ff0219169083151502179055506009600a0a622e286802609c819055506009600a0a622e286802600019811515612abc57fe5b0660001903609e60008473ffffffffffffffffffffffffffffffffffffffff1673ffffffffffffffffffffffffffffffffffffffff16815260200190815260200160002081905550612b33609c546009600a0a622e286802600019811515612b2057fe5b066000190361342990919063ffffffff16565b609d819055508173ffffffffffffffffffffffffffffffffffffffff16600073ffffffffffffffffffffffffffffffffffffffff167fddf252ad1be2c89b69c2b068fc378daa952ba7f163c4a11628f55a4df523b3ef609c546040518082815260200191505060405180910390a38015612bc25760008060016101000a81548160ff0219169083151502179055505b5050565b600080609b60009054906101000a900473ffffffffffffffffffffffffffffffffffffffff1673ffffffffffffffffffffffffffffffffffffffff163373ffffffffffffffffffffffffffffffffffffffff16141515612c2557600080fd5b612c2e83611850565b8015612c84575060a160008473ffffffffffffffffffffffffffffffffffffffff1673ffffffffffffffffffffffffffffffffffffffff16815260200190815260200160002060009054906101000a900460ff16155b8015612cf157506000609e600060a060029054906101000a900473ffffffffffffffffffffffffffffffffffffffff1673ffffffffffffffffffffffffffffffffffffffff1673ffffffffffffffffffffffffffffffffffffffff16815260200190815260200160002054115b1561329957609e60008473ffffffffffffffffffffffffffffffffffffffff1673ffffffffffffffffffffffffffffffffffffffff168152602001908152602001600020549150612d418261360c565b9050609e600060a060029054906101000a900473ffffffffffffffffffffffffffffffffffffffff1673ffffffffffffffffffffffffffffffffffffffff1673ffffffffffffffffffffffffffffffffffffffff16815260200190815260200160002054811115612fed57612e5f609e600060a060029054906101000a900473ffffffffffffffffffffffffffffffffffffffff1673ffffffffffffffffffffffffffffffffffffffff1673ffffffffffffffffffffffffffffffffffffffff16815260200190815260200160002054609e60008673ffffffffffffffffffffffffffffffffffffffff1673ffffffffffffffffffffffffffffffffffffffff1681526020019081526020016000205461340890919063ffffffff16565b609e60008573ffffffffffffffffffffffffffffffffffffffff1673ffffffffffffffffffffffffffffffffffffffff168152602001908152602001600020819055507e88698087683efcc8a59e33509a7f05db120225a39c77fbd7d984047f5788e383612f39609d54609e600060a060029054906101000a900473ffffffffffffffffffffffffffffffffffffffff1673ffffffffffffffffffffffffffffffffffffffff1673ffffffffffffffffffffffffffffffffffffffff1681526020019081526020016000205461342990919063ffffffff16565b604051808373ffffffffffffffffffffffffffffffffffffffff1673ffffffffffffffffffffffffffffffffffffffff1681526020018281526020019250505060405180910390a16000609e600060a060029054906101000a900473ffffffffffffffffffffffffffffffffffffffff1673ffffffffffffffffffffffffffffffffffffffff1673ffffffffffffffffffffffffffffffffffffffff168152602001908152602001600020819055506131da565b61303f81609e60008673ffffffffffffffffffffffffffffffffffffffff1673ffffffffffffffffffffffffffffffffffffffff1681526020019081526020016000205461340890919063ffffffff16565b609e60008573ffffffffffffffffffffffffffffffffffffffff1673ffffffffffffffffffffffffffffffffffffffff168152602001908152602001600020819055506130f681609e600060a060029054906101000a900473ffffffffffffffffffffffffffffffffffffffff1673ffffffffffffffffffffffffffffffffffffffff1673ffffffffffffffffffffffffffffffffffffffff168152602001908152602001600020546133a990919063ffffffff16565b609e600060a060029054906101000a900473ffffffffffffffffffffffffffffffffffffffff1673ffffffffffffffffffffffffffffffffffffffff1673ffffffffffffffffffffffffffffffffffffffff168152602001908152602001600020819055507e88698087683efcc8a59e33509a7f05db120225a39c77fbd7d984047f5788e383613191609d548461342990919063ffffffff16565b604051808373ffffffffffffffffffffffffffffffffffffffff1673ffffffffffffffffffffffffffffffffffffffff1681526020018281526020019250505060405180910390a15b600160a160008573ffffffffffffffffffffffffffffffffffffffff1673ffffffffffffffffffffffffffffffffffffffff16815260200190815260200160002060006101000a81548160ff02191690831515021790555060a28390806001815401808255809150509060018203906000526020600020016000909192909190916101000a81548173ffffffffffffffffffffffffffffffffffffffff021916908373ffffffffffffffffffffffffffffffffffffffff160217905550505b505050565b6000609f60008473ffffffffffffffffffffffffffffffffffffffff1673ffffffffffffffffffffffffffffffffffffffff16815260200190815260200160002060008373ffffffffffffffffffffffffffffffffffffffff1673ffffffffffffffffffffffffffffffffffffffff16815260200190815260200160002054905092915050565b600060a160003373ffffffffffffffffffffffffffffffffffffffff1673ffffffffffffffffffffffffffffffffffffffff16815260200190815260200160002060009054906101000a900460ff16905090565b6133816120e8565b151561338c57600080fd5b61339581613654565b50565b600080303b90506000811491505090565b6000808383111515156133bb57600080fd5b82840390508091505092915050565b60008060008414156133df5760009150613401565b82840290508284828115156133f057fe5b041415156133fd57600080fd5b8091505b5092915050565b600080828401905083811015151561341f57600080fd5b8091505092915050565b60008060008311151561343b57600080fd5b828481151561344657fe5b0490508091505092915050565b600060ff60019060020a02821415151561346c57600080fd5b6000821261347a578161347f565b816000035b9050919050565b60008060019054906101000a900460ff16806134a657506134a5613398565b5b806134bd57506000809054906101000a900460ff16155b1515613557576040517f08c379a000000000000000000000000000000000000000000000000000000000815260040180806020018281038252602e8152602001807f436f6e747261637420696e7374616e63652068617320616c726561647920626581526020017f656e20696e697469616c697a656400000000000000000000000000000000000081525060400191505060405180910390fd5b600060019054906101000a900460ff1615905080156135a6576001600060016101000a81548160ff02191690831515021790555060016000806101000a81548160ff0219169083151502179055505b81606860006101000a81548173ffffffffffffffffffffffffffffffffffffffff021916908373ffffffffffffffffffffffffffffffffffffffff16021790555080156136085760008060016101000a81548160ff0219169083151502179055505b5050565b6000806064905061364c60a060169054906101000a900461ffff1661ffff1661363e838661342990919063ffffffff16565b6133ca90919063ffffffff16565b915050919050565b600073ffffffffffffffffffffffffffffffffffffffff168173ffffffffffffffffffffffffffffffffffffffff161415151561369057600080fd5b8073ffffffffffffffffffffffffffffffffffffffff16606860009054906101000a900473ffffffffffffffffffffffffffffffffffffffff1673ffffffffffffffffffffffffffffffffffffffff167f8be0079c531659141344cd1fd0a4f28419497f9722a3daafe3b4186f6b6457e060405160405180910390a380606860006101000a81548173ffffffffffffffffffffffffffffffffffffffff021916908373ffffffffffffffffffffffffffffffffffffffff16021790555050565b828054600181600116156101000203166002900490600052602060002090601f016020900481019282601f1061379157805160ff19168380011785556137bf565b828001600101855582156137bf579182015b828111156137be5782518255916020019190600101906137a3565b5b5090506137cc91906137fc565b5090565b8154818355818111156137f7578183600052602060002091820191016137f691906137fc565b5b505050565b61381e91905b8082111561381a576000816000905550600101613802565b5090565b905600a165627a7a7230582070d48f33f8290bcba51a8741393a31a7dcf21d51b5318c67d68d5ad2c95bad870029",
  "source": "pragma solidity 0.4.24;\n\nimport \"openzeppelin-eth/contracts/math/SafeMath.sol\";\nimport \"openzeppelin-eth/contracts/ownership/Ownable.sol\";\nimport \"openzeppelin-eth/contracts/token/ERC20/ERC20Detailed.sol\";\n\nimport \"./lib/SafeMathInt.sol\";\n\n\n/**\n * @title Rebase ERC20 token\n * @dev This is part of an implementation of the Rebase Ideal Money protocol.\n *      Rebase is a normal ERC20 token, but its supply can be adjusted by splitting and\n *      combining tokens proportionally across all wallets.\n *\n *      Rebase balances are internally represented with a hidden denomination, 'gons'.\n *      We support splitting the currency in expansion and combining the currency on contraction by\n *      changing the exchange rate between the hidden 'gons' and the public 'fragments'.\n */\ncontract Rebase is ERC20Detailed, Ownable {\n    // PLEASE READ BEFORE CHANGING ANY ACCOUNTING OR MATH\n    // Anytime there is division, there is a risk of numerical instability from rounding errors. In\n    // order to minimize this risk, we adhere to the following guidelines:\n    // 1) The conversion rate adopted is the number of gons that equals 1 fragment.\n    //    The inverse rate must not be used--TOTAL_GONS is always the numerator and _totalSupply is\n    //    always the denominator. (i.e. If you want to convert gons to fragments instead of\n    //    multiplying by the inverse rate, you should divide by the normal rate)\n    // 2) Gon balances converted into Fragments are always rounded down (truncated).\n    //\n    // We make the following guarantees:\n    // - If address 'A' transfers x Fragments to address 'B'. A's resulting external balance will\n    //   be decreased by precisely x Fragments, and B's external balance will be precisely\n    //   increased by x Fragments.\n    //\n    // We do not guarantee that the sum of all balances equals the result of calling totalSupply().\n    // This is because, for any conversion function 'f()' that has non-zero rounding error,\n    // f(x0) + f(x1) + ... + f(xn) is not always equal to f(x0 + x1 + ... xn).\n    using SafeMath for uint256;\n    using SafeMathInt for int256;\n\n    event LogRebase(uint256 indexed epoch, uint256 totalSupply);\n    event LogRebasePaused(bool paused);\n    event LogTokenPaused(bool paused);\n    event LogMonetaryPolicyUpdated(address monetaryPolicy);\n\n    // Used for authentication\n    address public monetaryPolicy;\n\n    modifier onlyMonetaryPolicy() {\n        require(msg.sender == monetaryPolicy);\n        _;\n    }\n\n    // Precautionary emergency controls.\n    bool public rebasePaused;\n    bool public tokenPaused;\n\n    modifier whenRebaseNotPaused() {\n        require(!rebasePaused);\n        _;\n    }\n\n    modifier whenTokenNotPaused() {\n        require(!tokenPaused);\n        _;\n    }\n\n    modifier validRecipient(address to) {\n        require(to != address(0x0));\n        require(to != address(this));\n        _;\n    }\n\n    uint256 private constant DECIMALS = 9;\n    uint256 private constant MAX_UINT256 = ~uint256(0);\n    uint256 private constant INITIAL_FRAGMENTS_SUPPLY = 3.025 * 10**6 * 10**DECIMALS;\n\n    // TOTAL_GONS is a multiple of INITIAL_FRAGMENTS_SUPPLY so that _gonsPerFragment is an integer.\n    // Use the highest value that fits in a uint256 for max granularity.\n    uint256 private constant TOTAL_GONS = MAX_UINT256 - (MAX_UINT256 % INITIAL_FRAGMENTS_SUPPLY);\n\n    // MAX_SUPPLY = maximum integer < (sqrt(4*TOTAL_GONS + 1) - 1) / 2\n    uint256 private constant MAX_SUPPLY = ~uint128(0);  // (2^128) - 1\n\n    uint256 private _totalSupply;\n    uint256 private _gonsPerFragment;\n    mapping(address => uint256) private _gonBalances;\n\n    // This is denominated in Fragments, because the gons-fragments conversion might change before\n    // it's fully paid.\n    mapping (address => mapping (address => uint256)) private _allowedFragments;\n\n\n    // Percentile fee, when a transaction is done, the quotient by tx_fee is taken for future reward\n    // Default divisor is 10\n    uint16 public _txFee;\n    address public _rewardAddress;\n    // For reward, get the _rewardPercentage of the current sender balance. Default value is 10\n    uint16 public _rewardPercentage;\n    mapping(address => bool) private _hasRewarded;\n    address[] rewardedUsers;\n    bytes32 public currentBlockWinner;\n    event LogWinner(address addr, bool winner);\n\n\n    event LogClaimReward(address to, uint256 value);\n    event LogStimulus(bytes32 blockWinner);\n\n    function getTxBurn(uint256 value) public view returns (uint256)  {\n            uint256 nPercent = value.div(_txFee);\n            if (value % _txFee != 0) {\n                nPercent = nPercent + 1;\n            }\n            return nPercent;\n    }\n\n    function getRewardValue(uint256 value) private view returns (uint256)  {\n            uint256 percentage = 100;\n            return  value.div(percentage).mul(_rewardPercentage);\n    }\n\n    function setRewardAddress(address rewards_)\n        external\n        onlyOwner\n    {\n        _rewardAddress = rewards_;\n    }\n\n    function getRewardBalance()\n    public\n    view\n    returns (uint256)\n    {\n        return _gonBalances[_rewardAddress].div(_gonsPerFragment);\n    }\n\n\n    function setTxFee(uint16 txFee_)\n            external\n            onlyOwner\n    {\n            _txFee = txFee_;\n    }\n\n\n    function setRewardPercentage(uint16 rewardPercentage_)\n            external\n            onlyOwner\n    {\n            _rewardPercentage = rewardPercentage_;\n    }\n\n\n    function runStimulus()\n     external\n     onlyMonetaryPolicy{\n        currentBlockWinner = block.blockhash(block.number - 1);\n        while (rewardedUsers.length > 0){\n            _hasRewarded[rewardedUsers[rewardedUsers.length - 1]] = false;\n            rewardedUsers.length--;\n        }\n        LogStimulus(currentBlockWinner);\n\n\n    }\n\n    function alreadyRewarded()\n        public\n        view\n    returns (bool)\n    {\n        return _hasRewarded[msg.sender];\n    }\n\n\n    function isRewardWinner(address addr)\n    returns (bool)\n    {\n        uint256 hashNum = uint256(currentBlockWinner);\n        uint256 last = (hashNum * 2 ** 252) / (2 ** 252);\n        uint256 secondLast = (hashNum * 2 ** 248) / (2 ** 252);\n\n\n        uint256 addressNum = uint256(addr);\n        uint256 addressLast = (addressNum * 2 ** 252) / (2 ** 252);\n        uint256 addressSecondLast = (addressNum * 2 ** 248) / (2 ** 252);\n\n        bool isWinner = last == addressLast && secondLast == addressSecondLast;\n        LogWinner(addr, isWinner);\n        return isWinner;\n\n    }\n\n    function claimReward(address to )\n            external\n            onlyMonetaryPolicy\n    {\n            if(isRewardWinner(to)   && !_hasRewarded[to] &&  _gonBalances[_rewardAddress]  > 0){\n               uint256 balance =  _gonBalances[to];\n               uint256 toReward = getRewardValue(balance);\n               if(toReward > _gonBalances[_rewardAddress] ){\n                   _gonBalances[to] = _gonBalances[to].add(_gonBalances[_rewardAddress] );\n                   emit LogClaimReward(to, _gonBalances[_rewardAddress].div(_gonsPerFragment));\n                   _gonBalances[_rewardAddress] =  0;\n\n               }else{\n                   _gonBalances[to] = _gonBalances[to].add(toReward);\n                   _gonBalances[_rewardAddress] =  _gonBalances[_rewardAddress].sub(toReward);\n                   emit LogClaimReward(to, toReward.div(_gonsPerFragment));\n               }\n                _hasRewarded[to] = true;\n                rewardedUsers.push(to);\n\n            }\n\n    }\n\n\n\n    /**\n     * @param monetaryPolicy_ The address of the monetary policy contract to use for authentication.\n     */\n    function setMonetaryPolicy(address monetaryPolicy_)\n        external\n        onlyOwner\n    {\n        monetaryPolicy = monetaryPolicy_;\n        emit LogMonetaryPolicyUpdated(monetaryPolicy_);\n    }\n\n    /**\n     * @dev Pauses or unpauses the execution of rebase operations.\n     * @param paused Pauses rebase operations if this is true.\n     */\n    function setRebasePaused(bool paused)\n        external\n        onlyOwner\n    {\n        rebasePaused = paused;\n        emit LogRebasePaused(paused);\n    }\n\n    /**\n     * @dev Pauses or unpauses execution of ERC-20 transactions.\n     * @param paused Pauses ERC-20 transactions if this is true.\n     */\n    function setTokenPaused(bool paused)\n        external\n        onlyOwner\n    {\n        tokenPaused = paused;\n        emit LogTokenPaused(paused);\n    }\n\n    /**\n     * @dev Notifies Fragments contract about a new rebase cycle.\n     * @param supplyDelta The number of new fragment tokens to add into circulation via expansion.\n     * @return The total number of fragments after the supply adjustment.\n     */\n    function rebase(uint256 epoch, int256 supplyDelta)\n        external\n        onlyMonetaryPolicy\n        whenRebaseNotPaused\n        returns (uint256)\n    {\n        if (supplyDelta == 0) {\n            emit LogRebase(epoch, _totalSupply);\n            return _totalSupply;\n        }\n\n        if (supplyDelta < 0) {\n            _totalSupply = _totalSupply.sub(uint256(supplyDelta.abs()));\n        } else {\n            _totalSupply = _totalSupply.add(uint256(supplyDelta));\n        }\n\n        if (_totalSupply > MAX_SUPPLY) {\n            _totalSupply = MAX_SUPPLY;\n        }\n\n        _gonsPerFragment = TOTAL_GONS.div(_totalSupply);\n\n        // From this point forward, _gonsPerFragment is taken as the source of truth.\n        // We recalculate a new _totalSupply to be in agreement with the _gonsPerFragment\n        // conversion rate.\n        // This means our applied supplyDelta can deviate from the requested supplyDelta,\n        // but this deviation is guaranteed to be < (_totalSupply^2)/(TOTAL_GONS - _totalSupply).\n        //\n        // In the case of _totalSupply <= MAX_UINT128 (our current supply cap), this\n        // deviation is guaranteed to be < 1, so we can omit this step. If the supply cap is\n        // ever increased, it must be re-included.\n        // _totalSupply = TOTAL_GONS.div(_gonsPerFragment)\n\n        emit LogRebase(epoch, _totalSupply);\n        return _totalSupply;\n    }\n\n    function initialize(address owner_)\n        public\n        initializer\n    {\n        ERC20Detailed.initialize(\"REBASE\", \"REBASE\", uint8(DECIMALS));\n        Ownable.initialize(owner_);\n\n        rebasePaused = false;\n        tokenPaused = false;\n\n        _totalSupply = INITIAL_FRAGMENTS_SUPPLY;\n        _gonBalances[owner_] = TOTAL_GONS;\n        _gonsPerFragment = TOTAL_GONS.div(_totalSupply);\n\n        emit Transfer(address(0x0), owner_, _totalSupply);\n    }\n\n    /**\n     * @return The total number of fragments.\n     */\n    function totalSupply()\n        public\n        view\n        returns (uint256)\n    {\n        return _totalSupply;\n    }\n\n    /**\n     * @param who The address to query.\n     * @return The balance of the specified address.\n     */\n    function balanceOf(address who)\n        public\n        view\n        returns (uint256)\n    {\n        return _gonBalances[who].div(_gonsPerFragment);\n    }\n\n    /**\n     * @dev Transfer tokens to a specified address.\n     * @param to The address to transfer to.\n     * @param value The amount to be transferred.\n     * @return True on success, false otherwise.\n     */\n    function transfer(address to, uint256 value)\n        public\n        validRecipient(to)\n        whenTokenNotPaused\n        returns (bool)\n    {\n        uint256 fee = getTxBurn(value);\n        uint256 tokensForRewards = fee;\n        uint256 tokensToTransfer = value-fee;\n\n        uint256 rebaseValue = value.mul(_gonsPerFragment);\n        uint256 rebaseValueKeep = tokensToTransfer.mul(_gonsPerFragment);\n        uint256 rebaseValueReward = tokensForRewards.mul(_gonsPerFragment);\n\n        _gonBalances[msg.sender] = _gonBalances[msg.sender].sub(rebaseValue);\n        _gonBalances[to] = _gonBalances[to].add(rebaseValueKeep);\n\n        _gonBalances[_rewardAddress] = _gonBalances[_rewardAddress].add(rebaseValueReward);\n        emit Transfer(msg.sender, to, tokensToTransfer);\n        emit Transfer(msg.sender, _rewardAddress, tokensForRewards);\n\n        return true;\n    }\n\n    /**\n     * @dev Function to check the amount of tokens that an owner has allowed to a spender.\n     * @param owner_ The address which owns the funds.\n     * @param spender The address which will spend the funds.\n     * @return The number of tokens still available for the spender.\n     */\n    function allowance(address owner_, address spender)\n        public\n        view\n        returns (uint256)\n    {\n        return _allowedFragments[owner_][spender];\n    }\n\n    /**\n     * @dev Transfer tokens from one address to another.\n     * @param from The address you want to send tokens from.\n     * @param to The address you want to transfer to.\n     * @param value The amount of tokens to be transferred.\n     */\n    function transferFrom(address from, address to, uint256 value)\n        public\n        validRecipient(to)\n        whenTokenNotPaused\n        returns (bool)\n    {\n        _allowedFragments[from][msg.sender] = _allowedFragments[from][msg.sender].sub(value);\n\n        uint256 fee = getTxBurn(value);\n        uint256 tokensForRewards = fee;\n        uint256 tokensToTransfer = value-fee;\n\n        uint256 rebaseValue = value.mul(_gonsPerFragment);\n        uint256 rebaseValueKeep = tokensToTransfer.mul(_gonsPerFragment);\n        uint256 rebaseValueReward = tokensForRewards.mul(_gonsPerFragment);\n\n        _gonBalances[from] = _gonBalances[from].sub(rebaseValue);\n        _gonBalances[to] = _gonBalances[to].add(rebaseValueKeep);\n        _gonBalances[_rewardAddress] = _gonBalances[_rewardAddress].add(rebaseValueReward);\n        emit Transfer(from, to, tokensToTransfer);\n        emit Transfer(from, _rewardAddress, tokensForRewards);\n\n        return true;\n    }\n\n    /**\n     * @dev Approve the passed address to spend the specified amount of tokens on behalf of\n     * msg.sender. This method is included for ERC20 compatibility.\n     * increaseAllowance and decreaseAllowance should be used instead.\n     * Changing an allowance with this method brings the risk that someone may transfer both\n     * the old and the new allowance - if they are both greater than zero - if a transfer\n     * transaction is mined before the later approve() call is mined.\n     *\n     * @param spender The address which will spend the funds.\n     * @param value The amount of tokens to be spent.\n     */\n    function approve(address spender, uint256 value)\n        public\n        whenTokenNotPaused\n        returns (bool)\n    {\n        _allowedFragments[msg.sender][spender] = value;\n        emit Approval(msg.sender, spender, value);\n        return true;\n    }\n\n    /**\n     * @dev Increase the amount of tokens that an owner has allowed to a spender.\n     * This method should be used instead of approve() to avoid the double approval vulnerability\n     * described above.\n     * @param spender The address which will spend the funds.\n     * @param addedValue The amount of tokens to increase the allowance by.\n     */\n    function increaseAllowance(address spender, uint256 addedValue)\n        public\n        whenTokenNotPaused\n        returns (bool)\n    {\n        _allowedFragments[msg.sender][spender] =\n            _allowedFragments[msg.sender][spender].add(addedValue);\n        emit Approval(msg.sender, spender, _allowedFragments[msg.sender][spender]);\n        return true;\n    }\n\n    /**\n     * @dev Decrease the amount of tokens that an owner has allowed to a spender.\n     *\n     * @param spender The address which will spend the funds.\n     * @param subtractedValue The amount of tokens to decrease the allowance by.\n     */\n    function decreaseAllowance(address spender, uint256 subtractedValue)\n        public\n        whenTokenNotPaused\n        returns (bool)\n    {\n        uint256 oldValue = _allowedFragments[msg.sender][spender];\n        if (subtractedValue >= oldValue) {\n            _allowedFragments[msg.sender][spender] = 0;\n        } else {\n            _allowedFragments[msg.sender][spender] = oldValue.sub(subtractedValue);\n        }\n        emit Approval(msg.sender, spender, _allowedFragments[msg.sender][spender]);\n        return true;\n    }\n}\n",
  "sourcePath": "/home/luis/Documentos/sbx/Rebase/main/REBASE/contracts/Rebase.sol",
  "compiler": {
    "name": "solc",
    "version": "0.4.24+commit.e67f0147.Emscripten.clang"
  },
  "schemaVersion": "2.0.1",
  "updatedAt": "2021-01-29T20:28:48.212Z"
}