{
  "contractName": "Orchestrator",
  "abi": [
    {
      "constant": true,
      "inputs": [],
      "name": "policy",
      "outputs": [
        {
          "name": "",
          "type": "address"
        }
      ],
      "payable": false,
      "stateMutability": "view",
      "type": "function"
    },
    {
      "constant": false,
      "inputs": [],
      "name": "renounceOwnership",
      "outputs": [],
      "payable": false,
      "stateMutability": "nonpayable",
      "type": "function"
    },
    {
      "constant": true,
      "inputs": [],
      "name": "owner",
      "outputs": [
        {
          "name": "",
          "type": "address"
        }
      ],
      "payable": false,
      "stateMutability": "view",
      "type": "function"
    },
    {
      "constant": true,
      "inputs": [],
      "name": "isOwner",
      "outputs": [
        {
          "name": "",
          "type": "bool"
        }
      ],
      "payable": false,
      "stateMutability": "view",
      "type": "function"
    },
    {
      "constant": true,
      "inputs": [
        {
          "name": "",
          "type": "uint256"
        }
      ],
      "name": "transactions",
      "outputs": [
        {
          "name": "enabled",
          "type": "bool"
        },
        {
          "name": "destination",
          "type": "address"
        },
        {
          "name": "data",
          "type": "bytes"
        }
      ],
      "payable": false,
      "stateMutability": "view",
      "type": "function"
    },
    {
      "constant": false,
      "inputs": [
        {
          "name": "newOwner",
          "type": "address"
        }
      ],
      "name": "transferOwnership",
      "outputs": [],
      "payable": false,
      "stateMutability": "nonpayable",
      "type": "function"
    },
    {
      "anonymous": false,
      "inputs": [
        {
          "indexed": true,
          "name": "destination",
          "type": "address"
        },
        {
          "indexed": false,
          "name": "index",
          "type": "uint256"
        },
        {
          "indexed": false,
          "name": "data",
          "type": "bytes"
        }
      ],
      "name": "TransactionFailed",
      "type": "event"
    },
    {
      "anonymous": false,
      "inputs": [
        {
          "indexed": true,
          "name": "previousOwner",
          "type": "address"
        }
      ],
      "name": "OwnershipRenounced",
      "type": "event"
    },
    {
      "anonymous": false,
      "inputs": [
        {
          "indexed": true,
          "name": "previousOwner",
          "type": "address"
        },
        {
          "indexed": true,
          "name": "newOwner",
          "type": "address"
        }
      ],
      "name": "OwnershipTransferred",
      "type": "event"
    },
    {
      "constant": false,
      "inputs": [
        {
          "name": "owner_",
          "type": "address"
        },
        {
          "name": "policy_",
          "type": "address"
        }
      ],
      "name": "initialize",
      "outputs": [],
      "payable": false,
      "stateMutability": "nonpayable",
      "type": "function"
    },
    {
      "constant": false,
      "inputs": [
        {
          "name": "sender",
          "type": "address"
        }
      ],
      "name": "initialize",
      "outputs": [],
      "payable": false,
      "stateMutability": "nonpayable",
      "type": "function"
    },
    {
      "constant": false,
      "inputs": [],
      "name": "rebase",
      "outputs": [],
      "payable": false,
      "stateMutability": "nonpayable",
      "type": "function"
    },
    {
      "constant": false,
      "inputs": [
        {
          "name": "destination",
          "type": "address"
        },
        {
          "name": "data",
          "type": "bytes"
        }
      ],
      "name": "addTransaction",
      "outputs": [],
      "payable": false,
      "stateMutability": "nonpayable",
      "type": "function"
    },
    {
      "constant": false,
      "inputs": [
        {
          "name": "index",
          "type": "uint256"
        }
      ],
      "name": "removeTransaction",
      "outputs": [],
      "payable": false,
      "stateMutability": "nonpayable",
      "type": "function"
    },
    {
      "constant": false,
      "inputs": [
        {
          "name": "index",
          "type": "uint256"
        },
        {
          "name": "enabled",
          "type": "bool"
        }
      ],
      "name": "setTransactionEnabled",
      "outputs": [],
      "payable": false,
      "stateMutability": "nonpayable",
      "type": "function"
    },
    {
      "constant": true,
      "inputs": [],
      "name": "transactionsSize",
      "outputs": [
        {
          "name": "",
          "type": "uint256"
        }
      ],
      "payable": false,
      "stateMutability": "view",
      "type": "function"
    }
  ],
  "bytecode": "0x608060405234801561001057600080fd5b506114da806100206000396000f3006080604052600436106100c5576000357c0100000000000000000000000000000000000000000000000000000000900463ffffffff1680630505c8c9146100ca578063126e19be1461012157806346c3bd1f1461017c578063485cc955146101a95780636e9dde991461020c578063715018a6146102455780638da5cb5b1461025c5780638f32d59b146102b357806391d4ec18146102e25780639ace38c21461030d578063af14052c146103f1578063c4d66de814610408578063f2fde38b1461044b575b600080fd5b3480156100d657600080fd5b506100df61048e565b604051808273ffffffffffffffffffffffffffffffffffffffff1673ffffffffffffffffffffffffffffffffffffffff16815260200191505060405180910390f35b34801561012d57600080fd5b5061017a600480360381019080803573ffffffffffffffffffffffffffffffffffffffff1690602001909291908035906020019082018035906020019190919293919293905050506104b4565b005b34801561018857600080fd5b506101a7600480360381019080803590602001909291905050506105e7565b005b3480156101b557600080fd5b5061020a600480360381019080803573ffffffffffffffffffffffffffffffffffffffff169060200190929190803573ffffffffffffffffffffffffffffffffffffffff1690602001909291905050506107a1565b005b34801561021857600080fd5b5061024360048036038101908080359060200190929190803515159060200190929190505050610922565b005b34801561025157600080fd5b5061025a610a13565b005b34801561026857600080fd5b50610271610acf565b604051808273ffffffffffffffffffffffffffffffffffffffff1673ffffffffffffffffffffffffffffffffffffffff16815260200191505060405180910390f35b3480156102bf57600080fd5b506102c8610af9565b604051808215151515815260200191505060405180910390f35b3480156102ee57600080fd5b506102f7610b51565b6040518082815260200191505060405180910390f35b34801561031957600080fd5b5061033860048036038101908080359060200190929190505050610b5e565b60405180841515151581526020018373ffffffffffffffffffffffffffffffffffffffff1673ffffffffffffffffffffffffffffffffffffffff16815260200180602001828103825283818151815260200191508051906020019080838360005b838110156103b4578082015181840152602081019050610399565b50505050905090810190601f1680156103e15780820380516001836020036101000a031916815260200191505b5094505050505060405180910390f35b3480156103fd57600080fd5b50610406610c5c565b005b34801561041457600080fd5b50610449600480360381019080803573ffffffffffffffffffffffffffffffffffffffff169060200190929190505050610fd4565b005b34801561045757600080fd5b5061048c600480360381019080803573ffffffffffffffffffffffffffffffffffffffff16906020019092919050505061114b565b005b606760009054906101000a900473ffffffffffffffffffffffffffffffffffffffff1681565b6104bc610af9565b15156104c757600080fd5b60666060604051908101604052806001151581526020018573ffffffffffffffffffffffffffffffffffffffff16815260200184848080601f0160208091040260200160405190810160405280939291908181526020018383808284378201915050505050508152509080600181540180825580915050906001820390600052602060002090600202016000909192909190915060008201518160000160006101000a81548160ff02191690831515021790555060208201518160000160016101000a81548173ffffffffffffffffffffffffffffffffffffffff021916908373ffffffffffffffffffffffffffffffffffffffff16021790555060408201518160010190805190602001906105de92919061129e565b50505050505050565b6105ef610af9565b15156105fa57600080fd5b60668054905081101515610676576040517f08c379a00000000000000000000000000000000000000000000000000000000081526004018080602001828103825260138152602001807f696e646578206f7574206f6620626f756e64730000000000000000000000000081525060200191505060405180910390fd5b60016066805490500381101561078857606660016066805490500381548110151561069d57fe5b90600052602060002090600202016066828154811015156106ba57fe5b90600052602060002090600202016000820160009054906101000a900460ff168160000160006101000a81548160ff0219169083151502179055506000820160019054906101000a900473ffffffffffffffffffffffffffffffffffffffff168160000160016101000a81548173ffffffffffffffffffffffffffffffffffffffff021916908373ffffffffffffffffffffffffffffffffffffffff1602179055506001820181600101908054600181600116156101000203166002900461078392919061131e565b509050505b606680548091906001900361079d91906113a5565b5050565b60008060019054906101000a900460ff16806107c157506107c061116a565b5b806107d857506000809054906101000a900460ff16155b1515610872576040517f08c379a000000000000000000000000000000000000000000000000000000000815260040180806020018281038252602e8152602001807f436f6e747261637420696e7374616e63652068617320616c726561647920626581526020017f656e20696e697469616c697a656400000000000000000000000000000000000081525060400191505060405180910390fd5b600060019054906101000a900460ff1690506001600060016101000a81548160ff02191690831515021790555060016000806101000a81548160ff0219169083151502179055506108c283610fd4565b81606760006101000a81548173ffffffffffffffffffffffffffffffffffffffff021916908373ffffffffffffffffffffffffffffffffffffffff16021790555080600060016101000a81548160ff021916908315150217905550505050565b61092a610af9565b151561093557600080fd5b606680549050821015156109d7576040517f08c379a00000000000000000000000000000000000000000000000000000000081526004018080602001828103825260288152602001807f696e646578206d75737420626520696e2072616e6765206f662073746f72656481526020017f207478206c69737400000000000000000000000000000000000000000000000081525060400191505060405180910390fd5b806066838154811015156109e757fe5b906000526020600020906002020160000160006101000a81548160ff0219169083151502179055505050565b610a1b610af9565b1515610a2657600080fd5b603360009054906101000a900473ffffffffffffffffffffffffffffffffffffffff1673ffffffffffffffffffffffffffffffffffffffff167ff8df31144d9c2f0f6b59d69b8b98abd5459d07f2742c4df920b25aae33c6482060405160405180910390a26000603360006101000a81548173ffffffffffffffffffffffffffffffffffffffff021916908373ffffffffffffffffffffffffffffffffffffffff160217905550565b6000603360009054906101000a900473ffffffffffffffffffffffffffffffffffffffff16905090565b6000603360009054906101000a900473ffffffffffffffffffffffffffffffffffffffff1673ffffffffffffffffffffffffffffffffffffffff163373ffffffffffffffffffffffffffffffffffffffff1614905090565b6000606680549050905090565b606681815481101515610b6d57fe5b90600052602060002090600202016000915090508060000160009054906101000a900460ff16908060000160019054906101000a900473ffffffffffffffffffffffffffffffffffffffff1690806001018054600181600116156101000203166002900480601f016020809104026020016040519081016040528092919081815260200182805460018160011615610100020316600290048015610c525780601f10610c2757610100808354040283529160200191610c52565b820191906000526020600020905b815481529060010190602001808311610c3557829003601f168201915b5050505050905083565b60008060003273ffffffffffffffffffffffffffffffffffffffff163373ffffffffffffffffffffffffffffffffffffffff16141515610c9b57600080fd5b606760009054906101000a900473ffffffffffffffffffffffffffffffffffffffff1673ffffffffffffffffffffffffffffffffffffffff1663af14052c6040518163ffffffff167c0100000000000000000000000000000000000000000000000000000000028152600401600060405180830381600087803b158015610d2157600080fd5b505af1158015610d35573d6000803e3d6000fd5b50505050600092505b606680549050831015610fcf57606683815481101515610d5a57fe5b906000526020600020906002020191508160000160009054906101000a900460ff1615610fc257610e4b8260000160019054906101000a900473ffffffffffffffffffffffffffffffffffffffff16836001018054600181600116156101000203166002900480601f016020809104026020016040519081016040528092919081815260200182805460018160011615610100020316600290048015610e415780601f10610e1657610100808354040283529160200191610e41565b820191906000526020600020905b815481529060010190602001808311610e2457829003601f168201915b505050505061117b565b9050801515610fc1578160000160019054906101000a900473ffffffffffffffffffffffffffffffffffffffff1673ffffffffffffffffffffffffffffffffffffffff167f8091ecaaa54ebb82e02d36c2c336528e0fcb9b3430fc1291ac88295032b9c26384846001016040518083815260200180602001828103825283818154600181600116156101000203166002900481526020019150805460018160011615610100020316600290048015610f445780601f10610f1957610100808354040283529160200191610f44565b820191906000526020600020905b815481529060010190602001808311610f2757829003601f168201915b5050935050505060405180910390a26040517f08c379a00000000000000000000000000000000000000000000000000000000081526004018080602001828103825260128152602001807f5472616e73616374696f6e204661696c6564000000000000000000000000000081525060200191505060405180910390fd5b5b8280600101935050610d3e565b505050565b60008060019054906101000a900460ff1680610ff45750610ff361116a565b5b8061100b57506000809054906101000a900460ff16155b15156110a5576040517f08c379a000000000000000000000000000000000000000000000000000000000815260040180806020018281038252602e8152602001807f436f6e747261637420696e7374616e63652068617320616c726561647920626581526020017f656e20696e697469616c697a656400000000000000000000000000000000000081525060400191505060405180910390fd5b600060019054906101000a900460ff1690506001600060016101000a81548160ff02191690831515021790555060016000806101000a81548160ff02191690831515021790555081603360006101000a81548173ffffffffffffffffffffffffffffffffffffffff021916908373ffffffffffffffffffffffffffffffffffffffff16021790555080600060016101000a81548160ff0219169083151502179055505050565b611153610af9565b151561115e57600080fd5b611167816111a2565b50565b600080303b90506000811491505090565b6000806040516020840160008286518360008a6187965a03f1925050508091505092915050565b600073ffffffffffffffffffffffffffffffffffffffff168173ffffffffffffffffffffffffffffffffffffffff16141515156111de57600080fd5b8073ffffffffffffffffffffffffffffffffffffffff16603360009054906101000a900473ffffffffffffffffffffffffffffffffffffffff1673ffffffffffffffffffffffffffffffffffffffff167f8be0079c531659141344cd1fd0a4f28419497f9722a3daafe3b4186f6b6457e060405160405180910390a380603360006101000a81548173ffffffffffffffffffffffffffffffffffffffff021916908373ffffffffffffffffffffffffffffffffffffffff16021790555050565b828054600181600116156101000203166002900490600052602060002090601f016020900481019282601f106112df57805160ff191683800117855561130d565b8280016001018555821561130d579182015b8281111561130c5782518255916020019190600101906112f1565b5b50905061131a91906113d7565b5090565b828054600181600116156101000203166002900490600052602060002090601f016020900481019282601f106113575780548555611394565b8280016001018555821561139457600052602060002091601f016020900482015b82811115611393578254825591600101919060010190611378565b5b5090506113a191906113d7565b5090565b8154818355818111156113d2576002028160020283600052602060002091820191016113d191906113fc565b5b505050565b6113f991905b808211156113f55760008160009055506001016113dd565b5090565b90565b61146391905b8082111561145f57600080820160006101000a81549060ff02191690556000820160016101000a81549073ffffffffffffffffffffffffffffffffffffffff02191690556001820160006114569190611466565b50600201611402565b5090565b90565b50805460018160011615610100020316600290046000825580601f1061148c57506114ab565b601f0160209004906000526020600020908101906114aa91906113d7565b5b505600a165627a7a723058203a2ce2193a6295b727a2b10f53ba4558c1bb1627a4307099da19ae80ae9dcb410029",
  "source": "pragma solidity 0.4.24;\n\nimport \"openzeppelin-eth/contracts/ownership/Ownable.sol\";\nimport \"./RebasePolicy.sol\";\n\n\n/**\n * @title Orchestrator\n * @notice The orchestrator is the main entry point for rebase operations. It coordinates the policy\n * actions with external consumers.\n */\ncontract Orchestrator is Ownable {\n\n    struct Transaction {\n        bool enabled;\n        address destination;\n        bytes data;\n    }\n\n    event TransactionFailed(address indexed destination, uint index, bytes data);\n\n    // Stable ordering is not guaranteed.\n    Transaction[] public transactions;\n\n    RebasePolicy public policy;\n\n    /**\n     * @param policy_ Address of the Rebase policy.\n     */\n//    constructor(address policy_) public {\n//        Ownable.initialize(msg.sender);\n//        policy = RebasePolicy(policy_);\n//    }\n\n    function initialize(address owner_, address policy_)\n    public\n    initializer\n    {\n        Ownable.initialize(owner_);\n        policy = RebasePolicy(policy_);\n    }\n\n    /**\n     * @notice Main entry point to initiate a rebase operation.\n     *         The Orchestrator calls rebase on the policy and notifies downstream applications.\n     *         Contracts are guarded from calling, to avoid flash loan attacks on liquidity\n     *         providers.\n     *         If a transaction in the transaction list reverts, it is swallowed and the remaining\n     *         transactions are executed.\n     */\n    function rebase()\n        external\n    {\n        require(msg.sender == tx.origin);  // solhint-disable-line avoid-tx-origin\n\n        policy.rebase();\n\n        for (uint i = 0; i < transactions.length; i++) {\n            Transaction storage t = transactions[i];\n            if (t.enabled) {\n                bool result =\n                    externalCall(t.destination, t.data);\n                if (!result) {\n                    emit TransactionFailed(t.destination, i, t.data);\n                    revert(\"Transaction Failed\");\n                }\n            }\n        }\n    }\n\n    /**\n     * @notice Adds a transaction that gets called for a downstream receiver of rebases\n     * @param destination Address of contract destination\n     * @param data Transaction data payload\n     */\n    function addTransaction(address destination, bytes data)\n        external\n        onlyOwner\n    {\n        transactions.push(Transaction({\n            enabled: true,\n            destination: destination,\n            data: data\n        }));\n    }\n\n    /**\n     * @param index Index of transaction to remove.\n     *              Transaction ordering may have changed since adding.\n     */\n    function removeTransaction(uint index)\n        external\n        onlyOwner\n    {\n        require(index < transactions.length, \"index out of bounds\");\n\n        if (index < transactions.length - 1) {\n            transactions[index] = transactions[transactions.length - 1];\n        }\n\n        transactions.length--;\n    }\n\n\n    /**\n     * @param index Index of transaction. Transaction ordering may have changed since adding.\n     * @param enabled True for enabled, false for disabled.\n     */\n    function setTransactionEnabled(uint index, bool enabled)\n        external\n        onlyOwner\n    {\n        require(index < transactions.length, \"index must be in range of stored tx list\");\n        transactions[index].enabled = enabled;\n    }\n\n    /**\n     * @return Number of transactions, both enabled and disabled, in transactions list.\n     */\n    function transactionsSize()\n        external\n        view\n        returns (uint256)\n    {\n        return transactions.length;\n    }\n\n    /**\n     * @dev wrapper to call the encoded transactions on downstream consumers.\n     * @param destination Address of destination contract.\n     * @param data The encoded data payload.\n     * @return True on success\n     */\n    function externalCall(address destination, bytes data)\n        internal\n        returns (bool)\n    {\n        bool result;\n        assembly {  // solhint-disable-line no-inline-assembly\n            // \"Allocate\" memory for output\n            // (0x40 is where \"free memory\" pointer is stored by convention)\n            let outputAddress := mload(0x40)\n\n            // First 32 bytes are the padded length of data, so exclude that\n            let dataAddress := add(data, 32)\n\n            result := call(\n                // 34710 is the value that solidity is currently emitting\n                // It includes callGas (700) + callVeryLow (3, to pay for SUB)\n                // + callValueTransferGas (9000) + callNewAccountGas\n                // (25000, in case the destination address does not exist and needs creating)\n                sub(gas, 34710),\n\n\n                destination,\n                0, // transfer value in wei\n                dataAddress,\n                mload(data),  // Size of the input, in bytes. Stored in position 0 of the array.\n                outputAddress,\n                0  // Output is ignored, therefore the output size is zero\n            )\n        }\n        return result;\n    }\n}\n",
  "sourcePath": "/Users/lgguzman/Documents/SbxMix/rebase/main/REBASE/contracts/Orchestrator.sol",
  "compiler": {
    "name": "solc",
    "version": "0.4.24+commit.e67f0147.Emscripten.clang"
  },
  "schemaVersion": "2.0.1",
  "updatedAt": "2020-11-17T19:59:16.714Z"
}