{
  "contractName": "RebasePolicy",
  "abi": [
    {
      "constant": true,
      "inputs": [],
      "name": "minRebaseTimeIntervalSec",
      "outputs": [
        {
          "name": "",
          "type": "uint256"
        }
      ],
      "payable": false,
      "stateMutability": "view",
      "type": "function"
    },
    {
      "constant": true,
      "inputs": [],
      "name": "rebaseC",
      "outputs": [
        {
          "name": "",
          "type": "address"
        }
      ],
      "payable": false,
      "stateMutability": "view",
      "type": "function"
    },
    {
      "constant": true,
      "inputs": [],
      "name": "lastStimulusTimestampSec",
      "outputs": [
        {
          "name": "",
          "type": "uint256"
        }
      ],
      "payable": false,
      "stateMutability": "view",
      "type": "function"
    },
    {
      "constant": true,
      "inputs": [],
      "name": "lastRebaseTimestampSec",
      "outputs": [
        {
          "name": "",
          "type": "uint256"
        }
      ],
      "payable": false,
      "stateMutability": "view",
      "type": "function"
    },
    {
      "constant": true,
      "inputs": [],
      "name": "minStimulusTimeIntervalSec",
      "outputs": [
        {
          "name": "",
          "type": "uint256"
        }
      ],
      "payable": false,
      "stateMutability": "view",
      "type": "function"
    },
    {
      "constant": true,
      "inputs": [],
      "name": "marketOracle",
      "outputs": [
        {
          "name": "",
          "type": "address"
        }
      ],
      "payable": false,
      "stateMutability": "view",
      "type": "function"
    },
    {
      "constant": true,
      "inputs": [],
      "name": "rebaseLag",
      "outputs": [
        {
          "name": "",
          "type": "uint256"
        }
      ],
      "payable": false,
      "stateMutability": "view",
      "type": "function"
    },
    {
      "constant": true,
      "inputs": [],
      "name": "rebaseWindowOffsetSec",
      "outputs": [
        {
          "name": "",
          "type": "uint256"
        }
      ],
      "payable": false,
      "stateMutability": "view",
      "type": "function"
    },
    {
      "constant": false,
      "inputs": [],
      "name": "renounceOwnership",
      "outputs": [],
      "payable": false,
      "stateMutability": "nonpayable",
      "type": "function"
    },
    {
      "constant": true,
      "inputs": [],
      "name": "owner",
      "outputs": [
        {
          "name": "",
          "type": "address"
        }
      ],
      "payable": false,
      "stateMutability": "view",
      "type": "function"
    },
    {
      "constant": true,
      "inputs": [],
      "name": "isOwner",
      "outputs": [
        {
          "name": "",
          "type": "bool"
        }
      ],
      "payable": false,
      "stateMutability": "view",
      "type": "function"
    },
    {
      "constant": true,
      "inputs": [],
      "name": "epoch",
      "outputs": [
        {
          "name": "",
          "type": "uint256"
        }
      ],
      "payable": false,
      "stateMutability": "view",
      "type": "function"
    },
    {
      "constant": true,
      "inputs": [],
      "name": "rebaseWindowLengthSec",
      "outputs": [
        {
          "name": "",
          "type": "uint256"
        }
      ],
      "payable": false,
      "stateMutability": "view",
      "type": "function"
    },
    {
      "constant": true,
      "inputs": [],
      "name": "cpiOracle",
      "outputs": [
        {
          "name": "",
          "type": "address"
        }
      ],
      "payable": false,
      "stateMutability": "view",
      "type": "function"
    },
    {
      "constant": true,
      "inputs": [],
      "name": "orchestrator",
      "outputs": [
        {
          "name": "",
          "type": "address"
        }
      ],
      "payable": false,
      "stateMutability": "view",
      "type": "function"
    },
    {
      "constant": true,
      "inputs": [],
      "name": "deviationThreshold",
      "outputs": [
        {
          "name": "",
          "type": "uint256"
        }
      ],
      "payable": false,
      "stateMutability": "view",
      "type": "function"
    },
    {
      "constant": false,
      "inputs": [
        {
          "name": "newOwner",
          "type": "address"
        }
      ],
      "name": "transferOwnership",
      "outputs": [],
      "payable": false,
      "stateMutability": "nonpayable",
      "type": "function"
    },
    {
      "anonymous": false,
      "inputs": [
        {
          "indexed": true,
          "name": "epoch",
          "type": "uint256"
        },
        {
          "indexed": false,
          "name": "exchangeRate",
          "type": "uint256"
        },
        {
          "indexed": false,
          "name": "cpi",
          "type": "uint256"
        },
        {
          "indexed": false,
          "name": "requestedSupplyAdjustment",
          "type": "int256"
        },
        {
          "indexed": false,
          "name": "timestampSec",
          "type": "uint256"
        }
      ],
      "name": "LogRebase",
      "type": "event"
    },
    {
      "anonymous": false,
      "inputs": [
        {
          "indexed": true,
          "name": "previousOwner",
          "type": "address"
        }
      ],
      "name": "OwnershipRenounced",
      "type": "event"
    },
    {
      "anonymous": false,
      "inputs": [
        {
          "indexed": true,
          "name": "previousOwner",
          "type": "address"
        },
        {
          "indexed": true,
          "name": "newOwner",
          "type": "address"
        }
      ],
      "name": "OwnershipTransferred",
      "type": "event"
    },
    {
      "constant": false,
      "inputs": [
        {
          "name": "to",
          "type": "address"
        }
      ],
      "name": "claimReward",
      "outputs": [],
      "payable": false,
      "stateMutability": "nonpayable",
      "type": "function"
    },
    {
      "constant": false,
      "inputs": [
        {
          "name": "minStimulusTimeIntervalSec_",
          "type": "uint256"
        },
        {
          "name": "lastStimulusTimestampSec_",
          "type": "uint256"
        }
      ],
      "name": "setStimulusTimingParameters",
      "outputs": [],
      "payable": false,
      "stateMutability": "nonpayable",
      "type": "function"
    },
    {
      "constant": false,
      "inputs": [],
      "name": "runStimulus",
      "outputs": [],
      "payable": false,
      "stateMutability": "nonpayable",
      "type": "function"
    },
    {
      "constant": false,
      "inputs": [],
      "name": "rebase",
      "outputs": [],
      "payable": false,
      "stateMutability": "nonpayable",
      "type": "function"
    },
    {
      "constant": false,
      "inputs": [
        {
          "name": "cpiOracle_",
          "type": "address"
        }
      ],
      "name": "setCpiOracle",
      "outputs": [],
      "payable": false,
      "stateMutability": "nonpayable",
      "type": "function"
    },
    {
      "constant": false,
      "inputs": [
        {
          "name": "marketOracle_",
          "type": "address"
        }
      ],
      "name": "setMarketOracle",
      "outputs": [],
      "payable": false,
      "stateMutability": "nonpayable",
      "type": "function"
    },
    {
      "constant": false,
      "inputs": [
        {
          "name": "orchestrator_",
          "type": "address"
        }
      ],
      "name": "setOrchestrator",
      "outputs": [],
      "payable": false,
      "stateMutability": "nonpayable",
      "type": "function"
    },
    {
      "constant": false,
      "inputs": [
        {
          "name": "deviationThreshold_",
          "type": "uint256"
        }
      ],
      "name": "setDeviationThreshold",
      "outputs": [],
      "payable": false,
      "stateMutability": "nonpayable",
      "type": "function"
    },
    {
      "constant": false,
      "inputs": [
        {
          "name": "rebaseLag_",
          "type": "uint256"
        }
      ],
      "name": "setRebaseLag",
      "outputs": [],
      "payable": false,
      "stateMutability": "nonpayable",
      "type": "function"
    },
    {
      "constant": false,
      "inputs": [
        {
          "name": "minRebaseTimeIntervalSec_",
          "type": "uint256"
        },
        {
          "name": "rebaseWindowOffsetSec_",
          "type": "uint256"
        },
        {
          "name": "rebaseWindowLengthSec_",
          "type": "uint256"
        }
      ],
      "name": "setRebaseTimingParameters",
      "outputs": [],
      "payable": false,
      "stateMutability": "nonpayable",
      "type": "function"
    },
    {
      "constant": false,
      "inputs": [
        {
          "name": "sender",
          "type": "address"
        }
      ],
      "name": "initialize",
      "outputs": [],
      "payable": false,
      "stateMutability": "nonpayable",
      "type": "function"
    },
    {
      "constant": false,
      "inputs": [
        {
          "name": "owner_",
          "type": "address"
        },
        {
          "name": "rebaseC_",
          "type": "address"
        },
        {
          "name": "baseCpi_",
          "type": "uint256"
        }
      ],
      "name": "initialize",
      "outputs": [],
      "payable": false,
      "stateMutability": "nonpayable",
      "type": "function"
    },
    {
      "constant": true,
      "inputs": [],
      "name": "inRebaseWindow",
      "outputs": [
        {
          "name": "",
          "type": "bool"
        }
      ],
      "payable": false,
      "stateMutability": "view",
      "type": "function"
    }
  ],
  "bytecode": "0x608060405234801561001057600080fd5b50611de0806100206000396000f300608060405260043610610180576000357c0100000000000000000000000000000000000000000000000000000000900463ffffffff168063021018991461018557806308b692b1146101b0578063111d04981461020757806316250fd4146102365780631794bb3c1461027757806320ce8389146102e457806334005efe146103115780633a93069b1461033c5780633d6a46e51461036757806353a15edc146103aa57806357529757146103d7578063609615281461040257806363f6d4c8146104595780636c8fae7b146104845780637052b902146104bb578063715018a6146104e657806383e3605c146104fd5780638da5cb5b146105145780638f32d59b1461056b578063900cf0cf1461059a5780639466120f146105c55780639e30bac5146105f0578063ab33c5ca14610633578063af14052c1461068a578063b74795d9146106a1578063c4d66de8146106f8578063cd28ef0d1461073b578063d279c1911461077e578063d94ad837146107c1578063f2fde38b146107ec575b600080fd5b34801561019157600080fd5b5061019a61082f565b6040518082815260200191505060405180910390f35b3480156101bc57600080fd5b506101c5610835565b604051808273ffffffffffffffffffffffffffffffffffffffff1673ffffffffffffffffffffffffffffffffffffffff16815260200191505060405180910390f35b34801561021357600080fd5b5061021c61085b565b604051808215151515815260200191505060405180910390f35b34801561024257600080fd5b506102756004803603810190808035906020019092919080359060200190929190803590602001909291905050506108b1565b005b34801561028357600080fd5b506102e2600480360381019080803573ffffffffffffffffffffffffffffffffffffffff169060200190929190803573ffffffffffffffffffffffffffffffffffffffff169060200190929190803590602001909291905050506108fb565b005b3480156102f057600080fd5b5061030f60048036038101908080359060200190929190505050610ad9565b005b34801561031d57600080fd5b50610326610b05565b6040518082815260200191505060405180910390f35b34801561034857600080fd5b50610351610b0b565b6040518082815260200191505060405180910390f35b34801561037357600080fd5b506103a8600480360381019080803573ffffffffffffffffffffffffffffffffffffffff169060200190929190505050610b11565b005b3480156103b657600080fd5b506103d560048036038101908080359060200190929190505050610b68565b005b3480156103e357600080fd5b506103ec610b85565b6040518082815260200191505060405180910390f35b34801561040e57600080fd5b50610417610b8b565b604051808273ffffffffffffffffffffffffffffffffffffffff1673ffffffffffffffffffffffffffffffffffffffff16815260200191505060405180910390f35b34801561046557600080fd5b5061046e610bb1565b6040518082815260200191505060405180910390f35b34801561049057600080fd5b506104b96004803603810190808035906020019092919080359060200190929190505050610bb7565b005b3480156104c757600080fd5b506104d0610bf9565b6040518082815260200191505060405180910390f35b3480156104f257600080fd5b506104fb610bff565b005b34801561050957600080fd5b50610512610cbb565b005b34801561052057600080fd5b50610529610e08565b604051808273ffffffffffffffffffffffffffffffffffffffff1673ffffffffffffffffffffffffffffffffffffffff16815260200191505060405180910390f35b34801561057757600080fd5b50610580610e32565b604051808215151515815260200191505060405180910390f35b3480156105a657600080fd5b506105af610e8a565b6040518082815260200191505060405180910390f35b3480156105d157600080fd5b506105da610e90565b6040518082815260200191505060405180910390f35b3480156105fc57600080fd5b50610631600480360381019080803573ffffffffffffffffffffffffffffffffffffffff169060200190929190505050610e96565b005b34801561063f57600080fd5b50610648610eed565b604051808273ffffffffffffffffffffffffffffffffffffffff1673ffffffffffffffffffffffffffffffffffffffff16815260200191505060405180910390f35b34801561069657600080fd5b5061069f610f13565b005b3480156106ad57600080fd5b506106b661159a565b604051808273ffffffffffffffffffffffffffffffffffffffff1673ffffffffffffffffffffffffffffffffffffffff16815260200191505060405180910390f35b34801561070457600080fd5b50610739600480360381019080803573ffffffffffffffffffffffffffffffffffffffff1690602001909291905050506115c0565b005b34801561074757600080fd5b5061077c600480360381019080803573ffffffffffffffffffffffffffffffffffffffff169060200190929190505050611746565b005b34801561078a57600080fd5b506107bf600480360381019080803573ffffffffffffffffffffffffffffffffffffffff16906020019092919050505061179d565b005b3480156107cd57600080fd5b506107d66118d1565b6040518082815260200191505060405180910390f35b3480156107f857600080fd5b5061082d600480360381019080803573ffffffffffffffffffffffffffffffffffffffff1690602001909291905050506118d7565b005b606c5481565b606660009054906101000a900473ffffffffffffffffffffffffffffffffffffffff1681565b6000606e54610875606c54426118f690919063ffffffff16565b101580156108ac5750610895606f54606e5461191b90919063ffffffff16565b6108aa606c54426118f690919063ffffffff16565b105b905090565b6108b9610e32565b15156108c457600080fd5b6000831115156108d357600080fd5b82821015156108e157600080fd5b82606c8190555081606e8190555080606f81905550505050565b60008060019054906101000a900460ff168061091b575061091a61193c565b5b8061093257506000809054906101000a900460ff16155b15156109cc576040517f08c379a000000000000000000000000000000000000000000000000000000000815260040180806020018281038252602e8152602001807f436f6e747261637420696e7374616e63652068617320616c726561647920626581526020017f656e20696e697469616c697a656400000000000000000000000000000000000081525060400191505060405180910390fd5b600060019054906101000a900460ff161590508015610a1b576001600060016101000a81548160ff02191690831515021790555060016000806101000a81548160ff0219169083151502179055505b610a24846115c0565b6002601203600a0a600502606a81905550601e606b8190555062015180606c8190555062011940606e81905550610384606f819055506000606d81905550600060708190555082606660006101000a81548173ffffffffffffffffffffffffffffffffffffffff021916908373ffffffffffffffffffffffffffffffffffffffff160217905550816069819055508015610ad35760008060016101000a81548160ff0219169083151502179055505b50505050565b610ae1610e32565b1515610aec57600080fd5b600081111515610afb57600080fd5b80606b8190555050565b60735481565b606d5481565b610b19610e32565b1515610b2457600080fd5b80606760006101000a81548173ffffffffffffffffffffffffffffffffffffffff021916908373ffffffffffffffffffffffffffffffffffffffff16021790555050565b610b70610e32565b1515610b7b57600080fd5b80606a8190555050565b60725481565b606860009054906101000a900473ffffffffffffffffffffffffffffffffffffffff1681565b606b5481565b610bbf610e32565b1515610bca57600080fd5b600082111515610bd957600080fd5b8181101515610be757600080fd5b81607281905550806073819055505050565b606e5481565b610c07610e32565b1515610c1257600080fd5b603360009054906101000a900473ffffffffffffffffffffffffffffffffffffffff1673ffffffffffffffffffffffffffffffffffffffff167ff8df31144d9c2f0f6b59d69b8b98abd5459d07f2742c4df920b25aae33c6482060405160405180910390a26000603360006101000a81548173ffffffffffffffffffffffffffffffffffffffff021916908373ffffffffffffffffffffffffffffffffffffffff160217905550565b607160009054906101000a900473ffffffffffffffffffffffffffffffffffffffff1673ffffffffffffffffffffffffffffffffffffffff163373ffffffffffffffffffffffffffffffffffffffff16141515610d1757600080fd5b42610d2f60725460735461191b90919063ffffffff16565b101515610d3b57600080fd5b610d62610d53607254426118f690919063ffffffff16565b4261194d90919063ffffffff16565b607381905550606660009054906101000a900473ffffffffffffffffffffffffffffffffffffffff1673ffffffffffffffffffffffffffffffffffffffff166383e3605c6040518163ffffffff167c0100000000000000000000000000000000000000000000000000000000028152600401600060405180830381600087803b158015610dee57600080fd5b505af1158015610e02573d6000803e3d6000fd5b50505050565b6000603360009054906101000a900473ffffffffffffffffffffffffffffffffffffffff16905090565b6000603360009054906101000a900473ffffffffffffffffffffffffffffffffffffffff1673ffffffffffffffffffffffffffffffffffffffff163373ffffffffffffffffffffffffffffffffffffffff1614905090565b60705481565b606f5481565b610e9e610e32565b1515610ea957600080fd5b80606860006101000a81548173ffffffffffffffffffffffffffffffffffffffff021916908373ffffffffffffffffffffffffffffffffffffffff16021790555050565b606760009054906101000a900473ffffffffffffffffffffffffffffffffffffffff1681565b6000806000806000806000607160009054906101000a900473ffffffffffffffffffffffffffffffffffffffff1673ffffffffffffffffffffffffffffffffffffffff163373ffffffffffffffffffffffffffffffffffffffff16141515610f7a57600080fd5b610f8261085b565b1515610f8d57600080fd5b42610fa5606c54606d5461191b90919063ffffffff16565b101515610fb157600080fd5b610fec606e54610fde610fcf606c54426118f690919063ffffffff16565b4261194d90919063ffffffff16565b61191b90919063ffffffff16565b606d81905550611008600160705461191b90919063ffffffff16565b607081905550606760009054906101000a900473ffffffffffffffffffffffffffffffffffffffff1673ffffffffffffffffffffffffffffffffffffffff16633bc5de306040518163ffffffff167c01000000000000000000000000000000000000000000000000000000000281526004016040805180830381600087803b15801561109357600080fd5b505af11580156110a7573d6000803e3d6000fd5b505050506040513d60408110156110bd57600080fd5b81019080805190602001909291908051906020019092919050505080975081985050508515156110ec57600080fd5b6111176069546111096012600a0a8a61196e90919063ffffffff16565b6119ac90919063ffffffff16565b9450606860009054906101000a900473ffffffffffffffffffffffffffffffffffffffff1673ffffffffffffffffffffffffffffffffffffffff16633bc5de306040518163ffffffff167c01000000000000000000000000000000000000000000000000000000000281526004016040805180830381600087803b15801561119e57600080fd5b505af11580156111b2573d6000803e3d6000fd5b505050506040513d60408110156111c857600080fd5b81019080805190602001909291908051906020019092919050505080945081955050508215156111f757600080fd5b6012600a0a620f424002841115611215576012600a0a620f42400293505b61121f84866119d6565b915061123e61122f606b54611b0d565b83611b2f90919063ffffffff16565b915060008213801561133e57506012600a0a620f42400260ff60019060020a021981151561126857fe5b0461133c83606660009054906101000a900473ffffffffffffffffffffffffffffffffffffffff1673ffffffffffffffffffffffffffffffffffffffff166318160ddd6040518163ffffffff167c0100000000000000000000000000000000000000000000000000000000028152600401602060405180830381600087803b1580156112f357600080fd5b505af1158015611307573d6000803e3d6000fd5b505050506040513d602081101561131d57600080fd5b810190808051906020019092919050505061191b90919063ffffffff16565b115b1561143e5761143b611436606660009054906101000a900473ffffffffffffffffffffffffffffffffffffffff1673ffffffffffffffffffffffffffffffffffffffff166318160ddd6040518163ffffffff167c0100000000000000000000000000000000000000000000000000000000028152600401602060405180830381600087803b1580156113cf57600080fd5b505af11580156113e3573d6000803e3d6000fd5b505050506040513d60208110156113f957600080fd5b81019080805190602001909291905050506012600a0a620f42400260ff60019060020a021981151561142757fe5b0461194d90919063ffffffff16565b611b0d565b91505b606660009054906101000a900473ffffffffffffffffffffffffffffffffffffffff1673ffffffffffffffffffffffffffffffffffffffff16637a43e23f607054846040518363ffffffff167c01000000000000000000000000000000000000000000000000000000000281526004018083815260200182815260200192505050602060405180830381600087803b1580156114d957600080fd5b505af11580156114ed573d6000803e3d6000fd5b505050506040513d602081101561150357600080fd5b810190808051906020019092919050505090506012600a0a620f42400260ff60019060020a021981151561153357fe5b04811115151561153f57fe5b6070547f41d948a7f29cc695f5d4b3ec147f766bffa165ddd317470fbe05c86d0a9c3e04858985426040518085815260200184815260200183815260200182815260200194505050505060405180910390a250505050505050565b607160009054906101000a900473ffffffffffffffffffffffffffffffffffffffff1681565b60008060019054906101000a900460ff16806115e057506115df61193c565b5b806115f757506000809054906101000a900460ff16155b1515611691576040517f08c379a000000000000000000000000000000000000000000000000000000000815260040180806020018281038252602e8152602001807f436f6e747261637420696e7374616e63652068617320616c726561647920626581526020017f656e20696e697469616c697a656400000000000000000000000000000000000081525060400191505060405180910390fd5b600060019054906101000a900460ff1615905080156116e0576001600060016101000a81548160ff02191690831515021790555060016000806101000a81548160ff0219169083151502179055505b81603360006101000a81548173ffffffffffffffffffffffffffffffffffffffff021916908373ffffffffffffffffffffffffffffffffffffffff16021790555080156117425760008060016101000a81548160ff0219169083151502179055505b5050565b61174e610e32565b151561175957600080fd5b80607160006101000a81548173ffffffffffffffffffffffffffffffffffffffff021916908373ffffffffffffffffffffffffffffffffffffffff16021790555050565b607160009054906101000a900473ffffffffffffffffffffffffffffffffffffffff1673ffffffffffffffffffffffffffffffffffffffff163373ffffffffffffffffffffffffffffffffffffffff161415156117f957600080fd5b606660009054906101000a900473ffffffffffffffffffffffffffffffffffffffff1673ffffffffffffffffffffffffffffffffffffffff1663d279c191826040518263ffffffff167c0100000000000000000000000000000000000000000000000000000000028152600401808273ffffffffffffffffffffffffffffffffffffffff1673ffffffffffffffffffffffffffffffffffffffff168152602001915050600060405180830381600087803b1580156118b657600080fd5b505af11580156118ca573d6000803e3d6000fd5b5050505050565b606a5481565b6118df610e32565b15156118ea57600080fd5b6118f381611b87565b50565b600080821415151561190757600080fd5b818381151561191257fe5b06905092915050565b600080828401905083811015151561193257600080fd5b8091505092915050565b600080303b90506000811491505090565b60008083831115151561195f57600080fd5b82840390508091505092915050565b600080600084141561198357600091506119a5565b828402905082848281151561199457fe5b041415156119a157600080fd5b8091505b5092915050565b6000806000831115156119be57600080fd5b82848115156119c957fe5b0490508091505092915050565b6000806119e38484611c83565b156119f15760009150611b06565b6119fa83611b0d565b9050611b0381611af5611a1e84611a1089611b0d565b611d0490919063ffffffff16565b611ae7606660009054906101000a900473ffffffffffffffffffffffffffffffffffffffff1673ffffffffffffffffffffffffffffffffffffffff166318160ddd6040518163ffffffff167c0100000000000000000000000000000000000000000000000000000000028152600401602060405180830381600087803b158015611aa757600080fd5b505af1158015611abb573d6000803e3d6000fd5b505050506040513d6020811015611ad157600080fd5b8101908080519060200190929190505050611b0d565b611d4890919063ffffffff16565b611b2f90919063ffffffff16565b91505b5092915050565b600060ff60019060020a02198211151515611b2757600080fd5b819050919050565b60007fffffffffffffffffffffffffffffffffffffffffffffffffffffffffffffffff82141580611b68575060ff60019060020a028314155b1515611b7357600080fd5b8183811515611b7e57fe5b05905092915050565b600073ffffffffffffffffffffffffffffffffffffffff168173ffffffffffffffffffffffffffffffffffffffff1614151515611bc357600080fd5b8073ffffffffffffffffffffffffffffffffffffffff16603360009054906101000a900473ffffffffffffffffffffffffffffffffffffffff1673ffffffffffffffffffffffffffffffffffffffff167f8be0079c531659141344cd1fd0a4f28419497f9722a3daafe3b4186f6b6457e060405160405180910390a380603360006101000a81548173ffffffffffffffffffffffffffffffffffffffff021916908373ffffffffffffffffffffffffffffffffffffffff16021790555050565b600080611cb16012600a0a611ca3606a548661196e90919063ffffffff16565b6119ac90919063ffffffff16565b9050828410158015611cd4575080611cd2848661194d90919063ffffffff16565b105b80611cfb57508284108015611cfa575080611cf8858561194d90919063ffffffff16565b105b5b91505092915050565b600080828403905060008312158015611d1d5750838113155b80611d335750600083128015611d3257508381135b5b1515611d3e57600080fd5b8091505092915050565b600080828402905060ff60019060020a0281141580611d7b575060ff60019060020a02831660ff60019060020a02851614155b1515611d8657600080fd5b6000831480611d9f5750838382811515611d9c57fe5b05145b1515611daa57600080fd5b80915050929150505600a165627a7a723058204edb759f8811f7bf6853a7bb65ca19cb8a116c9aa6585b0ddc44ca09f53906680029",
  "source": "pragma solidity 0.4.24;\n\nimport \"openzeppelin-eth/contracts/math/SafeMath.sol\";\nimport \"openzeppelin-eth/contracts/ownership/Ownable.sol\";\n\nimport \"./lib/SafeMathInt.sol\";\nimport \"./lib/UInt256Lib.sol\";\nimport \"./Rebase.sol\";\n\n\ninterface IOracle {\n    function getData() external returns (uint256, bool);\n}\n\n\n/**\n * @title Rebase Monetary Supply Policy\n * @dev This is an implementation of the Rebase Ideal Money protocol.\n *      Rebase operates symmetrically on expansion and contraction. It will both split and\n *      combine coins to maintain a stable unit price.\n *\n *      This component regulates the token supply of the Rebase ERC20 token in response to\n *      market oracles.\n */\ncontract RebasePolicy is Ownable {\n    using SafeMath for uint256;\n    using SafeMathInt for int256;\n    using UInt256Lib for uint256;\n\n    event LogRebase(\n        uint256 indexed epoch,\n        uint256 exchangeRate,\n        uint256 cpi,\n        int256 requestedSupplyAdjustment,\n        uint256 timestampSec\n    );\n\n    Rebase public rebaseC;\n\n    // Provides the current CPI, as an 18 decimal fixed point number.\n    IOracle public cpiOracle;\n\n    // Market oracle provides the token/USD exchange rate as an 18 decimal fixed point number.\n    // (eg) An oracle value of 1.5e18 it would mean 1 Rebase is trading for $1.50.\n    IOracle public marketOracle;\n\n    // CPI value at the time of launch, as an 18 decimal fixed point number.\n    uint256 private baseCpi;\n\n    // If the current exchange rate is within this fractional distance from the target, no supply\n    // update is performed. Fixed point number--same format as the rate.\n    // (ie) abs(rate - targetRate) / targetRate < deviationThreshold, then no supply change.\n    // DECIMALS Fixed point number.\n    uint256 public deviationThreshold;\n\n    // The rebase lag parameter, used to dampen the applied supply adjustment by 1 / rebaseLag\n    // Check setRebaseLag comments for more details.\n    // Natural number, no decimal places.\n    uint256 public rebaseLag;\n\n    // More than this much time must pass between rebase operations.\n    uint256 public minRebaseTimeIntervalSec;\n\n    // Block timestamp of last rebase operation\n    uint256 public lastRebaseTimestampSec;\n\n    // The rebase window begins this many seconds into the minRebaseTimeInterval period.\n    // For example if minRebaseTimeInterval is 24hrs, it represents the time of day in seconds.\n    uint256 public rebaseWindowOffsetSec;\n\n    // The length of the time window where a rebase operation is allowed to execute, in seconds.\n    uint256 public rebaseWindowLengthSec;\n\n    // The number of rebase cycles since inception\n    uint256 public epoch;\n\n    uint256 private constant DECIMALS = 18;\n\n    // Due to the expression in computeSupplyDelta(), MAX_RATE * MAX_SUPPLY must fit into an int256.\n    // Both are 18 decimals fixed point numbers.\n    uint256 private constant MAX_RATE = 10**6 * 10**DECIMALS;\n    // MAX_SUPPLY = MAX_INT256 / MAX_RATE\n    uint256 private constant MAX_SUPPLY = ~(uint256(1) << 255) / MAX_RATE;\n\n    // This module orchestrates the rebase execution and downstream notification.\n    address public orchestrator;\n\n\n\n    //Stimulus\n    // More than this much time must pass between rebase operations.\n    uint256 public minStimulusTimeIntervalSec;\n    uint256 public lastStimulusTimestampSec;\n\n\n    modifier onlyOrchestrator() {\n        require(msg.sender == orchestrator);\n        _;\n    }\n\n    function claimReward(address to ) external onlyOrchestrator {\n         rebaseC.claimReward(to);\n    }\n\n    function setStimulusTimingParameters(\n        uint256 minStimulusTimeIntervalSec_,\n        uint256 lastStimulusTimestampSec_)\n    external\n    onlyOwner\n    {\n        require(minStimulusTimeIntervalSec_ > 0);\n        require(lastStimulusTimestampSec_ < minStimulusTimeIntervalSec_);\n\n        minStimulusTimeIntervalSec = minStimulusTimeIntervalSec_;\n        lastStimulusTimestampSec = lastStimulusTimestampSec_;\n    }\n\n\n\n    function runStimulus()\n     external\n     onlyOrchestrator{\n        require(lastStimulusTimestampSec.add(minStimulusTimeIntervalSec) < now);\n         // Snap the rebase time to the start of this window.\n         lastStimulusTimestampSec = now.sub(\n                now.mod(minStimulusTimeIntervalSec));\n         rebaseC.runStimulus();\n    }\n\n\n    /**\n     * @notice Initiates a new rebase operation, provided the minimum time period has elapsed.\n     *\n     * @dev The supply adjustment equals (_totalSupply * DeviationFromTargetRate) / rebaseLag\n     *      Where DeviationFromTargetRate is (MarketOracleRate - targetRate) / targetRate\n     *      and targetRate is CpiOracleRate / baseCpi\n     */\n    function rebase() external onlyOrchestrator {\n        require(inRebaseWindow());\n\n        // This comparison also ensures there is no reentrancy.\n        require(lastRebaseTimestampSec.add(minRebaseTimeIntervalSec) < now);\n\n        // Snap the rebase time to the start of this window.\n        lastRebaseTimestampSec = now.sub(\n            now.mod(minRebaseTimeIntervalSec)).add(rebaseWindowOffsetSec);\n\n        epoch = epoch.add(1);\n\n        uint256 cpi;\n        bool cpiValid;\n        (cpi, cpiValid) = cpiOracle.getData();\n        require(cpiValid);\n\n        uint256 targetRate = cpi.mul(10 ** DECIMALS).div(baseCpi);\n\n        uint256 exchangeRate;\n        bool rateValid;\n        (exchangeRate, rateValid) = marketOracle.getData();\n        require(rateValid);\n\n        if (exchangeRate > MAX_RATE) {\n            exchangeRate = MAX_RATE;\n        }\n\n        int256 supplyDelta = computeSupplyDelta(exchangeRate, targetRate);\n\n        // Apply the Dampening factor.\n        supplyDelta = supplyDelta.div(rebaseLag.toInt256Safe());\n\n        if (supplyDelta > 0 && rebaseC.totalSupply().add(uint256(supplyDelta)) > MAX_SUPPLY) {\n            supplyDelta = (MAX_SUPPLY.sub(rebaseC.totalSupply())).toInt256Safe();\n        }\n\n        uint256 supplyAfterRebase = rebaseC.rebase(epoch, supplyDelta);\n        assert(supplyAfterRebase <= MAX_SUPPLY);\n        emit LogRebase(epoch, exchangeRate, cpi, supplyDelta, now);\n    }\n\n    /**\n     * @notice Sets the reference to the CPI oracle.\n     * @param cpiOracle_ The address of the cpi oracle contract.\n     */\n    function setCpiOracle(IOracle cpiOracle_)\n    external\n    onlyOwner\n    {\n        cpiOracle = cpiOracle_;\n    }\n\n    /**\n     * @notice Sets the reference to the market oracle.\n     * @param marketOracle_ The address of the market oracle contract.\n     */\n    function setMarketOracle(IOracle marketOracle_)\n    external\n    onlyOwner\n    {\n        marketOracle = marketOracle_;\n    }\n\n    /**\n     * @notice Sets the reference to the orchestrator.\n     * @param orchestrator_ The address of the orchestrator contract.\n     */\n    function setOrchestrator(address orchestrator_)\n    external\n    onlyOwner\n    {\n        orchestrator = orchestrator_;\n    }\n\n    /**\n     * @notice Sets the deviation threshold fraction. If the exchange rate given by the market\n     *         oracle is within this fractional distance from the targetRate, then no supply\n     *         modifications are made. DECIMALS fixed point number.\n     * @param deviationThreshold_ The new exchange rate threshold fraction.\n     */\n    function setDeviationThreshold(uint256 deviationThreshold_)\n    external\n    onlyOwner\n    {\n        deviationThreshold = deviationThreshold_;\n    }\n\n    /**\n     * @notice Sets the rebase lag parameter.\n               It is used to dampen the applied supply adjustment by 1 / rebaseLag\n               If the rebase lag R, equals 1, the smallest value for R, then the full supply\n               correction is applied on each rebase cycle.\n               If it is greater than 1, then a correction of 1/R of is applied on each rebase.\n     * @param rebaseLag_ The new rebase lag parameter.\n     */\n    function setRebaseLag(uint256 rebaseLag_)\n    external\n    onlyOwner\n    {\n        require(rebaseLag_ > 0);\n        rebaseLag = rebaseLag_;\n    }\n\n    /**\n     * @notice Sets the parameters which control the timing and frequency of\n     *         rebase operations.\n     *         a) the minimum time period that must elapse between rebase cycles.\n     *         b) the rebase window offset parameter.\n     *         c) the rebase window length parameter.\n     * @param minRebaseTimeIntervalSec_ More than this much time must pass between rebase\n     *        operations, in seconds.\n     * @param rebaseWindowOffsetSec_ The number of seconds from the beginning of\n              the rebase interval, where the rebase window begins.\n     * @param rebaseWindowLengthSec_ The length of the rebase window in seconds.\n     */\n    function setRebaseTimingParameters(\n        uint256 minRebaseTimeIntervalSec_,\n        uint256 rebaseWindowOffsetSec_,\n        uint256 rebaseWindowLengthSec_)\n    external\n    onlyOwner\n    {\n        require(minRebaseTimeIntervalSec_ > 0);\n        require(rebaseWindowOffsetSec_ < minRebaseTimeIntervalSec_);\n\n        minRebaseTimeIntervalSec = minRebaseTimeIntervalSec_;\n        rebaseWindowOffsetSec = rebaseWindowOffsetSec_;\n        rebaseWindowLengthSec = rebaseWindowLengthSec_;\n    }\n\n    /**\n     * @dev ZOS upgradable contract initialization method.\n     *      It is called at the time of contract creation to invoke parent class initializers and\n     *      initialize the contract's state variables.\n     */\n    function initialize(address owner_, Rebase rebaseC_, uint256 baseCpi_)\n    public\n    initializer\n    {\n        Ownable.initialize(owner_);\n\n        // deviationThreshold = 0.05e18 = 5e16\n        deviationThreshold = 5 * 10 ** (DECIMALS-2);\n\n        rebaseLag = 30;\n        minRebaseTimeIntervalSec = 1 days;\n        rebaseWindowOffsetSec = 72000;  // 8PM UTC\n        rebaseWindowLengthSec = 15 minutes;\n        lastRebaseTimestampSec = 0;\n        epoch = 0;\n\n        rebaseC = rebaseC_;\n        baseCpi = baseCpi_;\n    }\n\n    /**\n     * @return If the latest block timestamp is within the rebase time window it, returns true.\n     *         Otherwise, returns false.\n     */\n    function inRebaseWindow() public view returns (bool) {\n        return (\n        now.mod(minRebaseTimeIntervalSec) >= rebaseWindowOffsetSec &&\n        now.mod(minRebaseTimeIntervalSec) < (rebaseWindowOffsetSec.add(rebaseWindowLengthSec))\n        );\n    }\n\n    /**\n     * @return Computes the total supply adjustment in response to the exchange rate\n     *         and the targetRate.\n     */\n    function computeSupplyDelta(uint256 rate, uint256 targetRate)\n    private\n    view\n    returns (int256)\n    {\n        if (withinDeviationThreshold(rate, targetRate)) {\n            return 0;\n        }\n\n        // supplyDelta = totalSupply * (rate - targetRate) / targetRate\n        int256 targetRateSigned = targetRate.toInt256Safe();\n        return rebaseC.totalSupply().toInt256Safe()\n        .mul(rate.toInt256Safe().sub(targetRateSigned))\n        .div(targetRateSigned);\n    }\n\n    /**\n     * @param rate The current exchange rate, an 18 decimal fixed point number.\n     * @param targetRate The target exchange rate, an 18 decimal fixed point number.\n     * @return If the rate is within the deviation threshold from the target rate, returns true.\n     *         Otherwise, returns false.\n     */\n    function withinDeviationThreshold(uint256 rate, uint256 targetRate)\n    private\n    view\n    returns (bool)\n    {\n        uint256 absoluteDeviationThreshold = targetRate.mul(deviationThreshold)\n        .div(10 ** DECIMALS);\n\n        return (rate >= targetRate && rate.sub(targetRate) < absoluteDeviationThreshold)\n        || (rate < targetRate && targetRate.sub(rate) < absoluteDeviationThreshold);\n    }\n}\n",
  "sourcePath": "/home/luis/Documentos/sbx/Rebase/main/REBASE/contracts/RebasePolicy.sol",
  "compiler": {
    "name": "solc",
    "version": "0.4.24+commit.e67f0147.Emscripten.clang"
  },
  "schemaVersion": "2.0.1",
  "updatedAt": "2021-01-28T20:45:32.023Z"
}