{
  "fileName": "TokenGeyser.sol",
  "contractName": "TokenGeyser",
  "source": "pragma solidity 0.5.0;\n\nimport \"openzeppelin-solidity/contracts/math/SafeMath.sol\";\nimport \"openzeppelin-solidity/contracts/token/ERC20/IERC20.sol\";\nimport \"openzeppelin-solidity/contracts/ownership/Ownable.sol\";\n\nimport \"./IStaking.sol\";\nimport \"./TokenPool.sol\";\n\n/**\n * @title Token Geyser\n * @dev A smart-contract based mechanism to distribute tokens over time, inspired loosely by\n *      Compound and Uniswap.\n *\n *      Distribution tokens are added to a locked pool in the contract and become unlocked over time\n *      according to a once-configurable unlock schedule. Once unlocked, they are available to be\n *      claimed by users.\n *\n *      A user may deposit tokens to accrue ownership share over the unlocked pool. This owner share\n *      is a function of the number of tokens deposited as well as the length of time deposited.\n *      Specifically, a user's share of the currently-unlocked pool equals their \"deposit-seconds\"\n *      divided by the global \"deposit-seconds\". This aligns the new token distribution with long\n *      term supporters of the project, addressing one of the major drawbacks of simple airdrops.\n *\n *      More background and motivation available at:\n *      https://github.com/ampleforth/RFCs/blob/master/RFCs/rfc-1.md\n */\ncontract TokenGeyser is IStaking, Ownable {\n    using SafeMath for uint256;\n\n    event Staked(address indexed user, uint256 amount, uint256 total, bytes data);\n    event Unstaked(address indexed user, uint256 amount, uint256 total, bytes data);\n    event TokensClaimed(address indexed user, uint256 amount);\n    event TokensLocked(uint256 amount, uint256 durationSec, uint256 total);\n    // amount: Unlocked tokens, total: Total locked tokens\n    event TokensUnlocked(uint256 amount, uint256 total);\n\n    TokenPool private _stakingPool;\n    TokenPool private _unlockedPool;\n    TokenPool private _lockedPool;\n\n    //\n    // Time-bonus params\n    //\n    uint256 public constant BONUS_DECIMALS = 2;\n    uint256 public startBonus = 0;\n    uint256 public bonusPeriodSec = 0;\n\n    //\n    // Global accounting state\n    //\n    uint256 public totalLockedShares = 0;\n    uint256 public totalStakingShares = 0;\n    uint256 private _totalStakingShareSeconds = 0;\n    uint256 private _lastAccountingTimestampSec = now;\n    uint256 private _maxUnlockSchedules = 0;\n    uint256 private _initialSharesPerToken = 0;\n\n    //\n    // User accounting state\n    //\n    // Represents a single stake for a user. A user may have multiple.\n    struct Stake {\n        uint256 stakingShares;\n        uint256 timestampSec;\n    }\n\n    // Caches aggregated values from the User->Stake[] map to save computation.\n    // If lastAccountingTimestampSec is 0, there's no entry for that user.\n    struct UserTotals {\n        uint256 stakingShares;\n        uint256 stakingShareSeconds;\n        uint256 lastAccountingTimestampSec;\n    }\n\n    // Aggregated staking values per user\n    mapping(address => UserTotals) private _userTotals;\n\n    // The collection of stakes for each user. Ordered by timestamp, earliest to latest.\n    mapping(address => Stake[]) private _userStakes;\n\n    //\n    // Locked/Unlocked Accounting state\n    //\n    struct UnlockSchedule {\n        uint256 initialLockedShares;\n        uint256 unlockedShares;\n        uint256 lastUnlockTimestampSec;\n        uint256 endAtSec;\n        uint256 durationSec;\n    }\n\n    UnlockSchedule[] public unlockSchedules;\n\n    /**\n     * @param stakingToken The token users deposit as stake.\n     * @param distributionToken The token users receive as they unstake.\n     * @param maxUnlockSchedules Max number of unlock stages, to guard against hitting gas limit.\n     * @param startBonus_ Starting time bonus, BONUS_DECIMALS fixed point.\n     *                    e.g. 25% means user gets 25% of max distribution tokens.\n     * @param bonusPeriodSec_ Length of time for bonus to increase linearly to max.\n     * @param initialSharesPerToken Number of shares to mint per staking token on first stake.\n     */\n    constructor(IERC20 stakingToken, IERC20 distributionToken, uint256 maxUnlockSchedules,\n                uint256 startBonus_, uint256 bonusPeriodSec_, uint256 initialSharesPerToken) public {\n        // The start bonus must be some fraction of the max. (i.e. <= 100%)\n        require(startBonus_ <= 10**BONUS_DECIMALS, 'TokenGeyser: start bonus too high');\n        // If no period is desired, instead set startBonus = 100%\n        // and bonusPeriod to a small value like 1sec.\n        require(bonusPeriodSec_ != 0, 'TokenGeyser: bonus period is zero');\n        require(initialSharesPerToken > 0, 'TokenGeyser: initialSharesPerToken is zero');\n\n        _stakingPool = new TokenPool(stakingToken);\n        _unlockedPool = new TokenPool(distributionToken);\n        _lockedPool = new TokenPool(distributionToken);\n        startBonus = startBonus_;\n        bonusPeriodSec = bonusPeriodSec_;\n        _maxUnlockSchedules = maxUnlockSchedules;\n        _initialSharesPerToken = initialSharesPerToken;\n    }\n\n    /**\n     * @return The token users deposit as stake.\n     */\n    function getStakingToken() public view returns (IERC20) {\n        return _stakingPool.token();\n    }\n\n    /**\n     * @return The token users receive as they unstake.\n     */\n    function getDistributionToken() public view returns (IERC20) {\n        assert(_unlockedPool.token() == _lockedPool.token());\n        return _unlockedPool.token();\n    }\n\n    /**\n     * @dev Transfers amount of deposit tokens from the user.\n     * @param amount Number of deposit tokens to stake.\n     * @param data Not used.\n     */\n    function stake(uint256 amount, bytes calldata data) external {\n        _stakeFor(msg.sender, msg.sender, amount);\n    }\n\n    /**\n     * @dev Transfers amount of deposit tokens from the caller on behalf of user.\n     * @param user User address who gains credit for this stake operation.\n     * @param amount Number of deposit tokens to stake.\n     * @param data Not used.\n     */\n    function stakeFor(address user, uint256 amount, bytes calldata data) external onlyOwner {\n        _stakeFor(msg.sender, user, amount);\n    }\n\n    /**\n     * @dev Private implementation of staking methods.\n     * @param staker User address who deposits tokens to stake.\n     * @param beneficiary User address who gains credit for this stake operation.\n     * @param amount Number of deposit tokens to stake.\n     */\n    function _stakeFor(address staker, address beneficiary, uint256 amount) private {\n        require(amount > 0, 'TokenGeyser: stake amount is zero');\n        require(beneficiary != address(0), 'TokenGeyser: beneficiary is zero address');\n        require(totalStakingShares == 0 || totalStaked() > 0,\n                'TokenGeyser: Invalid state. Staking shares exist, but no staking tokens do');\n\n        uint256 mintedStakingShares = (totalStakingShares > 0)\n            ? totalStakingShares.mul(amount).div(totalStaked())\n            : amount.mul(_initialSharesPerToken);\n        require(mintedStakingShares > 0, 'TokenGeyser: Stake amount is too small');\n\n        updateAccounting();\n\n        // 1. User Accounting\n        UserTotals storage totals = _userTotals[beneficiary];\n        totals.stakingShares = totals.stakingShares.add(mintedStakingShares);\n        totals.lastAccountingTimestampSec = now;\n\n        Stake memory newStake = Stake(mintedStakingShares, now);\n        _userStakes[beneficiary].push(newStake);\n\n        // 2. Global Accounting\n        totalStakingShares = totalStakingShares.add(mintedStakingShares);\n        // Already set in updateAccounting()\n        // _lastAccountingTimestampSec = now;\n\n        // interactions\n        require(_stakingPool.token().transferFrom(staker, address(_stakingPool), amount),\n            'TokenGeyser: transfer into staking pool failed');\n\n        emit Staked(beneficiary, amount, totalStakedFor(beneficiary), \"\");\n    }\n\n    /**\n     * @dev Unstakes a certain amount of previously deposited tokens. User also receives their\n     * alotted number of distribution tokens.\n     * @param amount Number of deposit tokens to unstake / withdraw.\n     * @param data Not used.\n     */\n    function unstake(uint256 amount, bytes calldata data) external {\n        _unstake(amount);\n    }\n\n    /**\n     * @param amount Number of deposit tokens to unstake / withdraw.\n     * @return The total number of distribution tokens that would be rewarded.\n     */\n    function unstakeQuery(uint256 amount) public returns (uint256) {\n        return _unstake(amount);\n    }\n\n    /**\n     * @dev Unstakes a certain amount of previously deposited tokens. User also receives their\n     * alotted number of distribution tokens.\n     * @param amount Number of deposit tokens to unstake / withdraw.\n     * @return The total number of distribution tokens rewarded.\n     */\n    function _unstake(uint256 amount) private returns (uint256) {\n        updateAccounting();\n\n        // checks\n        require(amount > 0, 'TokenGeyser: unstake amount is zero');\n        require(totalStakedFor(msg.sender) >= amount,\n            'TokenGeyser: unstake amount is greater than total user stakes');\n        uint256 stakingSharesToBurn = totalStakingShares.mul(amount).div(totalStaked());\n        require(stakingSharesToBurn > 0, 'TokenGeyser: Unable to unstake amount this small');\n\n        // 1. User Accounting\n        UserTotals storage totals = _userTotals[msg.sender];\n        Stake[] storage accountStakes = _userStakes[msg.sender];\n\n        // Redeem from most recent stake and go backwards in time.\n        uint256 stakingShareSecondsToBurn = 0;\n        uint256 sharesLeftToBurn = stakingSharesToBurn;\n        uint256 rewardAmount = 0;\n        while (sharesLeftToBurn > 0) {\n            Stake storage lastStake = accountStakes[accountStakes.length - 1];\n            uint256 stakeTimeSec = now.sub(lastStake.timestampSec);\n            uint256 newStakingShareSecondsToBurn = 0;\n            if (lastStake.stakingShares <= sharesLeftToBurn) {\n                // fully redeem a past stake\n                newStakingShareSecondsToBurn = lastStake.stakingShares.mul(stakeTimeSec);\n                rewardAmount = computeNewReward(rewardAmount, newStakingShareSecondsToBurn, stakeTimeSec);\n                stakingShareSecondsToBurn = stakingShareSecondsToBurn.add(newStakingShareSecondsToBurn);\n                sharesLeftToBurn = sharesLeftToBurn.sub(lastStake.stakingShares);\n                accountStakes.length--;\n            } else {\n                // partially redeem a past stake\n                newStakingShareSecondsToBurn = sharesLeftToBurn.mul(stakeTimeSec);\n                rewardAmount = computeNewReward(rewardAmount, newStakingShareSecondsToBurn, stakeTimeSec);\n                stakingShareSecondsToBurn = stakingShareSecondsToBurn.add(newStakingShareSecondsToBurn);\n                lastStake.stakingShares = lastStake.stakingShares.sub(sharesLeftToBurn);\n                sharesLeftToBurn = 0;\n            }\n        }\n        totals.stakingShareSeconds = totals.stakingShareSeconds.sub(stakingShareSecondsToBurn);\n        totals.stakingShares = totals.stakingShares.sub(stakingSharesToBurn);\n        // Already set in updateAccounting\n        // totals.lastAccountingTimestampSec = now;\n\n        // 2. Global Accounting\n        _totalStakingShareSeconds = _totalStakingShareSeconds.sub(stakingShareSecondsToBurn);\n        totalStakingShares = totalStakingShares.sub(stakingSharesToBurn);\n        // Already set in updateAccounting\n        // _lastAccountingTimestampSec = now;\n\n        // interactions\n        require(_stakingPool.transfer(msg.sender, amount),\n            'TokenGeyser: transfer out of staking pool failed');\n        require(_unlockedPool.transfer(msg.sender, rewardAmount),\n            'TokenGeyser: transfer out of unlocked pool failed');\n\n        emit Unstaked(msg.sender, amount, totalStakedFor(msg.sender), \"\");\n        emit TokensClaimed(msg.sender, rewardAmount);\n\n        require(totalStakingShares == 0 || totalStaked() > 0,\n                \"TokenGeyser: Error unstaking. Staking shares exist, but no staking tokens do\");\n        return rewardAmount;\n    }\n\n    /**\n     * @dev Applies an additional time-bonus to a distribution amount. This is necessary to\n     *      encourage long-term deposits instead of constant unstake/restakes.\n     *      The bonus-multiplier is the result of a linear function that starts at startBonus and\n     *      ends at 100% over bonusPeriodSec, then stays at 100% thereafter.\n     * @param currentRewardTokens The current number of distribution tokens already alotted for this\n     *                            unstake op. Any bonuses are already applied.\n     * @param stakingShareSeconds The stakingShare-seconds that are being burned for new\n     *                            distribution tokens.\n     * @param stakeTimeSec Length of time for which the tokens were staked. Needed to calculate\n     *                     the time-bonus.\n     * @return Updated amount of distribution tokens to award, with any bonus included on the\n     *         newly added tokens.\n     */\n    function computeNewReward(uint256 currentRewardTokens,\n                                uint256 stakingShareSeconds,\n                                uint256 stakeTimeSec) private view returns (uint256) {\n\n        uint256 newRewardTokens =\n            totalUnlocked()\n            .mul(stakingShareSeconds)\n            .div(_totalStakingShareSeconds);\n\n        if (stakeTimeSec >= bonusPeriodSec) {\n            return currentRewardTokens.add(newRewardTokens);\n        }\n\n        uint256 oneHundredPct = 10**BONUS_DECIMALS;\n        uint256 bonusedReward =\n            startBonus\n            .add(oneHundredPct.sub(startBonus).mul(stakeTimeSec).div(bonusPeriodSec))\n            .mul(newRewardTokens)\n            .div(oneHundredPct);\n        return currentRewardTokens.add(bonusedReward);\n    }\n\n    /**\n     * @param addr The user to look up staking information for.\n     * @return The number of staking tokens deposited for addr.\n     */\n    function totalStakedFor(address addr) public view returns (uint256) {\n        return totalStakingShares > 0 ?\n            totalStaked().mul(_userTotals[addr].stakingShares).div(totalStakingShares) : 0;\n    }\n\n    /**\n     * @return The total number of deposit tokens staked globally, by all users.\n     */\n    function totalStaked() public view returns (uint256) {\n        return _stakingPool.balance();\n    }\n\n    /**\n     * @dev Note that this application has a staking token as well as a distribution token, which\n     * may be different. This function is required by EIP-900.\n     * @return The deposit token used for staking.\n     */\n    function token() external view returns (address) {\n        return address(getStakingToken());\n    }\n\n    /**\n     * @dev A globally callable function to update the accounting state of the system.\n     *      Global state and state for the caller are updated.\n     * @return [0] balance of the locked pool\n     * @return [1] balance of the unlocked pool\n     * @return [2] caller's staking share seconds\n     * @return [3] global staking share seconds\n     * @return [4] Rewards caller has accumulated, optimistically assumes max time-bonus.\n     * @return [5] block timestamp\n     */\n    function updateAccounting() public returns (\n        uint256, uint256, uint256, uint256, uint256, uint256) {\n\n        unlockTokens();\n\n        // Global accounting\n        uint256 newStakingShareSeconds =\n            now\n            .sub(_lastAccountingTimestampSec)\n            .mul(totalStakingShares);\n        _totalStakingShareSeconds = _totalStakingShareSeconds.add(newStakingShareSeconds);\n        _lastAccountingTimestampSec = now;\n\n        // User Accounting\n        UserTotals storage totals = _userTotals[msg.sender];\n        uint256 newUserStakingShareSeconds =\n            now\n            .sub(totals.lastAccountingTimestampSec)\n            .mul(totals.stakingShares);\n        totals.stakingShareSeconds =\n            totals.stakingShareSeconds\n            .add(newUserStakingShareSeconds);\n        totals.lastAccountingTimestampSec = now;\n\n        uint256 totalUserRewards = (_totalStakingShareSeconds > 0)\n            ? totalUnlocked().mul(totals.stakingShareSeconds).div(_totalStakingShareSeconds)\n            : 0;\n\n        return (\n            totalLocked(),\n            totalUnlocked(),\n            totals.stakingShareSeconds,\n            _totalStakingShareSeconds,\n            totalUserRewards,\n            now\n        );\n    }\n\n    /**\n     * @return Total number of locked distribution tokens.\n     */\n    function totalLocked() public view returns (uint256) {\n        return _lockedPool.balance();\n    }\n\n    /**\n     * @return Total number of unlocked distribution tokens.\n     */\n    function totalUnlocked() public view returns (uint256) {\n        return _unlockedPool.balance();\n    }\n\n    /**\n     * @return Number of unlock schedules.\n     */\n    function unlockScheduleCount() public view returns (uint256) {\n        return unlockSchedules.length;\n    }\n\n    /**\n     * @dev This funcion allows the contract owner to add more locked distribution tokens, along\n     *      with the associated \"unlock schedule\". These locked tokens immediately begin unlocking\n     *      linearly over the duraction of durationSec timeframe.\n     * @param amount Number of distribution tokens to lock. These are transferred from the caller.\n     * @param durationSec Length of time to linear unlock the tokens.\n     */\n    function lockTokens(uint256 amount, uint256 durationSec) external onlyOwner {\n        require(unlockSchedules.length < _maxUnlockSchedules,\n            'TokenGeyser: reached maximum unlock schedules');\n\n        // Update lockedTokens amount before using it in computations after.\n        updateAccounting();\n\n        uint256 lockedTokens = totalLocked();\n        uint256 mintedLockedShares = (lockedTokens > 0)\n            ? totalLockedShares.mul(amount).div(lockedTokens)\n            : amount.mul(_initialSharesPerToken);\n\n        UnlockSchedule memory schedule;\n        schedule.initialLockedShares = mintedLockedShares;\n        schedule.lastUnlockTimestampSec = now;\n        schedule.endAtSec = now.add(durationSec);\n        schedule.durationSec = durationSec;\n        unlockSchedules.push(schedule);\n\n        totalLockedShares = totalLockedShares.add(mintedLockedShares);\n\n        require(_lockedPool.token().transferFrom(msg.sender, address(_lockedPool), amount),\n            'TokenGeyser: transfer into locked pool failed');\n        emit TokensLocked(amount, durationSec, totalLocked());\n    }\n\n    /**\n     * @dev Moves distribution tokens from the locked pool to the unlocked pool, according to the\n     *      previously defined unlock schedules. Publicly callable.\n     * @return Number of newly unlocked distribution tokens.\n     */\n    function unlockTokens() public returns (uint256) {\n        uint256 unlockedTokens = 0;\n        uint256 lockedTokens = totalLocked();\n\n        if (totalLockedShares == 0) {\n            unlockedTokens = lockedTokens;\n        } else {\n            uint256 unlockedShares = 0;\n            for (uint256 s = 0; s < unlockSchedules.length; s++) {\n                unlockedShares = unlockedShares.add(unlockScheduleShares(s));\n            }\n            unlockedTokens = unlockedShares.mul(lockedTokens).div(totalLockedShares);\n            totalLockedShares = totalLockedShares.sub(unlockedShares);\n        }\n\n        if (unlockedTokens > 0) {\n            require(_lockedPool.transfer(address(_unlockedPool), unlockedTokens),\n                'TokenGeyser: transfer out of locked pool failed');\n            emit TokensUnlocked(unlockedTokens, totalLocked());\n        }\n\n        return unlockedTokens;\n    }\n\n    /**\n     * @dev Returns the number of unlockable shares from a given schedule. The returned value\n     *      depends on the time since the last unlock. This function updates schedule accounting,\n     *      but does not actually transfer any tokens.\n     * @param s Index of the unlock schedule.\n     * @return The number of unlocked shares.\n     */\n    function unlockScheduleShares(uint256 s) private returns (uint256) {\n        UnlockSchedule storage schedule = unlockSchedules[s];\n\n        if(schedule.unlockedShares >= schedule.initialLockedShares) {\n            return 0;\n        }\n\n        uint256 sharesToUnlock = 0;\n        // Special case to handle any leftover dust from integer division\n        if (now >= schedule.endAtSec) {\n            sharesToUnlock = (schedule.initialLockedShares.sub(schedule.unlockedShares));\n            schedule.lastUnlockTimestampSec = schedule.endAtSec;\n        } else {\n            sharesToUnlock = now.sub(schedule.lastUnlockTimestampSec)\n                .mul(schedule.initialLockedShares)\n                .div(schedule.durationSec);\n            schedule.lastUnlockTimestampSec = now;\n        }\n\n        schedule.unlockedShares = schedule.unlockedShares.add(sharesToUnlock);\n        return sharesToUnlock;\n    }\n\n    /**\n     * @dev Lets the owner rescue funds air-dropped to the staking pool.\n     * @param tokenToRescue Address of the token to be rescued.\n     * @param to Address to which the rescued funds are to be sent.\n     * @param amount Amount of tokens to be rescued.\n     * @return Transfer success.\n     */\n    function rescueFundsFromStakingPool(address tokenToRescue, address to, uint256 amount)\n        public onlyOwner returns (bool) {\n\n        return _stakingPool.rescueFunds(tokenToRescue, to, amount);\n    }\n}\n",
  "sourcePath": "contracts/TokenGeyser.sol",
  "abi": [
    {
      "constant": false,
      "inputs": [
        {
          "name": "amount",
          "type": "uint256"
        },
        {
          "name": "data",
          "type": "bytes"
        }
      ],
      "name": "stake",
      "outputs": [],
      "payable": false,
      "stateMutability": "nonpayable",
      "type": "function"
    },
    {
      "constant": false,
      "inputs": [
        {
          "name": "user",
          "type": "address"
        },
        {
          "name": "amount",
          "type": "uint256"
        },
        {
          "name": "data",
          "type": "bytes"
        }
      ],
      "name": "stakeFor",
      "outputs": [],
      "payable": false,
      "stateMutability": "nonpayable",
      "type": "function"
    },
    {
      "constant": true,
      "inputs": [],
      "name": "BONUS_DECIMALS",
      "outputs": [
        {
          "name": "",
          "type": "uint256"
        }
      ],
      "payable": false,
      "stateMutability": "view",
      "type": "function"
    },
    {
      "constant": true,
      "inputs": [],
      "name": "getDistributionToken",
      "outputs": [
        {
          "name": "",
          "type": "address"
        }
      ],
      "payable": false,
      "stateMutability": "view",
      "type": "function"
    },
    {
      "constant": true,
      "inputs": [],
      "name": "startBonus",
      "outputs": [
        {
          "name": "",
          "type": "uint256"
        }
      ],
      "payable": false,
      "stateMutability": "view",
      "type": "function"
    },
    {
      "constant": false,
      "inputs": [],
      "name": "updateAccounting",
      "outputs": [
        {
          "name": "",
          "type": "uint256"
        },
        {
          "name": "",
          "type": "uint256"
        },
        {
          "name": "",
          "type": "uint256"
        },
        {
          "name": "",
          "type": "uint256"
        },
        {
          "name": "",
          "type": "uint256"
        },
        {
          "name": "",
          "type": "uint256"
        }
      ],
      "payable": false,
      "stateMutability": "nonpayable",
      "type": "function"
    },
    {
      "constant": true,
      "inputs": [
        {
          "name": "addr",
          "type": "address"
        }
      ],
      "name": "totalStakedFor",
      "outputs": [
        {
          "name": "",
          "type": "uint256"
        }
      ],
      "payable": false,
      "stateMutability": "view",
      "type": "function"
    },
    {
      "constant": true,
      "inputs": [],
      "name": "totalLocked",
      "outputs": [
        {
          "name": "",
          "type": "uint256"
        }
      ],
      "payable": false,
      "stateMutability": "view",
      "type": "function"
    },
    {
      "constant": false,
      "inputs": [
        {
          "name": "tokenToRescue",
          "type": "address"
        },
        {
          "name": "to",
          "type": "address"
        },
        {
          "name": "amount",
          "type": "uint256"
        }
      ],
      "name": "rescueFundsFromStakingPool",
      "outputs": [
        {
          "name": "",
          "type": "bool"
        }
      ],
      "payable": false,
      "stateMutability": "nonpayable",
      "type": "function"
    },
    {
      "constant": true,
      "inputs": [
        {
          "name": "",
          "type": "uint256"
        }
      ],
      "name": "unlockSchedules",
      "outputs": [
        {
          "name": "initialLockedShares",
          "type": "uint256"
        },
        {
          "name": "unlockedShares",
          "type": "uint256"
        },
        {
          "name": "lastUnlockTimestampSec",
          "type": "uint256"
        },
        {
          "name": "endAtSec",
          "type": "uint256"
        },
        {
          "name": "durationSec",
          "type": "uint256"
        }
      ],
      "payable": false,
      "stateMutability": "view",
      "type": "function"
    },
    {
      "constant": true,
      "inputs": [],
      "name": "supportsHistory",
      "outputs": [
        {
          "name": "",
          "type": "bool"
        }
      ],
      "payable": false,
      "stateMutability": "pure",
      "type": "function"
    },
    {
      "constant": true,
      "inputs": [],
      "name": "totalStakingShares",
      "outputs": [
        {
          "name": "",
          "type": "uint256"
        }
      ],
      "payable": false,
      "stateMutability": "view",
      "type": "function"
    },
    {
      "constant": false,
      "inputs": [],
      "name": "renounceOwnership",
      "outputs": [],
      "payable": false,
      "stateMutability": "nonpayable",
      "type": "function"
    },
    {
      "constant": true,
      "inputs": [],
      "name": "bonusPeriodSec",
      "outputs": [
        {
          "name": "",
          "type": "uint256"
        }
      ],
      "payable": false,
      "stateMutability": "view",
      "type": "function"
    },
    {
      "constant": true,
      "inputs": [],
      "name": "totalStaked",
      "outputs": [
        {
          "name": "",
          "type": "uint256"
        }
      ],
      "payable": false,
      "stateMutability": "view",
      "type": "function"
    },
    {
      "constant": true,
      "inputs": [],
      "name": "totalLockedShares",
      "outputs": [
        {
          "name": "",
          "type": "uint256"
        }
      ],
      "payable": false,
      "stateMutability": "view",
      "type": "function"
    },
    {
      "constant": false,
      "inputs": [
        {
          "name": "amount",
          "type": "uint256"
        }
      ],
      "name": "unstakeQuery",
      "outputs": [
        {
          "name": "",
          "type": "uint256"
        }
      ],
      "payable": false,
      "stateMutability": "nonpayable",
      "type": "function"
    },
    {
      "constant": false,
      "inputs": [
        {
          "name": "amount",
          "type": "uint256"
        },
        {
          "name": "durationSec",
          "type": "uint256"
        }
      ],
      "name": "lockTokens",
      "outputs": [],
      "payable": false,
      "stateMutability": "nonpayable",
      "type": "function"
    },
    {
      "constant": true,
      "inputs": [],
      "name": "owner",
      "outputs": [
        {
          "name": "",
          "type": "address"
        }
      ],
      "payable": false,
      "stateMutability": "view",
      "type": "function"
    },
    {
      "constant": true,
      "inputs": [],
      "name": "isOwner",
      "outputs": [
        {
          "name": "",
          "type": "bool"
        }
      ],
      "payable": false,
      "stateMutability": "view",
      "type": "function"
    },
    {
      "constant": true,
      "inputs": [],
      "name": "getStakingToken",
      "outputs": [
        {
          "name": "",
          "type": "address"
        }
      ],
      "payable": false,
      "stateMutability": "view",
      "type": "function"
    },
    {
      "constant": true,
      "inputs": [],
      "name": "totalUnlocked",
      "outputs": [
        {
          "name": "",
          "type": "uint256"
        }
      ],
      "payable": false,
      "stateMutability": "view",
      "type": "function"
    },
    {
      "constant": true,
      "inputs": [],
      "name": "unlockScheduleCount",
      "outputs": [
        {
          "name": "",
          "type": "uint256"
        }
      ],
      "payable": false,
      "stateMutability": "view",
      "type": "function"
    },
    {
      "constant": false,
      "inputs": [
        {
          "name": "amount",
          "type": "uint256"
        },
        {
          "name": "data",
          "type": "bytes"
        }
      ],
      "name": "unstake",
      "outputs": [],
      "payable": false,
      "stateMutability": "nonpayable",
      "type": "function"
    },
    {
      "constant": false,
      "inputs": [
        {
          "name": "newOwner",
          "type": "address"
        }
      ],
      "name": "transferOwnership",
      "outputs": [],
      "payable": false,
      "stateMutability": "nonpayable",
      "type": "function"
    },
    {
      "constant": false,
      "inputs": [],
      "name": "unlockTokens",
      "outputs": [
        {
          "name": "",
          "type": "uint256"
        }
      ],
      "payable": false,
      "stateMutability": "nonpayable",
      "type": "function"
    },
    {
      "constant": true,
      "inputs": [],
      "name": "token",
      "outputs": [
        {
          "name": "",
          "type": "address"
        }
      ],
      "payable": false,
      "stateMutability": "view",
      "type": "function"
    },
    {
      "inputs": [
        {
          "name": "stakingToken",
          "type": "address"
        },
        {
          "name": "distributionToken",
          "type": "address"
        },
        {
          "name": "maxUnlockSchedules",
          "type": "uint256"
        },
        {
          "name": "startBonus_",
          "type": "uint256"
        },
        {
          "name": "bonusPeriodSec_",
          "type": "uint256"
        },
        {
          "name": "initialSharesPerToken",
          "type": "uint256"
        }
      ],
      "payable": false,
      "stateMutability": "nonpayable",
      "type": "constructor"
    },
    {
      "anonymous": false,
      "inputs": [
        {
          "indexed": true,
          "name": "user",
          "type": "address"
        },
        {
          "indexed": false,
          "name": "amount",
          "type": "uint256"
        },
        {
          "indexed": false,
          "name": "total",
          "type": "uint256"
        },
        {
          "indexed": false,
          "name": "data",
          "type": "bytes"
        }
      ],
      "name": "Staked",
      "type": "event"
    },
    {
      "anonymous": false,
      "inputs": [
        {
          "indexed": true,
          "name": "user",
          "type": "address"
        },
        {
          "indexed": false,
          "name": "amount",
          "type": "uint256"
        },
        {
          "indexed": false,
          "name": "total",
          "type": "uint256"
        },
        {
          "indexed": false,
          "name": "data",
          "type": "bytes"
        }
      ],
      "name": "Unstaked",
      "type": "event"
    },
    {
      "anonymous": false,
      "inputs": [
        {
          "indexed": true,
          "name": "user",
          "type": "address"
        },
        {
          "indexed": false,
          "name": "amount",
          "type": "uint256"
        }
      ],
      "name": "TokensClaimed",
      "type": "event"
    },
    {
      "anonymous": false,
      "inputs": [
        {
          "indexed": false,
          "name": "amount",
          "type": "uint256"
        },
        {
          "indexed": false,
          "name": "durationSec",
          "type": "uint256"
        },
        {
          "indexed": false,
          "name": "total",
          "type": "uint256"
        }
      ],
      "name": "TokensLocked",
      "type": "event"
    },
    {
      "anonymous": false,
      "inputs": [
        {
          "indexed": false,
          "name": "amount",
          "type": "uint256"
        },
        {
          "indexed": false,
          "name": "total",
          "type": "uint256"
        }
      ],
      "name": "TokensUnlocked",
      "type": "event"
    },
    {
      "anonymous": false,
      "inputs": [
        {
          "indexed": true,
          "name": "previousOwner",
          "type": "address"
        },
        {
          "indexed": true,
          "name": "newOwner",
          "type": "address"
        }
      ],
      "name": "OwnershipTransferred",
      "type": "event"
    }
  ],
  "bytecode": "0x608060405260006004556000600555600060065560006007556000600855426009556000600a556000600b553480156200003857600080fd5b5060405160c0806200497f833981018060405260c08110156200005a57600080fd5b81019080805190602001909291908051906020019092919080519060200190929190805190602001909291908051906020019092919080519060200190929190505050620000b662000558640100000000026401000000009004565b6000806101000a81548173ffffffffffffffffffffffffffffffffffffffff021916908373ffffffffffffffffffffffffffffffffffffffff1602179055506000809054906101000a900473ffffffffffffffffffffffffffffffffffffffff1673ffffffffffffffffffffffffffffffffffffffff16600073ffffffffffffffffffffffffffffffffffffffff167f8be0079c531659141344cd1fd0a4f28419497f9722a3daafe3b4186f6b6457e060405160405180910390a36002600a0a831115151562000214576040517f08c379a00000000000000000000000000000000000000000000000000000000081526004018080602001828103825260218152602001807f546f6b656e4765797365723a20737461727420626f6e757320746f6f2068696781526020017f680000000000000000000000000000000000000000000000000000000000000081525060400191505060405180910390fd5b60008214151515620002b4576040517f08c379a00000000000000000000000000000000000000000000000000000000081526004018080602001828103825260218152602001807f546f6b656e4765797365723a20626f6e757320706572696f64206973207a657281526020017f6f0000000000000000000000000000000000000000000000000000000000000081525060400191505060405180910390fd5b60008111151562000353576040517f08c379a000000000000000000000000000000000000000000000000000000000815260040180806020018281038252602a8152602001807f546f6b656e4765797365723a20696e697469616c536861726573506572546f6b81526020017f656e206973207a65726f0000000000000000000000000000000000000000000081525060400191505060405180910390fd5b856200035e62000560565b808273ffffffffffffffffffffffffffffffffffffffff1673ffffffffffffffffffffffffffffffffffffffff168152602001915050604051809103906000f080158015620003b1573d6000803e3d6000fd5b50600160006101000a81548173ffffffffffffffffffffffffffffffffffffffff021916908373ffffffffffffffffffffffffffffffffffffffff16021790555084620003fd62000560565b808273ffffffffffffffffffffffffffffffffffffffff1673ffffffffffffffffffffffffffffffffffffffff168152602001915050604051809103906000f08015801562000450573d6000803e3d6000fd5b50600260006101000a81548173ffffffffffffffffffffffffffffffffffffffff021916908373ffffffffffffffffffffffffffffffffffffffff160217905550846200049c62000560565b808273ffffffffffffffffffffffffffffffffffffffff1673ffffffffffffffffffffffffffffffffffffffff168152602001915050604051809103906000f080158015620004ef573d6000803e3d6000fd5b50600360006101000a81548173ffffffffffffffffffffffffffffffffffffffff021916908373ffffffffffffffffffffffffffffffffffffffff160217905550826004819055508160058190555083600a8190555080600b8190555050505050505062000571565b600033905090565b604051610d7b8062003c0483390190565b61368380620005816000396000f3fe60806040526004361061015f576000357c0100000000000000000000000000000000000000000000000000000000900463ffffffff1680630e89439b146101645780630ef96356146101f45780631dc27fde146102a457806322c12b84146102cf57806338b45fde14610326578063494347e7146103515780634b341aed1461039f57806356891412146104045780635a72bbef1461042f5780635c94bcb2146104c25780637033e4a61461052d57806370c6a17e1461055c578063715018a6146105875780637c6aa6f41461059e578063817b1cd2146105c957806381c39bec146105f457806386805dd11461061f57806389158d8e1461066e5780638da5cb5b146106b35780638f32d59b1461070a5780639f9106d114610739578063a779d08014610790578063c7ae2007146107bb578063c8fd6ed0146107e6578063f2fde38b14610876578063f968f493146108c7578063fc0c546a146108f2575b600080fd5b34801561017057600080fd5b506101f26004803603604081101561018757600080fd5b8101908080359060200190929190803590602001906401000000008111156101ae57600080fd5b8201836020820111156101c057600080fd5b803590602001918460018302840111640100000000831117156101e257600080fd5b9091929391929390505050610949565b005b34801561020057600080fd5b506102a26004803603606081101561021757600080fd5b81019080803573ffffffffffffffffffffffffffffffffffffffff169060200190929190803590602001909291908035906020019064010000000081111561025e57600080fd5b82018360208201111561027057600080fd5b8035906020019184600183028401116401000000008311171561029257600080fd5b9091929391929390505050610959565b005b3480156102b057600080fd5b506102b96109e6565b6040518082815260200191505060405180910390f35b3480156102db57600080fd5b506102e46109eb565b604051808273ffffffffffffffffffffffffffffffffffffffff1673ffffffffffffffffffffffffffffffffffffffff16815260200191505060405180910390f35b34801561033257600080fd5b5061033b610c64565b6040518082815260200191505060405180910390f35b34801561035d57600080fd5b50610366610c6a565b60405180878152602001868152602001858152602001848152602001838152602001828152602001965050505050505060405180910390f35b3480156103ab57600080fd5b506103ee600480360360208110156103c257600080fd5b81019080803573ffffffffffffffffffffffffffffffffffffffff169060200190929190505050610de0565b6040518082815260200191505060405180910390f35b34801561041057600080fd5b50610419610e6a565b6040518082815260200191505060405180910390f35b34801561043b57600080fd5b506104a86004803603606081101561045257600080fd5b81019080803573ffffffffffffffffffffffffffffffffffffffff169060200190929190803573ffffffffffffffffffffffffffffffffffffffff16906020019092919080359060200190929190505050610f30565b604051808215151515815260200191505060405180910390f35b3480156104ce57600080fd5b506104fb600480360360208110156104e557600080fd5b81019080803590602001909291905050506110eb565b604051808681526020018581526020018481526020018381526020018281526020019550505050505060405180910390f35b34801561053957600080fd5b50610542611130565b604051808215151515815260200191505060405180910390f35b34801561056857600080fd5b50610571611138565b6040518082815260200191505060405180910390f35b34801561059357600080fd5b5061059c61113e565b005b3480156105aa57600080fd5b506105b3611279565b6040518082815260200191505060405180910390f35b3480156105d557600080fd5b506105de61127f565b6040518082815260200191505060405180910390f35b34801561060057600080fd5b50610609611345565b6040518082815260200191505060405180910390f35b34801561062b57600080fd5b506106586004803603602081101561064257600080fd5b810190808035906020019092919050505061134b565b6040518082815260200191505060405180910390f35b34801561067a57600080fd5b506106b16004803603604081101561069157600080fd5b81019080803590602001909291908035906020019092919050505061135d565b005b3480156106bf57600080fd5b506106c8611885565b604051808273ffffffffffffffffffffffffffffffffffffffff1673ffffffffffffffffffffffffffffffffffffffff16815260200191505060405180910390f35b34801561071657600080fd5b5061071f6118ae565b604051808215151515815260200191505060405180910390f35b34801561074557600080fd5b5061074e61190c565b604051808273ffffffffffffffffffffffffffffffffffffffff1673ffffffffffffffffffffffffffffffffffffffff16815260200191505060405180910390f35b34801561079c57600080fd5b506107a56119d2565b6040518082815260200191505060405180910390f35b3480156107c757600080fd5b506107d0611a98565b6040518082815260200191505060405180910390f35b3480156107f257600080fd5b506108746004803603604081101561080957600080fd5b81019080803590602001909291908035906020019064010000000081111561083057600080fd5b82018360208201111561084257600080fd5b8035906020019184600183028401116401000000008311171561086457600080fd5b9091929391929390505050611aa5565b005b34801561088257600080fd5b506108c56004803603602081101561089957600080fd5b81019080803573ffffffffffffffffffffffffffffffffffffffff169060200190929190505050611ab4565b005b3480156108d357600080fd5b506108dc611b3c565b6040518082815260200191505060405180910390f35b3480156108fe57600080fd5b50610907611dff565b604051808273ffffffffffffffffffffffffffffffffffffffff1673ffffffffffffffffffffffffffffffffffffffff16815260200191505060405180910390f35b610954333385611e0e565b505050565b6109616118ae565b15156109d5576040517f08c379a00000000000000000000000000000000000000000000000000000000081526004018080602001828103825260208152602001807f4f776e61626c653a2063616c6c6572206973206e6f7420746865206f776e657281525060200191505060405180910390fd5b6109e0338585611e0e565b50505050565b600281565b6000600360009054906101000a900473ffffffffffffffffffffffffffffffffffffffff1673ffffffffffffffffffffffffffffffffffffffff1663fc0c546a6040518163ffffffff167c010000000000000000000000000000000000000000000000000000000002815260040160206040518083038186803b158015610a7157600080fd5b505afa158015610a85573d6000803e3d6000fd5b505050506040513d6020811015610a9b57600080fd5b810190808051906020019092919050505073ffffffffffffffffffffffffffffffffffffffff16600260009054906101000a900473ffffffffffffffffffffffffffffffffffffffff1673ffffffffffffffffffffffffffffffffffffffff1663fc0c546a6040518163ffffffff167c010000000000000000000000000000000000000000000000000000000002815260040160206040518083038186803b158015610b4657600080fd5b505afa158015610b5a573d6000803e3d6000fd5b505050506040513d6020811015610b7057600080fd5b810190808051906020019092919050505073ffffffffffffffffffffffffffffffffffffffff16141515610ba057fe5b600260009054906101000a900473ffffffffffffffffffffffffffffffffffffffff1673ffffffffffffffffffffffffffffffffffffffff1663fc0c546a6040518163ffffffff167c010000000000000000000000000000000000000000000000000000000002815260040160206040518083038186803b158015610c2457600080fd5b505afa158015610c38573d6000803e3d6000fd5b505050506040513d6020811015610c4e57600080fd5b8101908080519060200190929190505050905090565b60045481565b600080600080600080610c7b611b3c565b506000610ca7600754610c996009544261257e90919063ffffffff16565b6125c890919063ffffffff16565b9050610cbe8160085461269590919063ffffffff16565b600881905550426009819055506000600c60003373ffffffffffffffffffffffffffffffffffffffff1673ffffffffffffffffffffffffffffffffffffffff16815260200190815260200160002090506000610d3d8260000154610d2f84600201544261257e90919063ffffffff16565b6125c890919063ffffffff16565b9050610d5681836001015461269590919063ffffffff16565b826001018190555042826002018190555060008060085411610d79576000610dac565b610dab600854610d9d8560010154610d8f6119d2565b6125c890919063ffffffff16565b61271f90919063ffffffff16565b5b9050610db6610e6a565b610dbe6119d2565b8460010154600854844299509950995099509950995050505050909192939495565b60008060075411610df2576000610e63565b610e62600754610e54600c60008673ffffffffffffffffffffffffffffffffffffffff1673ffffffffffffffffffffffffffffffffffffffff16815260200190815260200160002060000154610e4661127f565b6125c890919063ffffffff16565b61271f90919063ffffffff16565b5b9050919050565b6000600360009054906101000a900473ffffffffffffffffffffffffffffffffffffffff1673ffffffffffffffffffffffffffffffffffffffff1663b69ef8a86040518163ffffffff167c010000000000000000000000000000000000000000000000000000000002815260040160206040518083038186803b158015610ef057600080fd5b505afa158015610f04573d6000803e3d6000fd5b505050506040513d6020811015610f1a57600080fd5b8101908080519060200190929190505050905090565b6000610f3a6118ae565b1515610fae576040517f08c379a00000000000000000000000000000000000000000000000000000000081526004018080602001828103825260208152602001807f4f776e61626c653a2063616c6c6572206973206e6f7420746865206f776e657281525060200191505060405180910390fd5b600160009054906101000a900473ffffffffffffffffffffffffffffffffffffffff1673ffffffffffffffffffffffffffffffffffffffff16636ccae0548585856040518463ffffffff167c0100000000000000000000000000000000000000000000000000000000028152600401808473ffffffffffffffffffffffffffffffffffffffff1673ffffffffffffffffffffffffffffffffffffffff1681526020018373ffffffffffffffffffffffffffffffffffffffff1673ffffffffffffffffffffffffffffffffffffffff1681526020018281526020019350505050602060405180830381600087803b1580156110a757600080fd5b505af11580156110bb573d6000803e3d6000fd5b505050506040513d60208110156110d157600080fd5b810190808051906020019092919050505090509392505050565b600e818154811015156110fa57fe5b90600052602060002090600502016000915090508060000154908060010154908060020154908060030154908060040154905085565b600080905090565b60075481565b6111466118ae565b15156111ba576040517f08c379a00000000000000000000000000000000000000000000000000000000081526004018080602001828103825260208152602001807f4f776e61626c653a2063616c6c6572206973206e6f7420746865206f776e657281525060200191505060405180910390fd5b600073ffffffffffffffffffffffffffffffffffffffff166000809054906101000a900473ffffffffffffffffffffffffffffffffffffffff1673ffffffffffffffffffffffffffffffffffffffff167f8be0079c531659141344cd1fd0a4f28419497f9722a3daafe3b4186f6b6457e060405160405180910390a360008060006101000a81548173ffffffffffffffffffffffffffffffffffffffff021916908373ffffffffffffffffffffffffffffffffffffffff160217905550565b60055481565b6000600160009054906101000a900473ffffffffffffffffffffffffffffffffffffffff1673ffffffffffffffffffffffffffffffffffffffff1663b69ef8a86040518163ffffffff167c010000000000000000000000000000000000000000000000000000000002815260040160206040518083038186803b15801561130557600080fd5b505afa158015611319573d6000803e3d6000fd5b505050506040513d602081101561132f57600080fd5b8101908080519060200190929190505050905090565b60065481565b600061135682612769565b9050919050565b6113656118ae565b15156113d9576040517f08c379a00000000000000000000000000000000000000000000000000000000081526004018080602001828103825260208152602001807f4f776e61626c653a2063616c6c6572206973206e6f7420746865206f776e657281525060200191505060405180910390fd5b600a54600e8054905010151561147d576040517f08c379a000000000000000000000000000000000000000000000000000000000815260040180806020018281038252602d8152602001807f546f6b656e4765797365723a2072656163686564206d6178696d756d20756e6c81526020017f6f636b207363686564756c65730000000000000000000000000000000000000081525060400191505060405180910390fd5b611485610c6a565b5050505050506000611495610e6a565b905060008082116114ba576114b5600b54856125c890919063ffffffff16565b6114e2565b6114e1826114d3866006546125c890919063ffffffff16565b61271f90919063ffffffff16565b5b90506114ec6135ac565b8181600001818152505042816040018181525050611513844261269590919063ffffffff16565b81606001818152505083816080018181525050600e8190806001815401808255809150509060018203906000526020600020906005020160009091929091909150600082015181600001556020820151816001015560408201518160020155606082015181600301556080820151816004015550505061159e8260065461269590919063ffffffff16565b600681905550600360009054906101000a900473ffffffffffffffffffffffffffffffffffffffff1673ffffffffffffffffffffffffffffffffffffffff1663fc0c546a6040518163ffffffff167c010000000000000000000000000000000000000000000000000000000002815260040160206040518083038186803b15801561162857600080fd5b505afa15801561163c573d6000803e3d6000fd5b505050506040513d602081101561165257600080fd5b810190808051906020019092919050505073ffffffffffffffffffffffffffffffffffffffff166323b872dd33600360009054906101000a900473ffffffffffffffffffffffffffffffffffffffff16886040518463ffffffff167c0100000000000000000000000000000000000000000000000000000000028152600401808473ffffffffffffffffffffffffffffffffffffffff1673ffffffffffffffffffffffffffffffffffffffff1681526020018373ffffffffffffffffffffffffffffffffffffffff1673ffffffffffffffffffffffffffffffffffffffff1681526020018281526020019350505050602060405180830381600087803b15801561175b57600080fd5b505af115801561176f573d6000803e3d6000fd5b505050506040513d602081101561178557600080fd5b81019080805190602001909291905050501515611830576040517f08c379a000000000000000000000000000000000000000000000000000000000815260040180806020018281038252602d8152602001807f546f6b656e4765797365723a207472616e7366657220696e746f206c6f636b6581526020017f6420706f6f6c206661696c65640000000000000000000000000000000000000081525060400191505060405180910390fd5b7ff346961af4c52f314df1b45964746280fe409abb959d4a2458d58f79408b1fe8858561185b610e6a565b60405180848152602001838152602001828152602001935050505060405180910390a15050505050565b60008060009054906101000a900473ffffffffffffffffffffffffffffffffffffffff16905090565b60008060009054906101000a900473ffffffffffffffffffffffffffffffffffffffff1673ffffffffffffffffffffffffffffffffffffffff166118f061309f565b73ffffffffffffffffffffffffffffffffffffffff1614905090565b6000600160009054906101000a900473ffffffffffffffffffffffffffffffffffffffff1673ffffffffffffffffffffffffffffffffffffffff1663fc0c546a6040518163ffffffff167c010000000000000000000000000000000000000000000000000000000002815260040160206040518083038186803b15801561199257600080fd5b505afa1580156119a6573d6000803e3d6000fd5b505050506040513d60208110156119bc57600080fd5b8101908080519060200190929190505050905090565b6000600260009054906101000a900473ffffffffffffffffffffffffffffffffffffffff1673ffffffffffffffffffffffffffffffffffffffff1663b69ef8a86040518163ffffffff167c010000000000000000000000000000000000000000000000000000000002815260040160206040518083038186803b158015611a5857600080fd5b505afa158015611a6c573d6000803e3d6000fd5b505050506040513d6020811015611a8257600080fd5b8101908080519060200190929190505050905090565b6000600e80549050905090565b611aae83612769565b50505050565b611abc6118ae565b1515611b30576040517f08c379a00000000000000000000000000000000000000000000000000000000081526004018080602001828103825260208152602001807f4f776e61626c653a2063616c6c6572206973206e6f7420746865206f776e657281525060200191505060405180910390fd5b611b39816130a7565b50565b600080600090506000611b4d610e6a565b905060006006541415611b6257809150611beb565b600080905060008090505b600e80549050811015611ba457611b95611b8682613230565b8361269590919063ffffffff16565b91508080600101915050611b6d565b50611bcc600654611bbe84846125c890919063ffffffff16565b61271f90919063ffffffff16565b9250611be38160065461257e90919063ffffffff16565b600681905550505b6000821115611df757600360009054906101000a900473ffffffffffffffffffffffffffffffffffffffff1673ffffffffffffffffffffffffffffffffffffffff1663a9059cbb600260009054906101000a900473ffffffffffffffffffffffffffffffffffffffff16846040518363ffffffff167c0100000000000000000000000000000000000000000000000000000000028152600401808373ffffffffffffffffffffffffffffffffffffffff1673ffffffffffffffffffffffffffffffffffffffff16815260200182815260200192505050602060405180830381600087803b158015611cdb57600080fd5b505af1158015611cef573d6000803e3d6000fd5b505050506040513d6020811015611d0557600080fd5b81019080805190602001909291905050501515611db0576040517f08c379a000000000000000000000000000000000000000000000000000000000815260040180806020018281038252602f8152602001807f546f6b656e4765797365723a207472616e73666572206f7574206f66206c6f6381526020017f6b656420706f6f6c206661696c6564000000000000000000000000000000000081525060400191505060405180910390fd5b7f2e444eb379b177e88ce0649c6110a3b01099f03e297127919dd5e3b63a761a9c82611dda610e6a565b604051808381526020018281526020019250505060405180910390a15b819250505090565b6000611e0961190c565b905090565b600081111515611eac576040517f08c379a00000000000000000000000000000000000000000000000000000000081526004018080602001828103825260218152602001807f546f6b656e4765797365723a207374616b6520616d6f756e74206973207a657281526020017f6f0000000000000000000000000000000000000000000000000000000000000081525060400191505060405180910390fd5b600073ffffffffffffffffffffffffffffffffffffffff168273ffffffffffffffffffffffffffffffffffffffff1614151515611f77576040517f08c379a00000000000000000000000000000000000000000000000000000000081526004018080602001828103825260288152602001807f546f6b656e4765797365723a2062656e6566696369617279206973207a65726f81526020017f206164647265737300000000000000000000000000000000000000000000000081525060400191505060405180910390fd5b60006007541480611f8f57506000611f8d61127f565b115b151561204f576040517f08c379a000000000000000000000000000000000000000000000000000000000815260040180806020018281038252604a8152602001807f546f6b656e4765797365723a20496e76616c69642073746174652e205374616b81526020017f696e67207368617265732065786973742c20627574206e6f207374616b696e6781526020017f20746f6b656e7320646f0000000000000000000000000000000000000000000081525060600191505060405180910390fd5b600080600754116120745761206f600b54836125c890919063ffffffff16565b6120a3565b6120a261207f61127f565b612094846007546125c890919063ffffffff16565b61271f90919063ffffffff16565b5b9050600081111515612143576040517f08c379a00000000000000000000000000000000000000000000000000000000081526004018080602001828103825260268152602001807f546f6b656e4765797365723a205374616b6520616d6f756e7420697320746f6f81526020017f20736d616c6c000000000000000000000000000000000000000000000000000081525060400191505060405180910390fd5b61214b610c6a565b5050505050506000600c60008573ffffffffffffffffffffffffffffffffffffffff1673ffffffffffffffffffffffffffffffffffffffff16815260200190815260200160002090506121ab82826000015461269590919063ffffffff16565b81600001819055504281600201819055506121c46135dc565b6040805190810160405280848152602001428152509050600d60008673ffffffffffffffffffffffffffffffffffffffff1673ffffffffffffffffffffffffffffffffffffffff168152602001908152602001600020819080600181540180825580915050906001820390600052602060002090600202016000909192909190915060008201518160000155602082015181600101555050506122728360075461269590919063ffffffff16565b600781905550600160009054906101000a900473ffffffffffffffffffffffffffffffffffffffff1673ffffffffffffffffffffffffffffffffffffffff1663fc0c546a6040518163ffffffff167c010000000000000000000000000000000000000000000000000000000002815260040160206040518083038186803b1580156122fc57600080fd5b505afa158015612310573d6000803e3d6000fd5b505050506040513d602081101561232657600080fd5b810190808051906020019092919050505073ffffffffffffffffffffffffffffffffffffffff166323b872dd87600160009054906101000a900473ffffffffffffffffffffffffffffffffffffffff16876040518463ffffffff167c0100000000000000000000000000000000000000000000000000000000028152600401808473ffffffffffffffffffffffffffffffffffffffff1673ffffffffffffffffffffffffffffffffffffffff1681526020018373ffffffffffffffffffffffffffffffffffffffff1673ffffffffffffffffffffffffffffffffffffffff1681526020018281526020019350505050602060405180830381600087803b15801561242f57600080fd5b505af1158015612443573d6000803e3d6000fd5b505050506040513d602081101561245957600080fd5b81019080805190602001909291905050501515612504576040517f08c379a000000000000000000000000000000000000000000000000000000000815260040180806020018281038252602e8152602001807f546f6b656e4765797365723a207472616e7366657220696e746f207374616b6981526020017f6e6720706f6f6c206661696c656400000000000000000000000000000000000081525060400191505060405180910390fd5b8473ffffffffffffffffffffffffffffffffffffffff167fc65e53b88159e7d2c0fc12a0600072e28ae53ff73b4c1715369c30f1609351428561254688610de0565b6040518083815260200182815260200180602001828103825260008152602001602001935050505060405180910390a2505050505050565b60006125c083836040805190810160405280601e81526020017f536166654d6174683a207375627472616374696f6e206f766572666c6f770000815250613327565b905092915050565b6000808314156125db576000905061268f565b600082840290508284828115156125ee57fe5b0414151561268a576040517f08c379a00000000000000000000000000000000000000000000000000000000081526004018080602001828103825260218152602001807f536166654d6174683a206d756c7469706c69636174696f6e206f766572666c6f81526020017f770000000000000000000000000000000000000000000000000000000000000081525060400191505060405180910390fd5b809150505b92915050565b6000808284019050838110151515612715576040517f08c379a000000000000000000000000000000000000000000000000000000000815260040180806020018281038252601b8152602001807f536166654d6174683a206164646974696f6e206f766572666c6f77000000000081525060200191505060405180910390fd5b8091505092915050565b600061276183836040805190810160405280601a81526020017f536166654d6174683a206469766973696f6e206279207a65726f0000000000008152506133e9565b905092915050565b6000612773610c6a565b505050505050600082111515612817576040517f08c379a00000000000000000000000000000000000000000000000000000000081526004018080602001828103825260238152602001807f546f6b656e4765797365723a20756e7374616b6520616d6f756e74206973207a81526020017f65726f000000000000000000000000000000000000000000000000000000000081525060400191505060405180910390fd5b8161282133610de0565b101515156128bd576040517f08c379a000000000000000000000000000000000000000000000000000000000815260040180806020018281038252603d8152602001807f546f6b656e4765797365723a20756e7374616b6520616d6f756e74206973206781526020017f726561746572207468616e20746f74616c2075736572207374616b657300000081525060400191505060405180910390fd5b60006128ed6128ca61127f565b6128df856007546125c890919063ffffffff16565b61271f90919063ffffffff16565b905060008111151561298d576040517f08c379a00000000000000000000000000000000000000000000000000000000081526004018080602001828103825260308152602001807f546f6b656e4765797365723a20556e61626c6520746f20756e7374616b65206181526020017f6d6f756e74207468697320736d616c6c0000000000000000000000000000000081525060400191505060405180910390fd5b6000600c60003373ffffffffffffffffffffffffffffffffffffffff1673ffffffffffffffffffffffffffffffffffffffff16815260200190815260200160002090506000600d60003373ffffffffffffffffffffffffffffffffffffffff1673ffffffffffffffffffffffffffffffffffffffff16815260200190815260200160002090506000809050600084905060008090505b6000821115612b51576000846001868054905003815481101515612a4357fe5b906000526020600020906002020190506000612a6c82600101544261257e90919063ffffffff16565b90506000809050848360000154111515612aee57612a978284600001546125c890919063ffffffff16565b9050612aa48482846134b3565b9350612ab9818761269590919063ffffffff16565b9550612ad283600001548661257e90919063ffffffff16565b945086805480919060019003612ae891906135f6565b50612b49565b612b0182866125c890919063ffffffff16565b9050612b0e8482846134b3565b9350612b23818761269590919063ffffffff16565b9550612b3c85846000015461257e90919063ffffffff16565b8360000181905550600094505b505050612a23565b612b6883866001015461257e90919063ffffffff16565b8560010181905550612b8786866000015461257e90919063ffffffff16565b8560000181905550612ba48360085461257e90919063ffffffff16565b600881905550612bbf8660075461257e90919063ffffffff16565b600781905550600160009054906101000a900473ffffffffffffffffffffffffffffffffffffffff1673ffffffffffffffffffffffffffffffffffffffff1663a9059cbb338a6040518363ffffffff167c0100000000000000000000000000000000000000000000000000000000028152600401808373ffffffffffffffffffffffffffffffffffffffff1673ffffffffffffffffffffffffffffffffffffffff16815260200182815260200192505050602060405180830381600087803b158015612c8a57600080fd5b505af1158015612c9e573d6000803e3d6000fd5b505050506040513d6020811015612cb457600080fd5b81019080805190602001909291905050501515612d5f576040517f08c379a00000000000000000000000000000000000000000000000000000000081526004018080602001828103825260308152602001807f546f6b656e4765797365723a207472616e73666572206f7574206f662073746181526020017f6b696e6720706f6f6c206661696c65640000000000000000000000000000000081525060400191505060405180910390fd5b600260009054906101000a900473ffffffffffffffffffffffffffffffffffffffff1673ffffffffffffffffffffffffffffffffffffffff1663a9059cbb33836040518363ffffffff167c0100000000000000000000000000000000000000000000000000000000028152600401808373ffffffffffffffffffffffffffffffffffffffff1673ffffffffffffffffffffffffffffffffffffffff16815260200182815260200192505050602060405180830381600087803b158015612e2457600080fd5b505af1158015612e38573d6000803e3d6000fd5b505050506040513d6020811015612e4e57600080fd5b81019080805190602001909291905050501515612ef9576040517f08c379a00000000000000000000000000000000000000000000000000000000081526004018080602001828103825260318152602001807f546f6b656e4765797365723a207472616e73666572206f7574206f6620756e6c81526020017f6f636b656420706f6f6c206661696c656400000000000000000000000000000081525060400191505060405180910390fd5b3373ffffffffffffffffffffffffffffffffffffffff167faf01bfc8475df280aca00b578c4a948e6d95700f0db8c13365240f7f973c875489612f3b33610de0565b6040518083815260200182815260200180602001828103825260008152602001602001935050505060405180910390a23373ffffffffffffffffffffffffffffffffffffffff167f896e034966eaaf1adc54acc0f257056febbd300c9e47182cf761982cf1f5e430826040518082815260200191505060405180910390a260006007541480612fd157506000612fcf61127f565b115b1515613091576040517f08c379a000000000000000000000000000000000000000000000000000000000815260040180806020018281038252604c8152602001807f546f6b656e4765797365723a204572726f7220756e7374616b696e672e20537481526020017f616b696e67207368617265732065786973742c20627574206e6f207374616b6981526020017f6e6720746f6b656e7320646f000000000000000000000000000000000000000081525060600191505060405180910390fd5b809650505050505050919050565b600033905090565b600073ffffffffffffffffffffffffffffffffffffffff168173ffffffffffffffffffffffffffffffffffffffff1614151515613172576040517f08c379a00000000000000000000000000000000000000000000000000000000081526004018080602001828103825260268152602001807f4f776e61626c653a206e6577206f776e657220697320746865207a65726f206181526020017f646472657373000000000000000000000000000000000000000000000000000081525060400191505060405180910390fd5b8073ffffffffffffffffffffffffffffffffffffffff166000809054906101000a900473ffffffffffffffffffffffffffffffffffffffff1673ffffffffffffffffffffffffffffffffffffffff167f8be0079c531659141344cd1fd0a4f28419497f9722a3daafe3b4186f6b6457e060405160405180910390a3806000806101000a81548173ffffffffffffffffffffffffffffffffffffffff021916908373ffffffffffffffffffffffffffffffffffffffff16021790555050565b600080600e8381548110151561324257fe5b906000526020600020906005020190508060000154816001015410151561326d576000915050613322565b60008090508160030154421015156132ae5761329a8260010154836000015461257e90919063ffffffff16565b9050816003015482600201819055506132fd565b6132f182600401546132e384600001546132d586600201544261257e90919063ffffffff16565b6125c890919063ffffffff16565b61271f90919063ffffffff16565b90504282600201819055505b61331481836001015461269590919063ffffffff16565b826001018190555080925050505b919050565b600083831115829015156133d6576040517f08c379a00000000000000000000000000000000000000000000000000000000081526004018080602001828103825283818151815260200191508051906020019080838360005b8381101561339b578082015181840152602081019050613380565b50505050905090810190601f1680156133c85780820380516001836020036101000a031916815260200191505b509250505060405180910390fd5b5060008385039050809150509392505050565b600080831182901515613497576040517f08c379a00000000000000000000000000000000000000000000000000000000081526004018080602001828103825283818151815260200191508051906020019080838360005b8381101561345c578082015181840152602081019050613441565b50505050905090810190601f1680156134895780820380516001836020036101000a031916815260200191505b509250505060405180910390fd5b50600083858115156134a557fe5b049050809150509392505050565b6000806134e46008546134d6866134c86119d2565b6125c890919063ffffffff16565b61271f90919063ffffffff16565b90506005548310151561350c57613504818661269590919063ffffffff16565b9150506135a5565b60006002600a0a9050600061358a8261357c8561356e61355d60055461354f8c6135416004548c61257e90919063ffffffff16565b6125c890919063ffffffff16565b61271f90919063ffffffff16565b60045461269590919063ffffffff16565b6125c890919063ffffffff16565b61271f90919063ffffffff16565b905061359f818861269590919063ffffffff16565b93505050505b9392505050565b60a06040519081016040528060008152602001600081526020016000815260200160008152602001600081525090565b604080519081016040528060008152602001600081525090565b815481835581811115613623576002028160020283600052602060002091820191016136229190613628565b5b505050565b61365491905b808211156136505760008082016000905560018201600090555060020161362e565b5090565b9056fea165627a7a7230582059492eb2552908f09c9b1999af0a68e1dddf1349479b288e83f9fae0f28613020029608060405234801561001057600080fd5b50604051602080610d7b8339810180604052602081101561003057600080fd5b810190808051906020019092919050505061005861015a640100000000026401000000009004565b6000806101000a81548173ffffffffffffffffffffffffffffffffffffffff021916908373ffffffffffffffffffffffffffffffffffffffff1602179055506000809054906101000a900473ffffffffffffffffffffffffffffffffffffffff1673ffffffffffffffffffffffffffffffffffffffff16600073ffffffffffffffffffffffffffffffffffffffff167f8be0079c531659141344cd1fd0a4f28419497f9722a3daafe3b4186f6b6457e060405160405180910390a380600160006101000a81548173ffffffffffffffffffffffffffffffffffffffff021916908373ffffffffffffffffffffffffffffffffffffffff16021790555050610162565b600033905090565b610c0a806101716000396000f3fe60806040526004361061008e576000357c0100000000000000000000000000000000000000000000000000000000900463ffffffff1680636ccae05414610093578063715018a6146101265780638da5cb5b1461013d5780638f32d59b14610194578063a9059cbb146101c3578063b69ef8a814610236578063f2fde38b14610261578063fc0c546a146102b2575b600080fd5b34801561009f57600080fd5b5061010c600480360360608110156100b657600080fd5b81019080803573ffffffffffffffffffffffffffffffffffffffff169060200190929190803573ffffffffffffffffffffffffffffffffffffffff16906020019092919080359060200190929190505050610309565b604051808215151515815260200191505060405180910390f35b34801561013257600080fd5b5061013b61055a565b005b34801561014957600080fd5b50610152610695565b604051808273ffffffffffffffffffffffffffffffffffffffff1673ffffffffffffffffffffffffffffffffffffffff16815260200191505060405180910390f35b3480156101a057600080fd5b506101a96106be565b604051808215151515815260200191505060405180910390f35b3480156101cf57600080fd5b5061021c600480360360408110156101e657600080fd5b81019080803573ffffffffffffffffffffffffffffffffffffffff1690602001909291908035906020019092919050505061071c565b604051808215151515815260200191505060405180910390f35b34801561024257600080fd5b5061024b6108a2565b6040518082815260200191505060405180910390f35b34801561026d57600080fd5b506102b06004803603602081101561028457600080fd5b81019080803573ffffffffffffffffffffffffffffffffffffffff16906020019092919050505061099f565b005b3480156102be57600080fd5b506102c7610a27565b604051808273ffffffffffffffffffffffffffffffffffffffff1673ffffffffffffffffffffffffffffffffffffffff16815260200191505060405180910390f35b60006103136106be565b1515610387576040517f08c379a00000000000000000000000000000000000000000000000000000000081526004018080602001828103825260208152602001807f4f776e61626c653a2063616c6c6572206973206e6f7420746865206f776e657281525060200191505060405180910390fd5b8373ffffffffffffffffffffffffffffffffffffffff16600160009054906101000a900473ffffffffffffffffffffffffffffffffffffffff1673ffffffffffffffffffffffffffffffffffffffff1614151515610473576040517f08c379a00000000000000000000000000000000000000000000000000000000081526004018080602001828103825260328152602001807f546f6b656e506f6f6c3a2043616e6e6f7420636c61696d20746f6b656e20686581526020017f6c642062792074686520636f6e7472616374000000000000000000000000000081525060400191505060405180910390fd5b8373ffffffffffffffffffffffffffffffffffffffff1663a9059cbb84846040518363ffffffff167c0100000000000000000000000000000000000000000000000000000000028152600401808373ffffffffffffffffffffffffffffffffffffffff1673ffffffffffffffffffffffffffffffffffffffff16815260200182815260200192505050602060405180830381600087803b15801561051657600080fd5b505af115801561052a573d6000803e3d6000fd5b505050506040513d602081101561054057600080fd5b810190808051906020019092919050505090509392505050565b6105626106be565b15156105d6576040517f08c379a00000000000000000000000000000000000000000000000000000000081526004018080602001828103825260208152602001807f4f776e61626c653a2063616c6c6572206973206e6f7420746865206f776e657281525060200191505060405180910390fd5b600073ffffffffffffffffffffffffffffffffffffffff166000809054906101000a900473ffffffffffffffffffffffffffffffffffffffff1673ffffffffffffffffffffffffffffffffffffffff167f8be0079c531659141344cd1fd0a4f28419497f9722a3daafe3b4186f6b6457e060405160405180910390a360008060006101000a81548173ffffffffffffffffffffffffffffffffffffffff021916908373ffffffffffffffffffffffffffffffffffffffff160217905550565b60008060009054906101000a900473ffffffffffffffffffffffffffffffffffffffff16905090565b60008060009054906101000a900473ffffffffffffffffffffffffffffffffffffffff1673ffffffffffffffffffffffffffffffffffffffff16610700610a4d565b73ffffffffffffffffffffffffffffffffffffffff1614905090565b60006107266106be565b151561079a576040517f08c379a00000000000000000000000000000000000000000000000000000000081526004018080602001828103825260208152602001807f4f776e61626c653a2063616c6c6572206973206e6f7420746865206f776e657281525060200191505060405180910390fd5b600160009054906101000a900473ffffffffffffffffffffffffffffffffffffffff1673ffffffffffffffffffffffffffffffffffffffff1663a9059cbb84846040518363ffffffff167c0100000000000000000000000000000000000000000000000000000000028152600401808373ffffffffffffffffffffffffffffffffffffffff1673ffffffffffffffffffffffffffffffffffffffff16815260200182815260200192505050602060405180830381600087803b15801561085f57600080fd5b505af1158015610873573d6000803e3d6000fd5b505050506040513d602081101561088957600080fd5b8101908080519060200190929190505050905092915050565b6000600160009054906101000a900473ffffffffffffffffffffffffffffffffffffffff1673ffffffffffffffffffffffffffffffffffffffff166370a08231306040518263ffffffff167c0100000000000000000000000000000000000000000000000000000000028152600401808273ffffffffffffffffffffffffffffffffffffffff1673ffffffffffffffffffffffffffffffffffffffff16815260200191505060206040518083038186803b15801561095f57600080fd5b505afa158015610973573d6000803e3d6000fd5b505050506040513d602081101561098957600080fd5b8101908080519060200190929190505050905090565b6109a76106be565b1515610a1b576040517f08c379a00000000000000000000000000000000000000000000000000000000081526004018080602001828103825260208152602001807f4f776e61626c653a2063616c6c6572206973206e6f7420746865206f776e657281525060200191505060405180910390fd5b610a2481610a55565b50565b600160009054906101000a900473ffffffffffffffffffffffffffffffffffffffff1681565b600033905090565b600073ffffffffffffffffffffffffffffffffffffffff168173ffffffffffffffffffffffffffffffffffffffff1614151515610b20576040517f08c379a00000000000000000000000000000000000000000000000000000000081526004018080602001828103825260268152602001807f4f776e61626c653a206e6577206f776e657220697320746865207a65726f206181526020017f646472657373000000000000000000000000000000000000000000000000000081525060400191505060405180910390fd5b8073ffffffffffffffffffffffffffffffffffffffff166000809054906101000a900473ffffffffffffffffffffffffffffffffffffffff1673ffffffffffffffffffffffffffffffffffffffff167f8be0079c531659141344cd1fd0a4f28419497f9722a3daafe3b4186f6b6457e060405160405180910390a3806000806101000a81548173ffffffffffffffffffffffffffffffffffffffff021916908373ffffffffffffffffffffffffffffffffffffffff1602179055505056fea165627a7a72305820d18576602433f076203a89f0cd23125d3ef9d3a3eea325496b566f3db767c04c0029",
  "compiler": {
    "name": "solc",
    "version": "0.5.0+commit.1d4f565a.Emscripten.clang",
    "optimizer": {
      "enabled": false,
      "runs": 200
    },
    "evmVersion": "byzantium"
  }
}