{
  "contractName": "YAMDelegate",
  "abi": [
    {
      "inputs": [],
      "payable": false,
      "stateMutability": "nonpayable",
      "type": "constructor"
    },
    {
      "anonymous": false,
      "inputs": [
        {
          "indexed": true,
          "internalType": "address",
          "name": "owner",
          "type": "address"
        },
        {
          "indexed": true,
          "internalType": "address",
          "name": "spender",
          "type": "address"
        },
        {
          "indexed": false,
          "internalType": "uint256",
          "name": "amount",
          "type": "uint256"
        }
      ],
      "name": "Approval",
      "type": "event"
    },
    {
      "anonymous": false,
      "inputs": [
        {
          "indexed": true,
          "internalType": "address",
          "name": "delegator",
          "type": "address"
        },
        {
          "indexed": true,
          "internalType": "address",
          "name": "fromDelegate",
          "type": "address"
        },
        {
          "indexed": true,
          "internalType": "address",
          "name": "toDelegate",
          "type": "address"
        }
      ],
      "name": "DelegateChanged",
      "type": "event"
    },
    {
      "anonymous": false,
      "inputs": [
        {
          "indexed": true,
          "internalType": "address",
          "name": "delegate",
          "type": "address"
        },
        {
          "indexed": false,
          "internalType": "uint256",
          "name": "previousBalance",
          "type": "uint256"
        },
        {
          "indexed": false,
          "internalType": "uint256",
          "name": "newBalance",
          "type": "uint256"
        }
      ],
      "name": "DelegateVotesChanged",
      "type": "event"
    },
    {
      "anonymous": false,
      "inputs": [
        {
          "indexed": false,
          "internalType": "address",
          "name": "to",
          "type": "address"
        },
        {
          "indexed": false,
          "internalType": "uint256",
          "name": "amount",
          "type": "uint256"
        }
      ],
      "name": "Mint",
      "type": "event"
    },
    {
      "anonymous": false,
      "inputs": [
        {
          "indexed": false,
          "internalType": "address",
          "name": "oldGov",
          "type": "address"
        },
        {
          "indexed": false,
          "internalType": "address",
          "name": "newGov",
          "type": "address"
        }
      ],
      "name": "NewGov",
      "type": "event"
    },
    {
      "anonymous": false,
      "inputs": [
        {
          "indexed": false,
          "internalType": "address",
          "name": "oldIncentivizer",
          "type": "address"
        },
        {
          "indexed": false,
          "internalType": "address",
          "name": "newIncentivizer",
          "type": "address"
        }
      ],
      "name": "NewIncentivizer",
      "type": "event"
    },
    {
      "anonymous": false,
      "inputs": [
        {
          "indexed": false,
          "internalType": "address",
          "name": "oldPendingGov",
          "type": "address"
        },
        {
          "indexed": false,
          "internalType": "address",
          "name": "newPendingGov",
          "type": "address"
        }
      ],
      "name": "NewPendingGov",
      "type": "event"
    },
    {
      "anonymous": false,
      "inputs": [
        {
          "indexed": false,
          "internalType": "address",
          "name": "oldRebaser",
          "type": "address"
        },
        {
          "indexed": false,
          "internalType": "address",
          "name": "newRebaser",
          "type": "address"
        }
      ],
      "name": "NewRebaser",
      "type": "event"
    },
    {
      "anonymous": false,
      "inputs": [
        {
          "indexed": false,
          "internalType": "uint256",
          "name": "epoch",
          "type": "uint256"
        },
        {
          "indexed": false,
          "internalType": "uint256",
          "name": "prevYamsScalingFactor",
          "type": "uint256"
        },
        {
          "indexed": false,
          "internalType": "uint256",
          "name": "newYamsScalingFactor",
          "type": "uint256"
        }
      ],
      "name": "Rebase",
      "type": "event"
    },
    {
      "anonymous": false,
      "inputs": [
        {
          "indexed": true,
          "internalType": "address",
          "name": "from",
          "type": "address"
        },
        {
          "indexed": true,
          "internalType": "address",
          "name": "to",
          "type": "address"
        },
        {
          "indexed": false,
          "internalType": "uint256",
          "name": "amount",
          "type": "uint256"
        }
      ],
      "name": "Transfer",
      "type": "event"
    },
    {
      "constant": true,
      "inputs": [],
      "name": "BASE",
      "outputs": [
        {
          "internalType": "uint256",
          "name": "",
          "type": "uint256"
        }
      ],
      "payable": false,
      "stateMutability": "view",
      "type": "function"
    },
    {
      "constant": true,
      "inputs": [],
      "name": "DELEGATION_TYPEHASH",
      "outputs": [
        {
          "internalType": "bytes32",
          "name": "",
          "type": "bytes32"
        }
      ],
      "payable": false,
      "stateMutability": "view",
      "type": "function"
    },
    {
      "constant": true,
      "inputs": [],
      "name": "DOMAIN_TYPEHASH",
      "outputs": [
        {
          "internalType": "bytes32",
          "name": "",
          "type": "bytes32"
        }
      ],
      "payable": false,
      "stateMutability": "view",
      "type": "function"
    },
    {
      "constant": false,
      "inputs": [],
      "name": "_acceptGov",
      "outputs": [],
      "payable": false,
      "stateMutability": "nonpayable",
      "type": "function"
    },
    {
      "constant": false,
      "inputs": [
        {
          "internalType": "address",
          "name": "incentivizer_",
          "type": "address"
        }
      ],
      "name": "_setIncentivizer",
      "outputs": [],
      "payable": false,
      "stateMutability": "nonpayable",
      "type": "function"
    },
    {
      "constant": false,
      "inputs": [
        {
          "internalType": "address",
          "name": "pendingGov_",
          "type": "address"
        }
      ],
      "name": "_setPendingGov",
      "outputs": [],
      "payable": false,
      "stateMutability": "nonpayable",
      "type": "function"
    },
    {
      "constant": false,
      "inputs": [
        {
          "internalType": "address",
          "name": "rebaser_",
          "type": "address"
        }
      ],
      "name": "_setRebaser",
      "outputs": [],
      "payable": false,
      "stateMutability": "nonpayable",
      "type": "function"
    },
    {
      "constant": true,
      "inputs": [
        {
          "internalType": "address",
          "name": "owner_",
          "type": "address"
        },
        {
          "internalType": "address",
          "name": "spender",
          "type": "address"
        }
      ],
      "name": "allowance",
      "outputs": [
        {
          "internalType": "uint256",
          "name": "",
          "type": "uint256"
        }
      ],
      "payable": false,
      "stateMutability": "view",
      "type": "function"
    },
    {
      "constant": false,
      "inputs": [
        {
          "internalType": "address",
          "name": "spender",
          "type": "address"
        },
        {
          "internalType": "uint256",
          "name": "value",
          "type": "uint256"
        }
      ],
      "name": "approve",
      "outputs": [
        {
          "internalType": "bool",
          "name": "",
          "type": "bool"
        }
      ],
      "payable": false,
      "stateMutability": "nonpayable",
      "type": "function"
    },
    {
      "constant": true,
      "inputs": [
        {
          "internalType": "address",
          "name": "who",
          "type": "address"
        }
      ],
      "name": "balanceOf",
      "outputs": [
        {
          "internalType": "uint256",
          "name": "",
          "type": "uint256"
        }
      ],
      "payable": false,
      "stateMutability": "view",
      "type": "function"
    },
    {
      "constant": true,
      "inputs": [
        {
          "internalType": "address",
          "name": "who",
          "type": "address"
        }
      ],
      "name": "balanceOfUnderlying",
      "outputs": [
        {
          "internalType": "uint256",
          "name": "",
          "type": "uint256"
        }
      ],
      "payable": false,
      "stateMutability": "view",
      "type": "function"
    },
    {
      "constant": true,
      "inputs": [
        {
          "internalType": "address",
          "name": "",
          "type": "address"
        },
        {
          "internalType": "uint32",
          "name": "",
          "type": "uint32"
        }
      ],
      "name": "checkpoints",
      "outputs": [
        {
          "internalType": "uint32",
          "name": "fromBlock",
          "type": "uint32"
        },
        {
          "internalType": "uint256",
          "name": "votes",
          "type": "uint256"
        }
      ],
      "payable": false,
      "stateMutability": "view",
      "type": "function"
    },
    {
      "constant": true,
      "inputs": [],
      "name": "decimals",
      "outputs": [
        {
          "internalType": "uint8",
          "name": "",
          "type": "uint8"
        }
      ],
      "payable": false,
      "stateMutability": "view",
      "type": "function"
    },
    {
      "constant": false,
      "inputs": [
        {
          "internalType": "address",
          "name": "spender",
          "type": "address"
        },
        {
          "internalType": "uint256",
          "name": "subtractedValue",
          "type": "uint256"
        }
      ],
      "name": "decreaseAllowance",
      "outputs": [
        {
          "internalType": "bool",
          "name": "",
          "type": "bool"
        }
      ],
      "payable": false,
      "stateMutability": "nonpayable",
      "type": "function"
    },
    {
      "constant": false,
      "inputs": [
        {
          "internalType": "address",
          "name": "delegatee",
          "type": "address"
        }
      ],
      "name": "delegate",
      "outputs": [],
      "payable": false,
      "stateMutability": "nonpayable",
      "type": "function"
    },
    {
      "constant": false,
      "inputs": [
        {
          "internalType": "address",
          "name": "delegatee",
          "type": "address"
        },
        {
          "internalType": "uint256",
          "name": "nonce",
          "type": "uint256"
        },
        {
          "internalType": "uint256",
          "name": "expiry",
          "type": "uint256"
        },
        {
          "internalType": "uint8",
          "name": "v",
          "type": "uint8"
        },
        {
          "internalType": "bytes32",
          "name": "r",
          "type": "bytes32"
        },
        {
          "internalType": "bytes32",
          "name": "s",
          "type": "bytes32"
        }
      ],
      "name": "delegateBySig",
      "outputs": [],
      "payable": false,
      "stateMutability": "nonpayable",
      "type": "function"
    },
    {
      "constant": true,
      "inputs": [
        {
          "internalType": "address",
          "name": "delegator",
          "type": "address"
        }
      ],
      "name": "delegates",
      "outputs": [
        {
          "internalType": "address",
          "name": "",
          "type": "address"
        }
      ],
      "payable": false,
      "stateMutability": "view",
      "type": "function"
    },
    {
      "constant": true,
      "inputs": [
        {
          "internalType": "address",
          "name": "account",
          "type": "address"
        }
      ],
      "name": "getCurrentVotes",
      "outputs": [
        {
          "internalType": "uint256",
          "name": "",
          "type": "uint256"
        }
      ],
      "payable": false,
      "stateMutability": "view",
      "type": "function"
    },
    {
      "constant": true,
      "inputs": [
        {
          "internalType": "address",
          "name": "account",
          "type": "address"
        },
        {
          "internalType": "uint256",
          "name": "blockNumber",
          "type": "uint256"
        }
      ],
      "name": "getPriorVotes",
      "outputs": [
        {
          "internalType": "uint256",
          "name": "",
          "type": "uint256"
        }
      ],
      "payable": false,
      "stateMutability": "view",
      "type": "function"
    },
    {
      "constant": true,
      "inputs": [],
      "name": "gov",
      "outputs": [
        {
          "internalType": "address",
          "name": "",
          "type": "address"
        }
      ],
      "payable": false,
      "stateMutability": "view",
      "type": "function"
    },
    {
      "constant": true,
      "inputs": [],
      "name": "implementation",
      "outputs": [
        {
          "internalType": "address",
          "name": "",
          "type": "address"
        }
      ],
      "payable": false,
      "stateMutability": "view",
      "type": "function"
    },
    {
      "constant": true,
      "inputs": [],
      "name": "incentivizer",
      "outputs": [
        {
          "internalType": "address",
          "name": "",
          "type": "address"
        }
      ],
      "payable": false,
      "stateMutability": "view",
      "type": "function"
    },
    {
      "constant": false,
      "inputs": [
        {
          "internalType": "address",
          "name": "spender",
          "type": "address"
        },
        {
          "internalType": "uint256",
          "name": "addedValue",
          "type": "uint256"
        }
      ],
      "name": "increaseAllowance",
      "outputs": [
        {
          "internalType": "bool",
          "name": "",
          "type": "bool"
        }
      ],
      "payable": false,
      "stateMutability": "nonpayable",
      "type": "function"
    },
    {
      "constant": true,
      "inputs": [],
      "name": "initSupply",
      "outputs": [
        {
          "internalType": "uint256",
          "name": "",
          "type": "uint256"
        }
      ],
      "payable": false,
      "stateMutability": "view",
      "type": "function"
    },
    {
      "constant": false,
      "inputs": [
        {
          "internalType": "string",
          "name": "name_",
          "type": "string"
        },
        {
          "internalType": "string",
          "name": "symbol_",
          "type": "string"
        },
        {
          "internalType": "uint8",
          "name": "decimals_",
          "type": "uint8"
        }
      ],
      "name": "initialize",
      "outputs": [],
      "payable": false,
      "stateMutability": "nonpayable",
      "type": "function"
    },
    {
      "constant": false,
      "inputs": [
        {
          "internalType": "string",
          "name": "name_",
          "type": "string"
        },
        {
          "internalType": "string",
          "name": "symbol_",
          "type": "string"
        },
        {
          "internalType": "uint8",
          "name": "decimals_",
          "type": "uint8"
        },
        {
          "internalType": "address",
          "name": "initial_owner",
          "type": "address"
        },
        {
          "internalType": "uint256",
          "name": "initSupply_",
          "type": "uint256"
        }
      ],
      "name": "initialize",
      "outputs": [],
      "payable": false,
      "stateMutability": "nonpayable",
      "type": "function"
    },
    {
      "constant": true,
      "inputs": [],
      "name": "internalDecimals",
      "outputs": [
        {
          "internalType": "uint256",
          "name": "",
          "type": "uint256"
        }
      ],
      "payable": false,
      "stateMutability": "view",
      "type": "function"
    },
    {
      "constant": true,
      "inputs": [],
      "name": "maxScalingFactor",
      "outputs": [
        {
          "internalType": "uint256",
          "name": "",
          "type": "uint256"
        }
      ],
      "payable": false,
      "stateMutability": "view",
      "type": "function"
    },
    {
      "constant": false,
      "inputs": [
        {
          "internalType": "address",
          "name": "to",
          "type": "address"
        },
        {
          "internalType": "uint256",
          "name": "amount",
          "type": "uint256"
        }
      ],
      "name": "mint",
      "outputs": [
        {
          "internalType": "bool",
          "name": "",
          "type": "bool"
        }
      ],
      "payable": false,
      "stateMutability": "nonpayable",
      "type": "function"
    },
    {
      "constant": true,
      "inputs": [],
      "name": "name",
      "outputs": [
        {
          "internalType": "string",
          "name": "",
          "type": "string"
        }
      ],
      "payable": false,
      "stateMutability": "view",
      "type": "function"
    },
    {
      "constant": true,
      "inputs": [
        {
          "internalType": "address",
          "name": "",
          "type": "address"
        }
      ],
      "name": "nonces",
      "outputs": [
        {
          "internalType": "uint256",
          "name": "",
          "type": "uint256"
        }
      ],
      "payable": false,
      "stateMutability": "view",
      "type": "function"
    },
    {
      "constant": true,
      "inputs": [
        {
          "internalType": "address",
          "name": "",
          "type": "address"
        }
      ],
      "name": "numCheckpoints",
      "outputs": [
        {
          "internalType": "uint32",
          "name": "",
          "type": "uint32"
        }
      ],
      "payable": false,
      "stateMutability": "view",
      "type": "function"
    },
    {
      "constant": true,
      "inputs": [],
      "name": "pendingGov",
      "outputs": [
        {
          "internalType": "address",
          "name": "",
          "type": "address"
        }
      ],
      "payable": false,
      "stateMutability": "view",
      "type": "function"
    },
    {
      "constant": false,
      "inputs": [
        {
          "internalType": "uint256",
          "name": "epoch",
          "type": "uint256"
        },
        {
          "internalType": "uint256",
          "name": "indexDelta",
          "type": "uint256"
        },
        {
          "internalType": "bool",
          "name": "positive",
          "type": "bool"
        }
      ],
      "name": "rebase",
      "outputs": [
        {
          "internalType": "uint256",
          "name": "",
          "type": "uint256"
        }
      ],
      "payable": false,
      "stateMutability": "nonpayable",
      "type": "function"
    },
    {
      "constant": true,
      "inputs": [],
      "name": "rebaser",
      "outputs": [
        {
          "internalType": "address",
          "name": "",
          "type": "address"
        }
      ],
      "payable": false,
      "stateMutability": "view",
      "type": "function"
    },
    {
      "constant": true,
      "inputs": [],
      "name": "symbol",
      "outputs": [
        {
          "internalType": "string",
          "name": "",
          "type": "string"
        }
      ],
      "payable": false,
      "stateMutability": "view",
      "type": "function"
    },
    {
      "constant": true,
      "inputs": [],
      "name": "totalSupply",
      "outputs": [
        {
          "internalType": "uint256",
          "name": "",
          "type": "uint256"
        }
      ],
      "payable": false,
      "stateMutability": "view",
      "type": "function"
    },
    {
      "constant": false,
      "inputs": [
        {
          "internalType": "address",
          "name": "to",
          "type": "address"
        },
        {
          "internalType": "uint256",
          "name": "value",
          "type": "uint256"
        }
      ],
      "name": "transfer",
      "outputs": [
        {
          "internalType": "bool",
          "name": "",
          "type": "bool"
        }
      ],
      "payable": false,
      "stateMutability": "nonpayable",
      "type": "function"
    },
    {
      "constant": false,
      "inputs": [
        {
          "internalType": "address",
          "name": "from",
          "type": "address"
        },
        {
          "internalType": "address",
          "name": "to",
          "type": "address"
        },
        {
          "internalType": "uint256",
          "name": "value",
          "type": "uint256"
        }
      ],
      "name": "transferFrom",
      "outputs": [
        {
          "internalType": "bool",
          "name": "",
          "type": "bool"
        }
      ],
      "payable": false,
      "stateMutability": "nonpayable",
      "type": "function"
    },
    {
      "constant": true,
      "inputs": [],
      "name": "yamsScalingFactor",
      "outputs": [
        {
          "internalType": "uint256",
          "name": "",
          "type": "uint256"
        }
      ],
      "payable": false,
      "stateMutability": "view",
      "type": "function"
    },
    {
      "constant": false,
      "inputs": [
        {
          "internalType": "bytes",
          "name": "data",
          "type": "bytes"
        }
      ],
      "name": "_becomeImplementation",
      "outputs": [],
      "payable": false,
      "stateMutability": "nonpayable",
      "type": "function"
    },
    {
      "constant": false,
      "inputs": [],
      "name": "_resignImplementation",
      "outputs": [],
      "payable": false,
      "stateMutability": "nonpayable",
      "type": "function"
    }
  ],
  "bytecode": "0x608060405234801561001057600080fd5b506130f3806100206000396000f3fe608060405234801561001057600080fd5b50600436106102de5760003560e01c80636c9452211161018657806398dca210116100e3578063c3cda52011610097578063ec342ad011610071578063ec342ad014610ba7578063f1127ed814610baf578063fa8f345514610c0e576102de565b8063c3cda52014610b10578063dd62ed3e14610b64578063e7a324dc14610b9f576102de565b8063a9059cbb116100c8578063a9059cbb14610a9c578063b4b5ea5714610ad5578063b6fa857614610b08576102de565b806398dca21014610a30578063a457c2d714610a63576102de565b8063782d6fe11161013a5780637ecebe001161011f5780637ecebe00146109ed57806395d89b4114610a2057806397d63f9314610a28576102de565b8063782d6fe1146109895780637af548c1146109c2576102de565b80636fcfff451161016b5780636fcfff45146108d757806370a082311461092357806373f03dff14610956576102de565b80636c9452211461077e5780636fc6407c146108cf576102de565b8063252408101161023f5780634bda2e20116101f35780635c19a95c116101cd5780635c19a95c1461073b5780635c60da1b1461076e57806364dd48f514610776576102de565b80634bda2e201461065a57806356e6772814610662578063587cde1e14610708576102de565b8063395093511161022457806339509351146105b55780633af9e669146105ee57806340c10f1914610621576102de565b8063252408101461058f578063313ce56714610597576102de565b8063153ab5051161029657806318160ddd1161027b57806318160ddd1461053c57806320606b701461054457806323b872dd1461054c576102de565b8063153ab505146104005780631624f6c61461040a576102de565b806311d3e6c4116102c757806311d3e6c4146103ad57806311fd8a83146103c757806312d43a51146103f8576102de565b806306fdde03146102e3578063095ea7b314610360575b600080fd5b6102eb610c41565b6040805160208082528351818301528351919283929083019185019080838360005b8381101561032557818101518382015260200161030d565b50505050905090810190601f1680156103525780820380516001836020036101000a031916815260200191505b509250505060405180910390f35b6103996004803603604081101561037657600080fd5b5073ffffffffffffffffffffffffffffffffffffffff8135169060200135610cec565b604080519115158252519081900360200190f35b6103b5610d60565b60408051918252519081900360200190f35b6103cf610d70565b6040805173ffffffffffffffffffffffffffffffffffffffff9092168252519081900360200190f35b6103cf610d8c565b610408610dad565b005b6104086004803603606081101561042057600080fd5b81019060208101813564010000000081111561043b57600080fd5b82018360208201111561044d57600080fd5b8035906020019184600183028401116401000000008311171561046f57600080fd5b91908080601f01602080910402602001604051908101604052809392919081815260200183838082843760009201919091525092959493602081019350359150506401000000008111156104c257600080fd5b8201836020820111156104d457600080fd5b803590602001918460018302840111640100000000831117156104f657600080fd5b91908080601f0160208091040260200160405190810160405280939291908181526020018383808284376000920191909152509295505050903560ff169150610e249050565b6103b5610ef1565b6103b5610ef7565b6103996004803603606081101561056257600080fd5b5073ffffffffffffffffffffffffffffffffffffffff813581169160208101359091169060400135610f12565b6103cf611124565b61059f611140565b6040805160ff9092168252519081900360200190f35b610399600480360360408110156105cb57600080fd5b5073ffffffffffffffffffffffffffffffffffffffff8135169060200135611149565b6103b56004803603602081101561060457600080fd5b503573ffffffffffffffffffffffffffffffffffffffff166111fc565b6103996004803603604081101561063757600080fd5b5073ffffffffffffffffffffffffffffffffffffffff8135169060200135611224565b610408611309565b6104086004803603602081101561067857600080fd5b81019060208101813564010000000081111561069357600080fd5b8201836020820111156106a557600080fd5b803590602001918460018302840111640100000000831117156106c757600080fd5b91908080601f01602080910402602001604051908101604052809392919081815260200183838082843760009201919091525092955061144c945050505050565b6103cf6004803603602081101561071e57600080fd5b503573ffffffffffffffffffffffffffffffffffffffff166114c4565b6104086004803603602081101561075157600080fd5b503573ffffffffffffffffffffffffffffffffffffffff166114ef565b6103cf6114f9565b6103b5611515565b610408600480360360a081101561079457600080fd5b8101906020810181356401000000008111156107af57600080fd5b8201836020820111156107c157600080fd5b803590602001918460018302840111640100000000831117156107e357600080fd5b91908080601f016020809104026020016040519081016040528093929190818152602001838380828437600092019190915250929594936020810193503591505064010000000081111561083657600080fd5b82018360208201111561084857600080fd5b8035906020019184600183028401116401000000008311171561086a57600080fd5b91908080601f0160208091040260200160405190810160405280939291908181526020018383808284376000920191909152509295505050813560ff16925050602081013573ffffffffffffffffffffffffffffffffffffffff169060400135611523565b6103cf61161e565b61090a600480360360208110156108ed57600080fd5b503573ffffffffffffffffffffffffffffffffffffffff1661163a565b6040805163ffffffff9092168252519081900360200190f35b6103b56004803603602081101561093957600080fd5b503573ffffffffffffffffffffffffffffffffffffffff16611652565b6104086004803603602081101561096c57600080fd5b503573ffffffffffffffffffffffffffffffffffffffff1661169d565b6103b56004803603604081101561099f57600080fd5b5073ffffffffffffffffffffffffffffffffffffffff813516906020013561174e565b6103b5600480360360608110156109d857600080fd5b50803590602081013590604001351515611a18565b6103b560048036036020811015610a0357600080fd5b503573ffffffffffffffffffffffffffffffffffffffff16611b80565b6102eb611b92565b6103b5611c08565b61040860048036036020811015610a4657600080fd5b503573ffffffffffffffffffffffffffffffffffffffff16611c0e565b61039960048036036040811015610a7957600080fd5b5073ffffffffffffffffffffffffffffffffffffffff8135169060200135611cbf565b61039960048036036040811015610ab257600080fd5b5073ffffffffffffffffffffffffffffffffffffffff8135169060200135611de2565b6103b560048036036020811015610aeb57600080fd5b503573ffffffffffffffffffffffffffffffffffffffff16611f59565b6103b5611ff4565b610408600480360360c0811015610b2657600080fd5b5073ffffffffffffffffffffffffffffffffffffffff8135169060208101359060408101359060ff6060820135169060808101359060a00135611ffa565b6103b560048036036040811015610b7a57600080fd5b5073ffffffffffffffffffffffffffffffffffffffff813581169160200135166123b1565b6103b56123e9565b6103b5612404565b610bee60048036036040811015610bc557600080fd5b50803573ffffffffffffffffffffffffffffffffffffffff16906020013563ffffffff16612410565b6040805163ffffffff909316835260208301919091528051918290030190f35b61040860048036036020811015610c2457600080fd5b503573ffffffffffffffffffffffffffffffffffffffff1661243d565b60018054604080516020600284861615610100027fffffffffffffffffffffffffffffffffffffffffffffffffffffffffffffffff0190941693909304601f81018490048402820184019092528181529291830182828015610ce45780601f10610cb957610100808354040283529160200191610ce4565b820191906000526020600020905b815481529060010190602001808311610cc757829003601f168201915b505050505081565b336000818152600a6020908152604080832073ffffffffffffffffffffffffffffffffffffffff8716808552908352818420869055815186815291519394909390927f8c5be1e5ebec7d5bd14f71427d1e84f3dd0314c0f7b2291e5b200ac8c7c3b925928290030190a35060015b92915050565b6000610d6a6124ee565b90505b90565b60055473ffffffffffffffffffffffffffffffffffffffff1681565b600354610100900473ffffffffffffffffffffffffffffffffffffffff1681565b600354610100900473ffffffffffffffffffffffffffffffffffffffff163314610e22576040517f08c379a000000000000000000000000000000000000000000000000000000000815260040180806020018281038252602b815260200180612f4d602b913960400191505060405180910390fd5b565b60085415610e9357604080517f08c379a000000000000000000000000000000000000000000000000000000000815260206004820152601360248201527f616c726561647920696e697469616c697a656400000000000000000000000000604482015290519081900360640190fd5b8251610ea6906001906020860190612e57565b508151610eba906002906020850190612e57565b50600380547fffffffffffffffffffffffffffffffffffffffffffffffffffffffffffffff001660ff929092169190911790555050565b60075481565b604051806043612fc982396043019050604051809103902081565b60008273ffffffffffffffffffffffffffffffffffffffff8116610f3557600080fd5b73ffffffffffffffffffffffffffffffffffffffff8116301415610f5857600080fd5b73ffffffffffffffffffffffffffffffffffffffff85166000908152600a60209081526040808320338452909152902054610f99908463ffffffff61252116565b73ffffffffffffffffffffffffffffffffffffffff86166000908152600a60209081526040808320338452909152812091909155600854610ffa90610fee8669d3c21bcecceda100000063ffffffff61256316565b9063ffffffff6125d616565b73ffffffffffffffffffffffffffffffffffffffff8716600090815260096020526040902054909150611033908263ffffffff61252116565b73ffffffffffffffffffffffffffffffffffffffff8088166000908152600960205260408082209390935590871681522054611075908263ffffffff61261816565b73ffffffffffffffffffffffffffffffffffffffff80871660008181526009602090815260409182902094909455805188815290519193928a16927fddf252ad1be2c89b69c2b068fc378daa952ba7f163c4a11628f55a4df523b3ef92918290030190a373ffffffffffffffffffffffffffffffffffffffff8087166000908152600c60205260408082205488841683529120546111189291821691168361268c565b50600195945050505050565b60045473ffffffffffffffffffffffffffffffffffffffff1681565b60035460ff1681565b336000908152600a6020908152604080832073ffffffffffffffffffffffffffffffffffffffff8616845290915281205461118a908363ffffffff61261816565b336000818152600a6020908152604080832073ffffffffffffffffffffffffffffffffffffffff89168085529083529281902085905580519485525191937f8c5be1e5ebec7d5bd14f71427d1e84f3dd0314c0f7b2291e5b200ac8c7c3b925929081900390910190a350600192915050565b73ffffffffffffffffffffffffffffffffffffffff1660009081526009602052604090205490565b60055460009073ffffffffffffffffffffffffffffffffffffffff16331480611264575060065473ffffffffffffffffffffffffffffffffffffffff1633145b8061128b5750600354610100900473ffffffffffffffffffffffffffffffffffffffff1633145b6112f657604080517f08c379a000000000000000000000000000000000000000000000000000000000815260206004820152600a60248201527f6e6f74206d696e74657200000000000000000000000000000000000000000000604482015290519081900360640190fd5b611300838361287e565b50600192915050565b60045473ffffffffffffffffffffffffffffffffffffffff16331461138f57604080517f08c379a000000000000000000000000000000000000000000000000000000000815260206004820152600860248201527f2170656e64696e67000000000000000000000000000000000000000000000000604482015290519081900360640190fd5b600380546004805473ffffffffffffffffffffffffffffffffffffffff8181166101009081027fffffffffffffffffffffff0000000000000000000000000000000000000000ff861617958690557fffffffffffffffffffffffff000000000000000000000000000000000000000090921690925560408051938290048316808552919094049091166020830152825190927f1f14cfc03e486d23acee577b07bc0b3b23f4888c91fcdba5e0fef5a2549d5523928290030190a150565b600354610100900473ffffffffffffffffffffffffffffffffffffffff1633146114c1576040517f08c379a000000000000000000000000000000000000000000000000000000000815260040180806020018281038252602b815260200180612f9e602b913960400191505060405180910390fd5b50565b73ffffffffffffffffffffffffffffffffffffffff9081166000908152600c60205260409020541690565b6114c13382612a16565b60105473ffffffffffffffffffffffffffffffffffffffff1681565b69d3c21bcecceda100000081565b6000811161159257604080517f08c379a000000000000000000000000000000000000000000000000000000000815260206004820152600d60248201527f3020696e697420737570706c7900000000000000000000000000000000000000604482015290519081900360640190fd5b61159d858585610e24565b6115c4670de0b6b3a764000069d3c21bcecceda10000005b8391900463ffffffff61256316565b600b556007819055670de0b6b3a764000060088190556115ee9069d3c21bcecceda10000006115b5565b73ffffffffffffffffffffffffffffffffffffffff90921660009081526009602052604090209190915550505050565b60065473ffffffffffffffffffffffffffffffffffffffff1681565b600e6020526000908152604090205463ffffffff1681565b60085473ffffffffffffffffffffffffffffffffffffffff82166000908152600960205260408120549091610d5a9169d3c21bcecceda100000091610fee919063ffffffff61256316565b600354610100900473ffffffffffffffffffffffffffffffffffffffff1633146116c657600080fd5b6004805473ffffffffffffffffffffffffffffffffffffffff8381167fffffffffffffffffffffffff0000000000000000000000000000000000000000831681179093556040805191909216808252602082019390935281517f6163d5b9efd962645dd649e6e48a61bcb0f9df00997a2398b80d135a9ab0c61e929181900390910190a15050565b60004382106117a8576040517f08c379a0000000000000000000000000000000000000000000000000000000008152600401808060200182810382526026815260200180612f786026913960400191505060405180910390fd5b73ffffffffffffffffffffffffffffffffffffffff83166000908152600e602052604090205463ffffffff16806117e3576000915050610d5a565b73ffffffffffffffffffffffffffffffffffffffff84166000908152600d6020908152604080832063ffffffff7fffffffffffffffffffffffffffffffffffffffffffffffffffffffffffffffff8601811685529252909120541683106118a85773ffffffffffffffffffffffffffffffffffffffff84166000908152600d602090815260408083207fffffffffffffffffffffffffffffffffffffffffffffffffffffffffffffffff9490940163ffffffff16835292905220600101549050610d5a565b73ffffffffffffffffffffffffffffffffffffffff84166000908152600d6020908152604080832083805290915290205463ffffffff168310156118f0576000915050610d5a565b60007fffffffffffffffffffffffffffffffffffffffffffffffffffffffffffffffff82015b8163ffffffff168163ffffffff1611156119d457600282820363ffffffff16048103611940612ed5565b5073ffffffffffffffffffffffffffffffffffffffff87166000908152600d6020908152604080832063ffffffff8086168552908352928190208151808301909252805490931680825260019093015491810191909152908714156119af57602001519450610d5a9350505050565b805163ffffffff168711156119c6578193506119cd565b6001820392505b5050611916565b5073ffffffffffffffffffffffffffffffffffffffff85166000908152600d6020908152604080832063ffffffff9094168352929052206001015491505092915050565b60055460009073ffffffffffffffffffffffffffffffffffffffff163314611a3f57600080fd5b82611a9057600854604080518681526020810183905280820192909252517fc6642d24d84e7f3d36ca39f5cce10e75639d9b158d5193aa350e2f900653e4c09181900360600190a150600754611b79565b60085482611ace57611ac6670de0b6b3a7640000610fee611ab7828863ffffffff61252116565b6008549063ffffffff61256316565b600855611b18565b6000611aef670de0b6b3a7640000610fee611ab7828963ffffffff61261816565b9050611af96124ee565b811015611b0a576008819055611b16565b611b126124ee565b6008555b505b600854600b54611b2d9163ffffffff61256316565b600755600854604080518781526020810184905280820192909252517fc6642d24d84e7f3d36ca39f5cce10e75639d9b158d5193aa350e2f900653e4c09181900360600190a150506007545b9392505050565b600f6020526000908152604090205481565b600280546040805160206001841615610100027fffffffffffffffffffffffffffffffffffffffffffffffffffffffffffffffff01909316849004601f81018490048402820184019092528181529291830182828015610ce45780601f10610cb957610100808354040283529160200191610ce4565b600b5481565b600354610100900473ffffffffffffffffffffffffffffffffffffffff163314611c3757600080fd5b6006805473ffffffffffffffffffffffffffffffffffffffff8381167fffffffffffffffffffffffff0000000000000000000000000000000000000000831681179093556040805191909216808252602082019390935281517f2ee668ca7d17a9122dc00c0bfd73b684f2f7d681f17733cc02b294f69f1b3896929181900390910190a15050565b336000908152600a6020908152604080832073ffffffffffffffffffffffffffffffffffffffff86168452909152812054808310611d2d57336000908152600a6020908152604080832073ffffffffffffffffffffffffffffffffffffffff88168452909152812055611d6f565b611d3d818463ffffffff61252116565b336000908152600a6020908152604080832073ffffffffffffffffffffffffffffffffffffffff891684529091529020555b336000818152600a6020908152604080832073ffffffffffffffffffffffffffffffffffffffff89168085529083529281902054815190815290519293927f8c5be1e5ebec7d5bd14f71427d1e84f3dd0314c0f7b2291e5b200ac8c7c3b925929181900390910190a35060019392505050565b60008273ffffffffffffffffffffffffffffffffffffffff8116611e0557600080fd5b73ffffffffffffffffffffffffffffffffffffffff8116301415611e2857600080fd5b600854600090611e4c90610fee8669d3c21bcecceda100000063ffffffff61256316565b33600090815260096020526040902054909150611e6f908263ffffffff61252116565b336000908152600960205260408082209290925573ffffffffffffffffffffffffffffffffffffffff871681522054611eae908263ffffffff61261816565b73ffffffffffffffffffffffffffffffffffffffff86166000818152600960209081526040918290209390935580518781529051919233927fddf252ad1be2c89b69c2b068fc378daa952ba7f163c4a11628f55a4df523b3ef9281900390910190a3336000908152600c60205260408082205473ffffffffffffffffffffffffffffffffffffffff88811684529190922054611f4e92821691168361268c565b506001949350505050565b73ffffffffffffffffffffffffffffffffffffffff81166000908152600e602052604081205463ffffffff1680611f91576000611b79565b73ffffffffffffffffffffffffffffffffffffffff83166000908152600d6020908152604080832063ffffffff7fffffffffffffffffffffffffffffffffffffffffffffffffffffffffffffffff86011684529091529020600101549392505050565b60085481565b60006040518080612fc96043913960430190506040518091039020600160405180828054600181600116156101000203166002900480156120725780601f10612050576101008083540402835291820191612072565b820191906000526020600020905b81548152906001019060200180831161205e575b50509150506040518091039020612087612abb565b30604051602001808581526020018481526020018381526020018273ffffffffffffffffffffffffffffffffffffffff1673ffffffffffffffffffffffffffffffffffffffff16815260200194505050505060405160208183030381529060405280519060200120905060006040518080613085603a91396040805191829003603a01822060208084019190915273ffffffffffffffffffffffffffffffffffffffff8c1683830152606083018b905260808084018b90528251808503909101815260a0840183528051908201207f190100000000000000000000000000000000000000000000000000000000000060c085015260c2840187905260e2808501829052835180860390910181526101028501808552815191840191909120600091829052610122860180865281905260ff8c1661014287015261016286018b905261018286018a9052935191965092945091926001926101a280830193927fffffffffffffffffffffffffffffffffffffffffffffffffffffffffffffffe08301929081900390910190855afa158015612225573d6000803e3d6000fd5b50506040517fffffffffffffffffffffffffffffffffffffffffffffffffffffffffffffffe0015191505073ffffffffffffffffffffffffffffffffffffffff81166122bc576040517f08c379a0000000000000000000000000000000000000000000000000000000008152600401808060200182810382526025815260200180612f286025913960400191505060405180910390fd5b73ffffffffffffffffffffffffffffffffffffffff81166000908152600f602052604090208054600181019091558914612341576040517f08c379a0000000000000000000000000000000000000000000000000000000008152600401808060200182810382526021815260200180612f076021913960400191505060405180910390fd5b8742111561239a576040517f08c379a000000000000000000000000000000000000000000000000000000000815260040180806020018281038252602581526020018061302d6025913960400191505060405180910390fd5b6123a4818b612a16565b505050505b505050505050565b73ffffffffffffffffffffffffffffffffffffffff9182166000908152600a6020908152604080832093909416825291909152205490565b60405180603a6130858239603a019050604051809103902081565b670de0b6b3a764000081565b600d6020908152600092835260408084209091529082529020805460019091015463ffffffff9091169082565b600354610100900473ffffffffffffffffffffffffffffffffffffffff16331461246657600080fd5b6005805473ffffffffffffffffffffffffffffffffffffffff8381167fffffffffffffffffffffffff0000000000000000000000000000000000000000831681179093556040805191909216808252602082019390935281517f51f448520e2183de499e224808a409ee01a1f380edb2e8497572320c15030545929181900390910190a15050565b6000600b547fffffffffffffffffffffffffffffffffffffffffffffffffffffffffffffffff8161251b57fe5b04905090565b6000611b7983836040518060400160405280601e81526020017f536166654d6174683a207375627472616374696f6e206f766572666c6f770000815250612abf565b60008261257257506000610d5a565b8282028284828161257f57fe5b0414611b79576040517f08c379a000000000000000000000000000000000000000000000000000000000815260040180806020018281038252602181526020018061300c6021913960400191505060405180910390fd5b6000611b7983836040518060400160405280601a81526020017f536166654d6174683a206469766973696f6e206279207a65726f000000000000815250612b70565b600082820183811015611b7957604080517f08c379a000000000000000000000000000000000000000000000000000000000815260206004820152601b60248201527f536166654d6174683a206164646974696f6e206f766572666c6f770000000000604482015290519081900360640190fd5b8173ffffffffffffffffffffffffffffffffffffffff168373ffffffffffffffffffffffffffffffffffffffff16141580156126c85750600081115b156128795773ffffffffffffffffffffffffffffffffffffffff8316156127a55773ffffffffffffffffffffffffffffffffffffffff83166000908152600e602052604081205463ffffffff16908161272257600061277f565b73ffffffffffffffffffffffffffffffffffffffff85166000908152600d6020908152604080832063ffffffff7fffffffffffffffffffffffffffffffffffffffffffffffffffffffffffffffff87011684529091529020600101545b90506000612793828563ffffffff61252116565b90506127a186848484612bef565b5050505b73ffffffffffffffffffffffffffffffffffffffff8216156128795773ffffffffffffffffffffffffffffffffffffffff82166000908152600e602052604081205463ffffffff1690816127fa576000612857565b73ffffffffffffffffffffffffffffffffffffffff84166000908152600d6020908152604080832063ffffffff7fffffffffffffffffffffffffffffffffffffffffffffffffffffffffffffffff87011684529091529020600101545b9050600061286b828563ffffffff61261816565b90506123a985848484612bef565b505050565b600754612891908263ffffffff61261816565b6007556008546000906128b890610fee8469d3c21bcecceda100000063ffffffff61256316565b600b549091506128ce908263ffffffff61261816565b600b556128d96124ee565b600854111561294957604080517f08c379a000000000000000000000000000000000000000000000000000000000815260206004820152601a60248201527f6d6178207363616c696e6720666163746f7220746f6f206c6f77000000000000604482015290519081900360640190fd5b73ffffffffffffffffffffffffffffffffffffffff831660009081526009602052604090205461297f908263ffffffff61261816565b73ffffffffffffffffffffffffffffffffffffffff808516600090815260096020908152604080832094909455600c9052918220546129c09291168361268c565b6040805173ffffffffffffffffffffffffffffffffffffffff851681526020810184905281517f0f6798a560793a54c3bcfe86a93cde1e73087d944c0ea20544137d4121396885929181900390910190a1505050565b73ffffffffffffffffffffffffffffffffffffffff8083166000818152600c6020818152604080842080546009845282862054949093528787167fffffffffffffffffffffffff00000000000000000000000000000000000000008416811790915590519190951694919391928592917f3134e8a2e6d97e929a7e54011ea5485d7d196dd5f0ba4d4ef95803e8e3fc257f9190a4612ab582848361268c565b50505050565b4690565b60008184841115612b68576040517f08c379a00000000000000000000000000000000000000000000000000000000081526004018080602001828103825283818151815260200191508051906020019080838360005b83811015612b2d578181015183820152602001612b15565b50505050905090810190601f168015612b5a5780820380516001836020036101000a031916815260200191505b509250505060405180910390fd5b505050900390565b60008183612bd9576040517f08c379a0000000000000000000000000000000000000000000000000000000008152602060048201818152835160248401528351909283926044909101919085019080838360008315612b2d578181015183820152602001612b15565b506000838581612be557fe5b0495945050505050565b6000612c134360405180606001604052806033815260200161305260339139612ddf565b905060008463ffffffff16118015612c87575073ffffffffffffffffffffffffffffffffffffffff85166000908152600d6020908152604080832063ffffffff7fffffffffffffffffffffffffffffffffffffffffffffffffffffffffffffffff8901811685529252909120548282169116145b15612cef5773ffffffffffffffffffffffffffffffffffffffff85166000908152600d6020908152604080832063ffffffff7fffffffffffffffffffffffffffffffffffffffffffffffffffffffffffffffff89011684529091529020600101829055612d88565b60408051808201825263ffffffff8084168252602080830186815273ffffffffffffffffffffffffffffffffffffffff8a166000818152600d84528681208b861682528452868120955186549086167fffffffffffffffffffffffffffffffffffffffffffffffffffffffff000000009182161787559251600196870155908152600e9092529390208054928801909116919092161790555b6040805184815260208101849052815173ffffffffffffffffffffffffffffffffffffffff8816927fdec2bacdd2f05b59de34da9b523dff8be42e5e38e818c82fdb0bae774387a724928290030190a25050505050565b6000816401000000008410612e4f576040517f08c379a0000000000000000000000000000000000000000000000000000000008152602060048201818152835160248401528351909283926044909101919085019080838360008315612b2d578181015183820152602001612b15565b509192915050565b828054600181600116156101000203166002900490600052602060002090601f016020900481019282601f10612e9857805160ff1916838001178555612ec5565b82800160010185558215612ec5579182015b82811115612ec5578251825591602001919060010190612eaa565b50612ed1929150612eec565b5090565b604080518082019091526000808252602082015290565b610d6d91905b80821115612ed15760008155600101612ef256fe59414d3a3a64656c656761746542795369673a20696e76616c6964206e6f6e636559414d3a3a64656c656761746542795369673a20696e76616c6964207369676e61747572656f6e6c792074686520676f76206d61792063616c6c205f72657369676e496d706c656d656e746174696f6e59414d3a3a6765745072696f72566f7465733a206e6f74207965742064657465726d696e65646f6e6c792074686520676f76206d61792063616c6c205f6265636f6d65496d706c656d656e746174696f6e454950373132446f6d61696e28737472696e67206e616d652c75696e7432353620636861696e49642c6164647265737320766572696679696e67436f6e747261637429536166654d6174683a206d756c7469706c69636174696f6e206f766572666c6f7759414d3a3a64656c656761746542795369673a207369676e6174757265206578706972656459414d3a3a5f7772697465436865636b706f696e743a20626c6f636b206e756d6265722065786365656473203332206269747344656c65676174696f6e28616464726573732064656c6567617465652c75696e74323536206e6f6e63652c75696e743235362065787069727929a265627a7a723158203765f6e747eef9e80945352caa35220972c4d971f8741b2c6c00af7f6000a90864736f6c63430005110032",
  "source": "pragma solidity 0.5.17;\n\nimport \"./YAM.sol\";\n\ncontract YAMDelegationStorage {\n    /**\n     * @notice Implementation address for this contract\n     */\n    address public implementation;\n}\n\ncontract YAMDelegatorInterface is YAMDelegationStorage {\n    /**\n     * @notice Emitted when implementation is changed\n     */\n    event NewImplementation(address oldImplementation, address newImplementation);\n\n    /**\n     * @notice Called by the gov to update the implementation of the delegator\n     * @param implementation_ The address of the new implementation for delegation\n     * @param allowResign Flag to indicate whether to call _resignImplementation on the old implementation\n     * @param becomeImplementationData The encoded bytes data to be passed to _becomeImplementation\n     */\n    function _setImplementation(address implementation_, bool allowResign, bytes memory becomeImplementationData) public;\n}\n\ncontract YAMDelegateInterface is YAMDelegationStorage {\n    /**\n     * @notice Called by the delegator on a delegate to initialize it for duty\n     * @dev Should revert if any issues arise which make it unfit for delegation\n     * @param data The encoded bytes data for any initialization\n     */\n    function _becomeImplementation(bytes memory data) public;\n\n    /**\n     * @notice Called by the delegator on a delegate to forfeit its responsibility\n     */\n    function _resignImplementation() public;\n}\n\n\ncontract YAMDelegate is YAM, YAMDelegateInterface {\n    /**\n     * @notice Construct an empty delegate\n     */\n    constructor() public {}\n\n    /**\n     * @notice Called by the delegator on a delegate to initialize it for duty\n     * @param data The encoded bytes data for any initialization\n     */\n    function _becomeImplementation(bytes memory data) public {\n        // Shh -- currently unused\n        data;\n\n        // Shh -- we don't ever want this hook to be marked pure\n        if (false) {\n            implementation = address(0);\n        }\n\n        require(msg.sender == gov, \"only the gov may call _becomeImplementation\");\n    }\n\n    /**\n     * @notice Called by the delegator on a delegate to forfeit its responsibility\n     */\n    function _resignImplementation() public {\n        // Shh -- we don't ever want this hook to be marked pure\n        if (false) {\n            implementation = address(0);\n        }\n\n        require(msg.sender == gov, \"only the gov may call _resignImplementation\");\n    }\n}\n",
  "sourcePath": "/Users/joelgarcia/Documents/github/maws-git/yam-protocol/contracts/token/YAMDelegate.sol",
  "compiler": {
    "name": "solc",
    "version": "0.5.17+commit.d19bba13.Emscripten.clang"
  },
  "schemaVersion": "3.2.5",
  "updatedAt": "2020-09-15T18:42:44.338Z",
  "devdoc": {
    "methods": {
      "_becomeImplementation(bytes)": {
        "params": {
          "data": "The encoded bytes data for any initialization"
        }
      },
      "_setIncentivizer(address)": {
        "params": {
          "incentivizer_": "The address of the rebaser contract to use for authentication."
        }
      },
      "_setPendingGov(address)": {
        "params": {
          "pendingGov_": "The address of the rebaser contract to use for authentication."
        }
      },
      "_setRebaser(address)": {
        "params": {
          "rebaser_": "The address of the rebaser contract to use for authentication."
        }
      },
      "allowance(address,address)": {
        "details": "Function to check the amount of tokens that an owner has allowed to a spender.",
        "params": {
          "owner_": "The address which owns the funds.",
          "spender": "The address which will spend the funds."
        },
        "return": "The number of tokens still available for the spender."
      },
      "approve(address,uint256)": {
        "details": "Approve the passed address to spend the specified amount of tokens on behalf of msg.sender. This method is included for ERC20 compatibility. increaseAllowance and decreaseAllowance should be used instead. Changing an allowance with this method brings the risk that someone may transfer both the old and the new allowance - if they are both greater than zero - if a transfer transaction is mined before the later approve() call is mined.",
        "params": {
          "spender": "The address which will spend the funds.",
          "value": "The amount of tokens to be spent."
        }
      },
      "balanceOf(address)": {
        "params": {
          "who": "The address to query."
        },
        "return": "The balance of the specified address."
      },
      "balanceOfUnderlying(address)": {
        "params": {
          "who": "The address to query."
        },
        "return": "The underlying balance of the specified address."
      },
      "decreaseAllowance(address,uint256)": {
        "details": "Decrease the amount of tokens that an owner has allowed to a spender.",
        "params": {
          "spender": "The address which will spend the funds.",
          "subtractedValue": "The amount of tokens to decrease the allowance by."
        }
      },
      "delegate(address)": {
        "params": {
          "delegatee": "The address to delegate votes to"
        }
      },
      "delegateBySig(address,uint256,uint256,uint8,bytes32,bytes32)": {
        "params": {
          "delegatee": "The address to delegate votes to",
          "expiry": "The time at which to expire the signature",
          "nonce": "The contract state required to match the signature",
          "r": "Half of the ECDSA signature pair",
          "s": "Half of the ECDSA signature pair",
          "v": "The recovery byte of the signature"
        }
      },
      "delegates(address)": {
        "params": {
          "delegator": "The address to get delegatee for"
        }
      },
      "getCurrentVotes(address)": {
        "params": {
          "account": "The address to get votes balance"
        },
        "return": "The number of current votes for `account`"
      },
      "getPriorVotes(address,uint256)": {
        "details": "Block number must be a finalized block or else this function will revert to prevent misinformation.",
        "params": {
          "account": "The address of the account to check",
          "blockNumber": "The block number to get the vote balance at"
        },
        "return": "The number of votes the account had as of the given block"
      },
      "increaseAllowance(address,uint256)": {
        "details": "Increase the amount of tokens that an owner has allowed to a spender. This method should be used instead of approve() to avoid the double approval vulnerability described above.",
        "params": {
          "addedValue": "The amount of tokens to increase the allowance by.",
          "spender": "The address which will spend the funds."
        }
      },
      "initialize(string,string,uint8,address,uint256)": {
        "params": {
          "decimals_": "ERC-20 decimal precision of this token",
          "name_": "ERC-20 name of this token",
          "symbol_": "ERC-20 symbol of this token"
        }
      },
      "mint(address,uint256)": {
        "details": "Limited to onlyMinter modifier"
      },
      "rebase(uint256,uint256,bool)": {
        "details": "The supply adjustment equals (totalSupply * DeviationFromTargetRate) / rebaseLag     Where DeviationFromTargetRate is (MarketOracleRate - targetRate) / targetRate     and targetRate is CpiOracleRate / baseCpi"
      },
      "transfer(address,uint256)": {
        "details": "Transfer tokens to a specified address.",
        "params": {
          "to": "The address to transfer to.",
          "value": "The amount to be transferred."
        },
        "return": "True on success, false otherwise."
      },
      "transferFrom(address,address,uint256)": {
        "details": "Transfer tokens from one address to another.",
        "params": {
          "from": "The address you want to send tokens from.",
          "to": "The address you want to transfer to.",
          "value": "The amount of tokens to be transferred."
        }
      }
    }
  },
  "userdoc": {
    "methods": {
      "_acceptGov()": {
        "notice": "lets msg.sender accept governance     "
      },
      "_becomeImplementation(bytes)": {
        "notice": "Called by the delegator on a delegate to initialize it for duty"
      },
      "_resignImplementation()": {
        "notice": "Called by the delegator on a delegate to forfeit its responsibility"
      },
      "_setIncentivizer(address)": {
        "notice": "sets the incentivizer"
      },
      "_setPendingGov(address)": {
        "notice": "sets the pendingGov"
      },
      "_setRebaser(address)": {
        "notice": "sets the rebaser"
      },
      "balanceOfUnderlying(address)": {
        "notice": "Currently returns the internal storage amount"
      },
      "constructor": "Construct an empty delegate",
      "delegate(address)": {
        "notice": "Delegate votes from `msg.sender` to `delegatee`"
      },
      "delegateBySig(address,uint256,uint256,uint8,bytes32,bytes32)": {
        "notice": "Delegates votes from signatory to `delegatee`"
      },
      "delegates(address)": {
        "notice": "Delegate votes from `msg.sender` to `delegatee`"
      },
      "getCurrentVotes(address)": {
        "notice": "Gets the current votes balance for `account`"
      },
      "getPriorVotes(address,uint256)": {
        "notice": "Determine the prior number of votes for an account as of a block number"
      },
      "initialize(string,string,uint8,address,uint256)": {
        "notice": "Initialize the new money market"
      },
      "maxScalingFactor()": {
        "notice": "Computes the current max scaling factor"
      },
      "mint(address,uint256)": {
        "notice": "Mints new tokens, increasing totalSupply, initSupply, and a users balance."
      },
      "rebase(uint256,uint256,bool)": {
        "notice": "Initiates a new rebase operation, provided the minimum time period has elapsed."
      }
    }
  }
}