{
  "contractName": "YAMDelegator",
  "abi": [
    {
      "inputs": [
        {
          "internalType": "string",
          "name": "name_",
          "type": "string"
        },
        {
          "internalType": "string",
          "name": "symbol_",
          "type": "string"
        },
        {
          "internalType": "uint8",
          "name": "decimals_",
          "type": "uint8"
        },
        {
          "internalType": "uint256",
          "name": "initSupply_",
          "type": "uint256"
        },
        {
          "internalType": "address",
          "name": "implementation_",
          "type": "address"
        },
        {
          "internalType": "bytes",
          "name": "becomeImplementationData",
          "type": "bytes"
        }
      ],
      "payable": false,
      "stateMutability": "nonpayable",
      "type": "constructor"
    },
    {
      "anonymous": false,
      "inputs": [
        {
          "indexed": true,
          "internalType": "address",
          "name": "owner",
          "type": "address"
        },
        {
          "indexed": true,
          "internalType": "address",
          "name": "spender",
          "type": "address"
        },
        {
          "indexed": false,
          "internalType": "uint256",
          "name": "amount",
          "type": "uint256"
        }
      ],
      "name": "Approval",
      "type": "event"
    },
    {
      "anonymous": false,
      "inputs": [
        {
          "indexed": true,
          "internalType": "address",
          "name": "delegator",
          "type": "address"
        },
        {
          "indexed": true,
          "internalType": "address",
          "name": "fromDelegate",
          "type": "address"
        },
        {
          "indexed": true,
          "internalType": "address",
          "name": "toDelegate",
          "type": "address"
        }
      ],
      "name": "DelegateChanged",
      "type": "event"
    },
    {
      "anonymous": false,
      "inputs": [
        {
          "indexed": true,
          "internalType": "address",
          "name": "delegate",
          "type": "address"
        },
        {
          "indexed": false,
          "internalType": "uint256",
          "name": "previousBalance",
          "type": "uint256"
        },
        {
          "indexed": false,
          "internalType": "uint256",
          "name": "newBalance",
          "type": "uint256"
        }
      ],
      "name": "DelegateVotesChanged",
      "type": "event"
    },
    {
      "anonymous": false,
      "inputs": [
        {
          "indexed": false,
          "internalType": "address",
          "name": "to",
          "type": "address"
        },
        {
          "indexed": false,
          "internalType": "uint256",
          "name": "amount",
          "type": "uint256"
        }
      ],
      "name": "Mint",
      "type": "event"
    },
    {
      "anonymous": false,
      "inputs": [
        {
          "indexed": false,
          "internalType": "address",
          "name": "oldGov",
          "type": "address"
        },
        {
          "indexed": false,
          "internalType": "address",
          "name": "newGov",
          "type": "address"
        }
      ],
      "name": "NewGov",
      "type": "event"
    },
    {
      "anonymous": false,
      "inputs": [
        {
          "indexed": false,
          "internalType": "address",
          "name": "oldImplementation",
          "type": "address"
        },
        {
          "indexed": false,
          "internalType": "address",
          "name": "newImplementation",
          "type": "address"
        }
      ],
      "name": "NewImplementation",
      "type": "event"
    },
    {
      "anonymous": false,
      "inputs": [
        {
          "indexed": false,
          "internalType": "address",
          "name": "oldIncentivizer",
          "type": "address"
        },
        {
          "indexed": false,
          "internalType": "address",
          "name": "newIncentivizer",
          "type": "address"
        }
      ],
      "name": "NewIncentivizer",
      "type": "event"
    },
    {
      "anonymous": false,
      "inputs": [
        {
          "indexed": false,
          "internalType": "address",
          "name": "oldPendingGov",
          "type": "address"
        },
        {
          "indexed": false,
          "internalType": "address",
          "name": "newPendingGov",
          "type": "address"
        }
      ],
      "name": "NewPendingGov",
      "type": "event"
    },
    {
      "anonymous": false,
      "inputs": [
        {
          "indexed": false,
          "internalType": "address",
          "name": "oldRebaser",
          "type": "address"
        },
        {
          "indexed": false,
          "internalType": "address",
          "name": "newRebaser",
          "type": "address"
        }
      ],
      "name": "NewRebaser",
      "type": "event"
    },
    {
      "anonymous": false,
      "inputs": [
        {
          "indexed": false,
          "internalType": "uint256",
          "name": "epoch",
          "type": "uint256"
        },
        {
          "indexed": false,
          "internalType": "uint256",
          "name": "prevYamsScalingFactor",
          "type": "uint256"
        },
        {
          "indexed": false,
          "internalType": "uint256",
          "name": "newYamsScalingFactor",
          "type": "uint256"
        }
      ],
      "name": "Rebase",
      "type": "event"
    },
    {
      "anonymous": false,
      "inputs": [
        {
          "indexed": true,
          "internalType": "address",
          "name": "from",
          "type": "address"
        },
        {
          "indexed": true,
          "internalType": "address",
          "name": "to",
          "type": "address"
        },
        {
          "indexed": false,
          "internalType": "uint256",
          "name": "amount",
          "type": "uint256"
        }
      ],
      "name": "Transfer",
      "type": "event"
    },
    {
      "payable": true,
      "stateMutability": "payable",
      "type": "fallback"
    },
    {
      "constant": true,
      "inputs": [],
      "name": "BASE",
      "outputs": [
        {
          "internalType": "uint256",
          "name": "",
          "type": "uint256"
        }
      ],
      "payable": false,
      "stateMutability": "view",
      "type": "function"
    },
    {
      "constant": true,
      "inputs": [],
      "name": "DELEGATION_TYPEHASH",
      "outputs": [
        {
          "internalType": "bytes32",
          "name": "",
          "type": "bytes32"
        }
      ],
      "payable": false,
      "stateMutability": "view",
      "type": "function"
    },
    {
      "constant": true,
      "inputs": [],
      "name": "DOMAIN_TYPEHASH",
      "outputs": [
        {
          "internalType": "bytes32",
          "name": "",
          "type": "bytes32"
        }
      ],
      "payable": false,
      "stateMutability": "view",
      "type": "function"
    },
    {
      "constant": true,
      "inputs": [
        {
          "internalType": "address",
          "name": "",
          "type": "address"
        },
        {
          "internalType": "uint32",
          "name": "",
          "type": "uint32"
        }
      ],
      "name": "checkpoints",
      "outputs": [
        {
          "internalType": "uint32",
          "name": "fromBlock",
          "type": "uint32"
        },
        {
          "internalType": "uint256",
          "name": "votes",
          "type": "uint256"
        }
      ],
      "payable": false,
      "stateMutability": "view",
      "type": "function"
    },
    {
      "constant": true,
      "inputs": [],
      "name": "decimals",
      "outputs": [
        {
          "internalType": "uint8",
          "name": "",
          "type": "uint8"
        }
      ],
      "payable": false,
      "stateMutability": "view",
      "type": "function"
    },
    {
      "constant": true,
      "inputs": [],
      "name": "gov",
      "outputs": [
        {
          "internalType": "address",
          "name": "",
          "type": "address"
        }
      ],
      "payable": false,
      "stateMutability": "view",
      "type": "function"
    },
    {
      "constant": true,
      "inputs": [],
      "name": "implementation",
      "outputs": [
        {
          "internalType": "address",
          "name": "",
          "type": "address"
        }
      ],
      "payable": false,
      "stateMutability": "view",
      "type": "function"
    },
    {
      "constant": true,
      "inputs": [],
      "name": "incentivizer",
      "outputs": [
        {
          "internalType": "address",
          "name": "",
          "type": "address"
        }
      ],
      "payable": false,
      "stateMutability": "view",
      "type": "function"
    },
    {
      "constant": true,
      "inputs": [],
      "name": "initSupply",
      "outputs": [
        {
          "internalType": "uint256",
          "name": "",
          "type": "uint256"
        }
      ],
      "payable": false,
      "stateMutability": "view",
      "type": "function"
    },
    {
      "constant": true,
      "inputs": [],
      "name": "internalDecimals",
      "outputs": [
        {
          "internalType": "uint256",
          "name": "",
          "type": "uint256"
        }
      ],
      "payable": false,
      "stateMutability": "view",
      "type": "function"
    },
    {
      "constant": true,
      "inputs": [],
      "name": "name",
      "outputs": [
        {
          "internalType": "string",
          "name": "",
          "type": "string"
        }
      ],
      "payable": false,
      "stateMutability": "view",
      "type": "function"
    },
    {
      "constant": true,
      "inputs": [
        {
          "internalType": "address",
          "name": "",
          "type": "address"
        }
      ],
      "name": "nonces",
      "outputs": [
        {
          "internalType": "uint256",
          "name": "",
          "type": "uint256"
        }
      ],
      "payable": false,
      "stateMutability": "view",
      "type": "function"
    },
    {
      "constant": true,
      "inputs": [
        {
          "internalType": "address",
          "name": "",
          "type": "address"
        }
      ],
      "name": "numCheckpoints",
      "outputs": [
        {
          "internalType": "uint32",
          "name": "",
          "type": "uint32"
        }
      ],
      "payable": false,
      "stateMutability": "view",
      "type": "function"
    },
    {
      "constant": true,
      "inputs": [],
      "name": "pendingGov",
      "outputs": [
        {
          "internalType": "address",
          "name": "",
          "type": "address"
        }
      ],
      "payable": false,
      "stateMutability": "view",
      "type": "function"
    },
    {
      "constant": true,
      "inputs": [],
      "name": "rebaser",
      "outputs": [
        {
          "internalType": "address",
          "name": "",
          "type": "address"
        }
      ],
      "payable": false,
      "stateMutability": "view",
      "type": "function"
    },
    {
      "constant": true,
      "inputs": [],
      "name": "symbol",
      "outputs": [
        {
          "internalType": "string",
          "name": "",
          "type": "string"
        }
      ],
      "payable": false,
      "stateMutability": "view",
      "type": "function"
    },
    {
      "constant": true,
      "inputs": [],
      "name": "totalSupply",
      "outputs": [
        {
          "internalType": "uint256",
          "name": "",
          "type": "uint256"
        }
      ],
      "payable": false,
      "stateMutability": "view",
      "type": "function"
    },
    {
      "constant": true,
      "inputs": [],
      "name": "yamsScalingFactor",
      "outputs": [
        {
          "internalType": "uint256",
          "name": "",
          "type": "uint256"
        }
      ],
      "payable": false,
      "stateMutability": "view",
      "type": "function"
    },
    {
      "constant": false,
      "inputs": [
        {
          "internalType": "address",
          "name": "implementation_",
          "type": "address"
        },
        {
          "internalType": "bool",
          "name": "allowResign",
          "type": "bool"
        },
        {
          "internalType": "bytes",
          "name": "becomeImplementationData",
          "type": "bytes"
        }
      ],
      "name": "_setImplementation",
      "outputs": [],
      "payable": false,
      "stateMutability": "nonpayable",
      "type": "function"
    },
    {
      "constant": false,
      "inputs": [
        {
          "internalType": "address",
          "name": "to",
          "type": "address"
        },
        {
          "internalType": "uint256",
          "name": "mintAmount",
          "type": "uint256"
        }
      ],
      "name": "mint",
      "outputs": [
        {
          "internalType": "bool",
          "name": "",
          "type": "bool"
        }
      ],
      "payable": false,
      "stateMutability": "nonpayable",
      "type": "function"
    },
    {
      "constant": false,
      "inputs": [
        {
          "internalType": "address",
          "name": "dst",
          "type": "address"
        },
        {
          "internalType": "uint256",
          "name": "amount",
          "type": "uint256"
        }
      ],
      "name": "transfer",
      "outputs": [
        {
          "internalType": "bool",
          "name": "",
          "type": "bool"
        }
      ],
      "payable": false,
      "stateMutability": "nonpayable",
      "type": "function"
    },
    {
      "constant": false,
      "inputs": [
        {
          "internalType": "address",
          "name": "src",
          "type": "address"
        },
        {
          "internalType": "address",
          "name": "dst",
          "type": "address"
        },
        {
          "internalType": "uint256",
          "name": "amount",
          "type": "uint256"
        }
      ],
      "name": "transferFrom",
      "outputs": [
        {
          "internalType": "bool",
          "name": "",
          "type": "bool"
        }
      ],
      "payable": false,
      "stateMutability": "nonpayable",
      "type": "function"
    },
    {
      "constant": false,
      "inputs": [
        {
          "internalType": "address",
          "name": "spender",
          "type": "address"
        },
        {
          "internalType": "uint256",
          "name": "amount",
          "type": "uint256"
        }
      ],
      "name": "approve",
      "outputs": [
        {
          "internalType": "bool",
          "name": "",
          "type": "bool"
        }
      ],
      "payable": false,
      "stateMutability": "nonpayable",
      "type": "function"
    },
    {
      "constant": false,
      "inputs": [
        {
          "internalType": "address",
          "name": "spender",
          "type": "address"
        },
        {
          "internalType": "uint256",
          "name": "addedValue",
          "type": "uint256"
        }
      ],
      "name": "increaseAllowance",
      "outputs": [
        {
          "internalType": "bool",
          "name": "",
          "type": "bool"
        }
      ],
      "payable": false,
      "stateMutability": "nonpayable",
      "type": "function"
    },
    {
      "constant": true,
      "inputs": [],
      "name": "maxScalingFactor",
      "outputs": [
        {
          "internalType": "uint256",
          "name": "",
          "type": "uint256"
        }
      ],
      "payable": false,
      "stateMutability": "view",
      "type": "function"
    },
    {
      "constant": false,
      "inputs": [
        {
          "internalType": "uint256",
          "name": "epoch",
          "type": "uint256"
        },
        {
          "internalType": "uint256",
          "name": "indexDelta",
          "type": "uint256"
        },
        {
          "internalType": "bool",
          "name": "positive",
          "type": "bool"
        }
      ],
      "name": "rebase",
      "outputs": [
        {
          "internalType": "uint256",
          "name": "",
          "type": "uint256"
        }
      ],
      "payable": false,
      "stateMutability": "nonpayable",
      "type": "function"
    },
    {
      "constant": false,
      "inputs": [
        {
          "internalType": "address",
          "name": "spender",
          "type": "address"
        },
        {
          "internalType": "uint256",
          "name": "subtractedValue",
          "type": "uint256"
        }
      ],
      "name": "decreaseAllowance",
      "outputs": [
        {
          "internalType": "bool",
          "name": "",
          "type": "bool"
        }
      ],
      "payable": false,
      "stateMutability": "nonpayable",
      "type": "function"
    },
    {
      "constant": true,
      "inputs": [
        {
          "internalType": "address",
          "name": "owner",
          "type": "address"
        },
        {
          "internalType": "address",
          "name": "spender",
          "type": "address"
        }
      ],
      "name": "allowance",
      "outputs": [
        {
          "internalType": "uint256",
          "name": "",
          "type": "uint256"
        }
      ],
      "payable": false,
      "stateMutability": "view",
      "type": "function"
    },
    {
      "constant": true,
      "inputs": [
        {
          "internalType": "address",
          "name": "delegator",
          "type": "address"
        }
      ],
      "name": "delegates",
      "outputs": [
        {
          "internalType": "address",
          "name": "",
          "type": "address"
        }
      ],
      "payable": false,
      "stateMutability": "view",
      "type": "function"
    },
    {
      "constant": true,
      "inputs": [
        {
          "internalType": "address",
          "name": "owner",
          "type": "address"
        }
      ],
      "name": "balanceOf",
      "outputs": [
        {
          "internalType": "uint256",
          "name": "",
          "type": "uint256"
        }
      ],
      "payable": false,
      "stateMutability": "view",
      "type": "function"
    },
    {
      "constant": true,
      "inputs": [
        {
          "internalType": "address",
          "name": "owner",
          "type": "address"
        }
      ],
      "name": "balanceOfUnderlying",
      "outputs": [
        {
          "internalType": "uint256",
          "name": "",
          "type": "uint256"
        }
      ],
      "payable": false,
      "stateMutability": "view",
      "type": "function"
    },
    {
      "constant": false,
      "inputs": [
        {
          "internalType": "address",
          "name": "newPendingGov",
          "type": "address"
        }
      ],
      "name": "_setPendingGov",
      "outputs": [],
      "payable": false,
      "stateMutability": "nonpayable",
      "type": "function"
    },
    {
      "constant": false,
      "inputs": [
        {
          "internalType": "address",
          "name": "rebaser_",
          "type": "address"
        }
      ],
      "name": "_setRebaser",
      "outputs": [],
      "payable": false,
      "stateMutability": "nonpayable",
      "type": "function"
    },
    {
      "constant": false,
      "inputs": [
        {
          "internalType": "address",
          "name": "incentivizer_",
          "type": "address"
        }
      ],
      "name": "_setIncentivizer",
      "outputs": [],
      "payable": false,
      "stateMutability": "nonpayable",
      "type": "function"
    },
    {
      "constant": false,
      "inputs": [],
      "name": "_acceptGov",
      "outputs": [],
      "payable": false,
      "stateMutability": "nonpayable",
      "type": "function"
    },
    {
      "constant": true,
      "inputs": [
        {
          "internalType": "address",
          "name": "account",
          "type": "address"
        },
        {
          "internalType": "uint256",
          "name": "blockNumber",
          "type": "uint256"
        }
      ],
      "name": "getPriorVotes",
      "outputs": [
        {
          "internalType": "uint256",
          "name": "",
          "type": "uint256"
        }
      ],
      "payable": false,
      "stateMutability": "view",
      "type": "function"
    },
    {
      "constant": false,
      "inputs": [
        {
          "internalType": "address",
          "name": "delegatee",
          "type": "address"
        },
        {
          "internalType": "uint256",
          "name": "nonce",
          "type": "uint256"
        },
        {
          "internalType": "uint256",
          "name": "expiry",
          "type": "uint256"
        },
        {
          "internalType": "uint8",
          "name": "v",
          "type": "uint8"
        },
        {
          "internalType": "bytes32",
          "name": "r",
          "type": "bytes32"
        },
        {
          "internalType": "bytes32",
          "name": "s",
          "type": "bytes32"
        }
      ],
      "name": "delegateBySig",
      "outputs": [],
      "payable": false,
      "stateMutability": "nonpayable",
      "type": "function"
    },
    {
      "constant": false,
      "inputs": [
        {
          "internalType": "address",
          "name": "delegatee",
          "type": "address"
        }
      ],
      "name": "delegate",
      "outputs": [],
      "payable": false,
      "stateMutability": "nonpayable",
      "type": "function"
    },
    {
      "constant": true,
      "inputs": [
        {
          "internalType": "address",
          "name": "account",
          "type": "address"
        }
      ],
      "name": "getCurrentVotes",
      "outputs": [
        {
          "internalType": "uint256",
          "name": "",
          "type": "uint256"
        }
      ],
      "payable": false,
      "stateMutability": "view",
      "type": "function"
    },
    {
      "constant": false,
      "inputs": [
        {
          "internalType": "bytes",
          "name": "data",
          "type": "bytes"
        }
      ],
      "name": "delegateToImplementation",
      "outputs": [
        {
          "internalType": "bytes",
          "name": "",
          "type": "bytes"
        }
      ],
      "payable": false,
      "stateMutability": "nonpayable",
      "type": "function"
    },
    {
      "constant": true,
      "inputs": [
        {
          "internalType": "bytes",
          "name": "data",
          "type": "bytes"
        }
      ],
      "name": "delegateToViewImplementation",
      "outputs": [
        {
          "internalType": "bytes",
          "name": "",
          "type": "bytes"
        }
      ],
      "payable": false,
      "stateMutability": "view",
      "type": "function"
    }
  ],
  "bytecode": "0x60806040523480156200001157600080fd5b5060405162001e4338038062001e43833981810160405260c08110156200003757600080fd5b81019080805160405193929190846401000000008211156200005857600080fd5b9083019060208201858111156200006e57600080fd5b82516401000000008111828201881017156200008957600080fd5b82525081516020918201929091019080838360005b83811015620000b85781810151838201526020016200009e565b50505050905090810190601f168015620000e65780820380516001836020036101000a031916815260200191505b50604052602001805160405193929190846401000000008211156200010a57600080fd5b9083019060208201858111156200012057600080fd5b82516401000000008111828201881017156200013b57600080fd5b82525081516020918201929091019080838360005b838110156200016a57818101518382015260200162000150565b50505050905090810190601f168015620001985780820380516001836020036101000a031916815260200191505b50604081815260208301519083015160608401516080909401805192969195919284640100000000821115620001cd57600080fd5b908301906020820185811115620001e357600080fd5b8251640100000000811182820188101715620001fe57600080fd5b82525081516020918201929091019080838360005b838110156200022d57818101518382015260200162000213565b50505050905090810190601f1680156200025b5780820380516001836020036101000a031916815260200191505b5060405250505033600360016101000a8154816001600160a01b0302191690836001600160a01b03160217905550620003d48287878733886040516024018080602001806020018660ff1660ff168152602001856001600160a01b03166001600160a01b03168152602001848152602001838103835288818151815260200191508051906020019080838360005b8381101562000303578181015183820152602001620002e9565b50505050905090810190601f168015620003315780820380516001836020036101000a031916815260200191505b50838103825287518152875160209182019189019080838360005b83811015620003665781810151838201526020016200034c565b50505050905090810190601f168015620003945780820380516001836020036101000a031916815260200191505b5060408051601f198184030181529190526020810180516001600160e01b03908116636c94522160e01b17909152909850620003f8169650505050505050565b50620003ec826000836001600160e01b03620004bf16565b505050505050620006a0565b606060006060846001600160a01b0316846040518082805190602001908083835b602083106200043a5780518252601f19909201916020918201910162000419565b6001836020036101000a038019825116818451168082178552505050505050905001915050600060405180830381855af49150503d80600081146200049c576040519150601f19603f3d011682016040523d82523d6000602084013e620004a1565b606091505b50915091506000821415620004b7573d60208201fd5b949350505050565b60035461010090046001600160a01b031633146200050f5760405162461bcd60e51b815260040180806020018281038252603481526020018062001e0f6034913960400191505060405180910390fd5b811562000551576040805160048152602481019091526020810180516001600160e01b0390811663153ab50560e01b179091526200054f91906200067616565b505b601080546001600160a01b038581166001600160a01b0319831617909255604051602060248201818152855160448401528551949093169362000627938693909283926064909201919085019080838360005b83811015620005be578181015183820152602001620005a4565b50505050905090810190601f168015620005ec5780820380516001836020036101000a031916815260200191505b5060408051601f198184030181529190526020810180516001600160e01b03908116630adccee560e31b179091529093506200067616915050565b50601054604080516001600160a01b038085168252909216602083015280517fd604de94d45953f9138079ec1b82d533cb2160c906d1076d1f7ed54befbca97a9281900390910190a150505050565b6010546060906200069a906001600160a01b0316836001600160e01b03620003f816565b92915050565b61175f80620006b06000396000f3fe6080604052600436106102c65760003560e01c806364dd48f51161017957806398dca210116100d6578063c3cda5201161008a578063ec342ad011610064578063ec342ad014610a8a578063f1127ed814610a9f578063fa8f3455146107f7576102c6565b8063c3cda520146109cc578063dd62ed3e14610a2d578063e7a324dc14610a75576102c6565b8063a9059cbb116100bb578063a9059cbb14610465578063b4b5ea57146105f3578063b6fa8576146109b7576102c6565b806398dca210146107f7578063a457c2d714610465576102c6565b8063782d6fe11161012d5780637ecebe00116101125780637ecebe001461094d57806395d89b411461098d57806397d63f93146109a2576102c6565b8063782d6fe1146108cf5780637af548c114610915576102c6565b80636fcfff451161015e5780636fcfff451461087657806370a08231146105f357806373f03dff146107f7576102c6565b806364dd48f51461084c5780636fc6407c14610861576102c6565b8063313ce567116102275780634bda2e20116101db578063587cde1e116101c0578063587cde1e146107d45780635c19a95c146107f75780635c60da1b14610837576102c6565b80634bda2e20146106e6578063555bcc40146106fd576102c6565b80633af9e6691161020c5780633af9e669146105f357806340c10f19146104655780634487152f14610633576102c6565b8063313ce567146105c85780633950935114610465576102c6565b806312d43a511161027e57806320606b701161026357806320606b701461054e57806323b872dd1461056357806325240810146105b3576102c6565b806312d43a511461052457806318160ddd14610539576102c6565b8063095ea7b3116102af578063095ea7b31461046557806311d3e6c4146104bf57806311fd8a83146104e6576102c6565b806306fdde03146103285780630933c1ed146103b2575b341561031d576040517f08c379a000000000000000000000000000000000000000000000000000000000815260040180806020018281038252603481526020018061167a6034913960400191505060405180910390fd5b610325610b0b565b50005b34801561033457600080fd5b5061033d610ba0565b6040805160208082528351818301528351919283929083019185019080838360005b8381101561037757818101518382015260200161035f565b50505050905090810190601f1680156103a45780820380516001836020036101000a031916815260200191505b509250505060405180910390f35b3480156103be57600080fd5b5061033d600480360360208110156103d557600080fd5b8101906020810181356401000000008111156103f057600080fd5b82018360208201111561040257600080fd5b8035906020019184600183028401116401000000008311171561042457600080fd5b91908080601f016020809104026020016040519081016040528093929190818152602001838380828437600092019190915250929550610c4b945050505050565b34801561047157600080fd5b506104ab6004803603604081101561048857600080fd5b5073ffffffffffffffffffffffffffffffffffffffff8135169060200135610c77565b604080519115158252519081900360200190f35b3480156104cb57600080fd5b506104d4610c88565b60408051918252519081900360200190f35b3480156104f257600080fd5b506104fb610c96565b6040805173ffffffffffffffffffffffffffffffffffffffff9092168252519081900360200190f35b34801561053057600080fd5b506104fb610cb2565b34801561054557600080fd5b506104d4610cd3565b34801561055a57600080fd5b506104d4610cd9565b34801561056f57600080fd5b506104ab6004803603606081101561058657600080fd5b5073ffffffffffffffffffffffffffffffffffffffff813581169160208101359091169060400135610cf4565b3480156105bf57600080fd5b506104fb610d06565b3480156105d457600080fd5b506105dd610d22565b6040805160ff9092168252519081900360200190f35b3480156105ff57600080fd5b506104d46004803603602081101561061657600080fd5b503573ffffffffffffffffffffffffffffffffffffffff16610d2b565b34801561063f57600080fd5b5061033d6004803603602081101561065657600080fd5b81019060208101813564010000000081111561067157600080fd5b82018360208201111561068357600080fd5b803590602001918460018302840111640100000000831117156106a557600080fd5b91908080601f016020809104026020016040519081016040528093929190818152602001838380828437600092019190915250929550610d3b945050505050565b3480156106f257600080fd5b506106fb610fd3565b005b34801561070957600080fd5b506106fb6004803603606081101561072057600080fd5b73ffffffffffffffffffffffffffffffffffffffff82351691602081013515159181019060608101604082013564010000000081111561075f57600080fd5b82018360208201111561077157600080fd5b8035906020019184600183028401116401000000008311171561079357600080fd5b91908080601f016020809104026020016040519081016040528093929190818152602001838380828437600092019190915250929550610fde945050505050565b3480156107e057600080fd5b506104fb6004803603602081101561061657600080fd5b34801561080357600080fd5b506106fb6004803603602081101561081a57600080fd5b503573ffffffffffffffffffffffffffffffffffffffff16611254565b34801561084357600080fd5b506104fb611260565b34801561085857600080fd5b506104d461127c565b34801561086d57600080fd5b506104fb61128a565b34801561088257600080fd5b506108b66004803603602081101561089957600080fd5b503573ffffffffffffffffffffffffffffffffffffffff166112a6565b6040805163ffffffff9092168252519081900360200190f35b3480156108db57600080fd5b506104d4600480360360408110156108f257600080fd5b5073ffffffffffffffffffffffffffffffffffffffff81351690602001356112be565b34801561092157600080fd5b506104d46004803603606081101561093857600080fd5b50803590602081013590604001351515610cf4565b34801561095957600080fd5b506104d46004803603602081101561097057600080fd5b503573ffffffffffffffffffffffffffffffffffffffff166112c8565b34801561099957600080fd5b5061033d6112da565b3480156109ae57600080fd5b506104d4611350565b3480156109c357600080fd5b506104d4611356565b3480156109d857600080fd5b506106fb600480360360c08110156109ef57600080fd5b5073ffffffffffffffffffffffffffffffffffffffff8135169060208101359060408101359060ff6060820135169060808101359060a0013561135c565b348015610a3957600080fd5b506104d460048036036040811015610a5057600080fd5b5073ffffffffffffffffffffffffffffffffffffffff813581169160200135166112be565b348015610a8157600080fd5b506104d461136d565b348015610a9657600080fd5b506104d4611388565b348015610aab57600080fd5b50610aeb60048036036040811015610ac257600080fd5b50803573ffffffffffffffffffffffffffffffffffffffff16906020013563ffffffff16611394565b6040805163ffffffff909316835260208301919091528051918290030190f35b60105460405160609160009173ffffffffffffffffffffffffffffffffffffffff90911690829036908083838082843760405192019450600093509091505080830381855af49150503d8060008114610b80576040519150601f19603f3d011682016040523d82523d6000602084013e610b85565b606091505b505090506040513d6000823e818015610b9c573d82f35b3d82fd5b60018054604080516020600284861615610100027fffffffffffffffffffffffffffffffffffffffffffffffffffffffffffffffff0190941693909304601f81018490048402820184019092528181529291830182828015610c435780601f10610c1857610100808354040283529160200191610c43565b820191906000526020600020905b815481529060010190602001808311610c2657829003601f168201915b505050505081565b601054606090610c719073ffffffffffffffffffffffffffffffffffffffff16836113c1565b92915050565b6000610c81610b0b565b5092915050565b6000610c926114ae565b5090565b60055473ffffffffffffffffffffffffffffffffffffffff1681565b600354610100900473ffffffffffffffffffffffffffffffffffffffff1681565b60075481565b6040518060436116ae82396043019050604051809103902081565b6000610cfe610b0b565b509392505050565b60045473ffffffffffffffffffffffffffffffffffffffff1681565b60035460ff1681565b6000610d356114ae565b50919050565b6060600060603073ffffffffffffffffffffffffffffffffffffffff16846040516024018080602001828103825283818151815260200191508051906020019080838360005b83811015610d99578181015183820152602001610d81565b50505050905090810190601f168015610dc65780820380516001836020036101000a031916815260200191505b50604080517fffffffffffffffffffffffffffffffffffffffffffffffffffffffffffffffe08184030181529181526020820180517bffffffffffffffffffffffffffffffffffffffffffffffffffffffff167f0933c1ed00000000000000000000000000000000000000000000000000000000178152905182519295509350839250908083835b60208310610e8b57805182527fffffffffffffffffffffffffffffffffffffffffffffffffffffffffffffffe09092019160209182019101610e4e565b6001836020036101000a038019825116818451168082178552505050505050905001915050600060405180830381855afa9150503d8060008114610eeb576040519150601f19603f3d011682016040523d82523d6000602084013e610ef0565b606091505b50915091506000821415610f05573d60208201fd5b808060200190516020811015610f1a57600080fd5b8101908080516040519392919084640100000000821115610f3a57600080fd5b908301906020820185811115610f4f57600080fd5b8251640100000000811182820188101715610f6957600080fd5b82525081516020918201929091019080838360005b83811015610f96578181015183820152602001610f7e565b50505050905090810190601f168015610fc35780820380516001836020036101000a031916815260200191505b5060405250505092505050919050565b610fdb610b0b565b50565b600354610100900473ffffffffffffffffffffffffffffffffffffffff163314611053576040517f08c379a00000000000000000000000000000000000000000000000000000000081526004018080602001828103825260348152602001806116466034913960400191505060405180910390fd5b81156110bb576040805160048152602481019091526020810180517bffffffffffffffffffffffffffffffffffffffffffffffffffffffff167f153ab505000000000000000000000000000000000000000000000000000000001790526110b990610c4b565b505b6010805473ffffffffffffffffffffffffffffffffffffffff8581167fffffffffffffffffffffffff000000000000000000000000000000000000000083161790925560405160206024820181815285516044840152855194909316936111f8938693909283926064909201919085019080838360005b8381101561114a578181015183820152602001611132565b50505050905090810190601f1680156111775780820380516001836020036101000a031916815260200191505b50604080517fffffffffffffffffffffffffffffffffffffffffffffffffffffffffffffffe08184030181529190526020810180517bffffffffffffffffffffffffffffffffffffffffffffffffffffffff167f56e67728000000000000000000000000000000000000000000000000000000001790529250610c4b915050565b506010546040805173ffffffffffffffffffffffffffffffffffffffff8085168252909216602083015280517fd604de94d45953f9138079ec1b82d533cb2160c906d1076d1f7ed54befbca97a9281900390910190a150505050565b61125c610b0b565b5050565b60105473ffffffffffffffffffffffffffffffffffffffff1681565b69d3c21bcecceda100000081565b60065473ffffffffffffffffffffffffffffffffffffffff1681565b600e6020526000908152604090205463ffffffff1681565b6000610c816114ae565b600f6020526000908152604090205481565b600280546040805160206001841615610100027fffffffffffffffffffffffffffffffffffffffffffffffffffffffffffffffff01909316849004601f81018490048402820184019092528181529291830182828015610c435780601f10610c1857610100808354040283529160200191610c43565b600b5481565b60085481565b611364610b0b565b50505050505050565b60405180603a6116f18239603a019050604051809103902081565b670de0b6b3a764000081565b600d6020908152600092835260408084209091529082529020805460019091015463ffffffff9091169082565b6060600060608473ffffffffffffffffffffffffffffffffffffffff16846040518082805190602001908083835b6020831061142c57805182527fffffffffffffffffffffffffffffffffffffffffffffffffffffffffffffffe090920191602091820191016113ef565b6001836020036101000a038019825116818451168082178552505050505050905001915050600060405180830381855af49150503d806000811461148c576040519150601f19603f3d011682016040523d82523d6000602084013e611491565b606091505b509150915060008214156114a6573d60208201fd5b949350505050565b606060003073ffffffffffffffffffffffffffffffffffffffff166000366040516024018080602001828103825284848281815260200192508082843760008382015260408051601f9092017fffffffffffffffffffffffffffffffffffffffffffffffffffffffffffffffe090811690940182810390940182529283526020810180517bffffffffffffffffffffffffffffffffffffffffffffffffffffffff167f0933c1ed0000000000000000000000000000000000000000000000000000000017815292518151919750955085945091925081905083835b602083106115c657805182527fffffffffffffffffffffffffffffffffffffffffffffffffffffffffffffffe09092019160209182019101611589565b6001836020036101000a038019825116818451168082178552505050505050905001915050600060405180830381855afa9150503d8060008114611626576040519150601f19603f3d011682016040523d82523d6000602084013e61162b565b606091505b505090506040513d6000823e818015610b9c573d60408301f3fe59414d44656c656761746f723a3a5f736574496d706c656d656e746174696f6e3a2043616c6c6572206d75737420626520676f7659414d44656c656761746f723a66616c6c6261636b3a2063616e6e6f742073656e642076616c756520746f2066616c6c6261636b454950373132446f6d61696e28737472696e67206e616d652c75696e7432353620636861696e49642c6164647265737320766572696679696e67436f6e74726163742944656c65676174696f6e28616464726573732064656c6567617465652c75696e74323536206e6f6e63652c75696e743235362065787069727929a265627a7a72315820d0d84d02abe659ca9efe47100c0e0ba5cca9e7044f505e491bf7e0586d44aa6064736f6c6343000511003259414d44656c656761746f723a3a5f736574496d706c656d656e746174696f6e3a2043616c6c6572206d75737420626520676f76",
  "source": "pragma solidity 0.5.17;\n\nimport \"./YAMTokenInterface.sol\";\nimport \"./YAMDelegate.sol\";\n\ncontract YAMDelegator is YAMTokenInterface, YAMDelegatorInterface {\n    /**\n     * @notice Construct a new YAM\n     * @param name_ ERC-20 name of this token\n     * @param symbol_ ERC-20 symbol of this token\n     * @param decimals_ ERC-20 decimal precision of this token\n     * @param initSupply_ Initial token amount\n     * @param implementation_ The address of the implementation the contract delegates to\n     * @param becomeImplementationData The encoded args for becomeImplementation\n     */\n    constructor(\n        string memory name_,\n        string memory symbol_,\n        uint8 decimals_,\n        uint256 initSupply_,\n        address implementation_,\n        bytes memory becomeImplementationData\n    )\n        public\n    {\n\n\n        // Creator of the contract is gov during initialization\n        gov = msg.sender;\n\n        // First delegate gets to initialize the delegator (i.e. storage contract)\n        delegateTo(\n            implementation_,\n            abi.encodeWithSignature(\n                \"initialize(string,string,uint8,address,uint256)\",\n                name_,\n                symbol_,\n                decimals_,\n                msg.sender,\n                initSupply_\n            )\n        );\n\n        // New implementations always get set via the settor (post-initialize)\n        _setImplementation(implementation_, false, becomeImplementationData);\n\n    }\n\n    /**\n     * @notice Called by the gov to update the implementation of the delegator\n     * @param implementation_ The address of the new implementation for delegation\n     * @param allowResign Flag to indicate whether to call _resignImplementation on the old implementation\n     * @param becomeImplementationData The encoded bytes data to be passed to _becomeImplementation\n     */\n    function _setImplementation(address implementation_, bool allowResign, bytes memory becomeImplementationData) public {\n        require(msg.sender == gov, \"YAMDelegator::_setImplementation: Caller must be gov\");\n\n        if (allowResign) {\n            delegateToImplementation(abi.encodeWithSignature(\"_resignImplementation()\"));\n        }\n\n        address oldImplementation = implementation;\n        implementation = implementation_;\n\n        delegateToImplementation(abi.encodeWithSignature(\"_becomeImplementation(bytes)\", becomeImplementationData));\n\n        emit NewImplementation(oldImplementation, implementation);\n    }\n\n    /**\n     * @notice Sender supplies assets into the market and receives cTokens in exchange\n     * @dev Accrues interest whether or not the operation succeeds, unless reverted\n     * @param mintAmount The amount of the underlying asset to supply\n     * @return uint 0=success, otherwise a failure (see ErrorReporter.sol for details)\n     */\n    function mint(address to, uint256 mintAmount)\n        external\n        returns (bool)\n    {\n        to; mintAmount; // Shh\n        delegateAndReturn();\n    }\n\n    /**\n     * @notice Transfer `amount` tokens from `msg.sender` to `dst`\n     * @param dst The address of the destination account\n     * @param amount The number of tokens to transfer\n     * @return Whether or not the transfer succeeded\n     */\n    function transfer(address dst, uint256 amount)\n        external\n        returns (bool)\n    {\n        dst; amount; // Shh\n        delegateAndReturn();\n    }\n\n    /**\n     * @notice Transfer `amount` tokens from `src` to `dst`\n     * @param src The address of the source account\n     * @param dst The address of the destination account\n     * @param amount The number of tokens to transfer\n     * @return Whether or not the transfer succeeded\n     */\n    function transferFrom(\n        address src,\n        address dst,\n        uint256 amount\n    )\n        external\n        returns (bool)\n    {\n        src; dst; amount; // Shh\n        delegateAndReturn();\n    }\n\n    /**\n     * @notice Approve `spender` to transfer up to `amount` from `src`\n     * @dev This will overwrite the approval amount for `spender`\n     *  and is subject to issues noted [here](https://eips.ethereum.org/EIPS/eip-20#approve)\n     * @param spender The address of the account which may transfer tokens\n     * @param amount The number of tokens that are approved (-1 means infinite)\n     * @return Whether or not the approval succeeded\n     */\n    function approve(\n        address spender,\n        uint256 amount\n    )\n        external\n        returns (bool)\n    {\n        spender; amount; // Shh\n        delegateAndReturn();\n    }\n\n    /**\n     * @dev Increase the amount of tokens that an owner has allowed to a spender.\n     * This method should be used instead of approve() to avoid the double approval vulnerability\n     * described above.\n     * @param spender The address which will spend the funds.\n     * @param addedValue The amount of tokens to increase the allowance by.\n     */\n    function increaseAllowance(\n        address spender,\n        uint256 addedValue\n    )\n        external\n        returns (bool)\n    {\n        spender; addedValue; // Shh\n        delegateAndReturn();\n    }\n\n    function maxScalingFactor()\n        external\n        view\n        returns (uint256)\n    {\n        delegateToViewAndReturn();\n    }\n\n    function rebase(\n        uint256 epoch,\n        uint256 indexDelta,\n        bool positive\n    )\n        external\n        returns (uint256)\n    {\n        epoch; indexDelta; positive;\n        delegateAndReturn();\n    }\n\n    /**\n     * @dev Decrease the amount of tokens that an owner has allowed to a spender.\n     *\n     * @param spender The address which will spend the funds.\n     * @param subtractedValue The amount of tokens to decrease the allowance by.\n     */\n    function decreaseAllowance(\n        address spender,\n        uint256 subtractedValue\n    )\n        external\n        returns (bool)\n    {\n        spender; subtractedValue; // Shh\n        delegateAndReturn();\n    }\n\n    /**\n     * @notice Get the current allowance from `owner` for `spender`\n     * @param owner The address of the account which owns the tokens to be spent\n     * @param spender The address of the account which may transfer tokens\n     * @return The number of tokens allowed to be spent (-1 means infinite)\n     */\n    function allowance(\n        address owner,\n        address spender\n    )\n        external\n        view\n        returns (uint256)\n    {\n        owner; spender; // Shh\n        delegateToViewAndReturn();\n    }\n\n    /**\n     * @notice Get the current allowance from `owner` for `spender`\n     * @param delegator The address of the account which has designated a delegate\n     * @return Address of delegatee\n     */\n    function delegates(\n        address delegator\n    )\n        external\n        view\n        returns (address)\n    {\n        delegator; // Shh\n        delegateToViewAndReturn();\n    }\n\n    /**\n     * @notice Get the token balance of the `owner`\n     * @param owner The address of the account to query\n     * @return The number of tokens owned by `owner`\n     */\n    function balanceOf(address owner)\n        external\n        view\n        returns (uint256)\n    {\n        owner; // Shh\n        delegateToViewAndReturn();\n    }\n\n    /**\n     * @notice Currently unused. For future compatability\n     * @param owner The address of the account to query\n     * @return The number of underlying tokens owned by `owner`\n     */\n    function balanceOfUnderlying(address owner)\n        external\n        view\n        returns (uint256)\n    {\n        owner; // Shh\n        delegateToViewAndReturn();\n    }\n\n    /*** Gov Functions ***/\n\n    /**\n      * @notice Begins transfer of gov rights. The newPendingGov must call `_acceptGov` to finalize the transfer.\n      * @dev Gov function to begin change of gov. The newPendingGov must call `_acceptGov` to finalize the transfer.\n      * @param newPendingGov New pending gov.\n      */\n    function _setPendingGov(address newPendingGov)\n        external\n    {\n        newPendingGov; // Shh\n        delegateAndReturn();\n    }\n\n    function _setRebaser(address rebaser_)\n        external\n    {\n        rebaser_; // Shh\n        delegateAndReturn();\n    }\n\n    function _setIncentivizer(address incentivizer_)\n        external\n    {\n        incentivizer_; // Shh\n        delegateAndReturn();\n    }\n\n    /**\n      * @notice Accepts transfer of gov rights. msg.sender must be pendingGov\n      * @dev Gov function for pending gov to accept role and update gov\n      * @return uint 0=success, otherwise a failure (see ErrorReporter.sol for details)\n      */\n    function _acceptGov()\n        external\n    {\n        delegateAndReturn();\n    }\n\n\n    function getPriorVotes(address account, uint blockNumber)\n        external\n        view\n        returns (uint256)\n    {\n        account; blockNumber;\n        delegateToViewAndReturn();\n    }\n\n    function delegateBySig(\n        address delegatee,\n        uint nonce,\n        uint expiry,\n        uint8 v,\n        bytes32 r,\n        bytes32 s\n    )\n        external\n    {\n        delegatee; nonce; expiry; v; r; s;\n        delegateAndReturn();\n    }\n\n    function delegate(address delegatee)\n        external\n    {\n        delegatee;\n        delegateAndReturn();\n    }\n\n    function getCurrentVotes(address account)\n        external\n        view\n        returns (uint256)\n    {\n        account;\n        delegateToViewAndReturn();\n    }\n\n    /**\n     * @notice Internal method to delegate execution to another contract\n     * @dev It returns to the external caller whatever the implementation returns or forwards reverts\n     * @param callee The contract to delegatecall\n     * @param data The raw data to delegatecall\n     * @return The returned bytes from the delegatecall\n     */\n    function delegateTo(address callee, bytes memory data) internal returns (bytes memory) {\n        (bool success, bytes memory returnData) = callee.delegatecall(data);\n        assembly {\n            if eq(success, 0) {\n                revert(add(returnData, 0x20), returndatasize)\n            }\n        }\n        return returnData;\n    }\n\n    /**\n     * @notice Delegates execution to the implementation contract\n     * @dev It returns to the external caller whatever the implementation returns or forwards reverts\n     * @param data The raw data to delegatecall\n     * @return The returned bytes from the delegatecall\n     */\n    function delegateToImplementation(bytes memory data) public returns (bytes memory) {\n        return delegateTo(implementation, data);\n    }\n\n    /**\n     * @notice Delegates execution to an implementation contract\n     * @dev It returns to the external caller whatever the implementation returns or forwards reverts\n     *  There are an additional 2 prefix uints from the wrapper returndata, which we ignore since we make an extra hop.\n     * @param data The raw data to delegatecall\n     * @return The returned bytes from the delegatecall\n     */\n    function delegateToViewImplementation(bytes memory data) public view returns (bytes memory) {\n        (bool success, bytes memory returnData) = address(this).staticcall(abi.encodeWithSignature(\"delegateToImplementation(bytes)\", data));\n        assembly {\n            if eq(success, 0) {\n                revert(add(returnData, 0x20), returndatasize)\n            }\n        }\n        return abi.decode(returnData, (bytes));\n    }\n\n    function delegateToViewAndReturn() private view returns (bytes memory) {\n        (bool success, ) = address(this).staticcall(abi.encodeWithSignature(\"delegateToImplementation(bytes)\", msg.data));\n\n        assembly {\n            let free_mem_ptr := mload(0x40)\n            returndatacopy(free_mem_ptr, 0, returndatasize)\n\n            switch success\n            case 0 { revert(free_mem_ptr, returndatasize) }\n            default { return(add(free_mem_ptr, 0x40), returndatasize) }\n        }\n    }\n\n    function delegateAndReturn() private returns (bytes memory) {\n        (bool success, ) = implementation.delegatecall(msg.data);\n\n        assembly {\n            let free_mem_ptr := mload(0x40)\n            returndatacopy(free_mem_ptr, 0, returndatasize)\n\n            switch success\n            case 0 { revert(free_mem_ptr, returndatasize) }\n            default { return(free_mem_ptr, returndatasize) }\n        }\n    }\n\n    /**\n     * @notice Delegates execution to an implementation contract\n     * @dev It returns to the external caller whatever the implementation returns or forwards reverts\n     */\n    function () external payable {\n        require(msg.value == 0,\"YAMDelegator:fallback: cannot send value to fallback\");\n\n        // delegate all other functions to current implementation\n        delegateAndReturn();\n    }\n}\n",
  "sourcePath": "/Users/joelgarcia/Documents/github/maws-git/yam-protocol/contracts/token/YAMDelegator.sol",
  "compiler": {
    "name": "solc",
    "version": "0.5.17+commit.d19bba13.Emscripten.clang"
  },
  "schemaVersion": "3.2.5",
  "updatedAt": "2020-09-15T18:42:44.355Z",
  "devdoc": {
    "methods": {
      "_acceptGov()": {
        "details": "Gov function for pending gov to accept role and update gov",
        "return": "uint 0=success, otherwise a failure (see ErrorReporter.sol for details)"
      },
      "_setImplementation(address,bool,bytes)": {
        "params": {
          "allowResign": "Flag to indicate whether to call _resignImplementation on the old implementation",
          "becomeImplementationData": "The encoded bytes data to be passed to _becomeImplementation",
          "implementation_": "The address of the new implementation for delegation"
        }
      },
      "_setPendingGov(address)": {
        "details": "Gov function to begin change of gov. The newPendingGov must call `_acceptGov` to finalize the transfer.",
        "params": {
          "newPendingGov": "New pending gov."
        }
      },
      "allowance(address,address)": {
        "params": {
          "owner": "The address of the account which owns the tokens to be spent",
          "spender": "The address of the account which may transfer tokens"
        },
        "return": "The number of tokens allowed to be spent (-1 means infinite)"
      },
      "approve(address,uint256)": {
        "details": "This will overwrite the approval amount for `spender` and is subject to issues noted [here](https://eips.ethereum.org/EIPS/eip-20#approve)",
        "params": {
          "amount": "The number of tokens that are approved (-1 means infinite)",
          "spender": "The address of the account which may transfer tokens"
        },
        "return": "Whether or not the approval succeeded"
      },
      "balanceOf(address)": {
        "params": {
          "owner": "The address of the account to query"
        },
        "return": "The number of tokens owned by `owner`"
      },
      "balanceOfUnderlying(address)": {
        "params": {
          "owner": "The address of the account to query"
        },
        "return": "The number of underlying tokens owned by `owner`"
      },
      "constructor": {
        "params": {
          "becomeImplementationData": "The encoded args for becomeImplementation",
          "decimals_": "ERC-20 decimal precision of this token",
          "implementation_": "The address of the implementation the contract delegates to",
          "initSupply_": "Initial token amount",
          "name_": "ERC-20 name of this token",
          "symbol_": "ERC-20 symbol of this token"
        }
      },
      "decreaseAllowance(address,uint256)": {
        "details": "Decrease the amount of tokens that an owner has allowed to a spender.",
        "params": {
          "spender": "The address which will spend the funds.",
          "subtractedValue": "The amount of tokens to decrease the allowance by."
        }
      },
      "delegateToImplementation(bytes)": {
        "details": "It returns to the external caller whatever the implementation returns or forwards reverts",
        "params": {
          "data": "The raw data to delegatecall"
        },
        "return": "The returned bytes from the delegatecall"
      },
      "delegateToViewImplementation(bytes)": {
        "details": "It returns to the external caller whatever the implementation returns or forwards reverts There are an additional 2 prefix uints from the wrapper returndata, which we ignore since we make an extra hop.",
        "params": {
          "data": "The raw data to delegatecall"
        },
        "return": "The returned bytes from the delegatecall"
      },
      "delegates(address)": {
        "params": {
          "delegator": "The address of the account which has designated a delegate"
        },
        "return": "Address of delegatee"
      },
      "increaseAllowance(address,uint256)": {
        "details": "Increase the amount of tokens that an owner has allowed to a spender. This method should be used instead of approve() to avoid the double approval vulnerability described above.",
        "params": {
          "addedValue": "The amount of tokens to increase the allowance by.",
          "spender": "The address which will spend the funds."
        }
      },
      "mint(address,uint256)": {
        "details": "Accrues interest whether or not the operation succeeds, unless reverted",
        "params": {
          "mintAmount": "The amount of the underlying asset to supply"
        },
        "return": "uint 0=success, otherwise a failure (see ErrorReporter.sol for details)"
      },
      "transfer(address,uint256)": {
        "params": {
          "amount": "The number of tokens to transfer",
          "dst": "The address of the destination account"
        },
        "return": "Whether or not the transfer succeeded"
      },
      "transferFrom(address,address,uint256)": {
        "params": {
          "amount": "The number of tokens to transfer",
          "dst": "The address of the destination account",
          "src": "The address of the source account"
        },
        "return": "Whether or not the transfer succeeded"
      }
    }
  },
  "userdoc": {
    "methods": {
      "_acceptGov()": {
        "notice": "Accepts transfer of gov rights. msg.sender must be pendingGov"
      },
      "_setImplementation(address,bool,bytes)": {
        "notice": "Called by the gov to update the implementation of the delegator"
      },
      "_setPendingGov(address)": {
        "notice": "Begins transfer of gov rights. The newPendingGov must call `_acceptGov` to finalize the transfer."
      },
      "allowance(address,address)": {
        "notice": "Get the current allowance from `owner` for `spender`"
      },
      "approve(address,uint256)": {
        "notice": "Approve `spender` to transfer up to `amount` from `src`"
      },
      "balanceOf(address)": {
        "notice": "Get the token balance of the `owner`"
      },
      "balanceOfUnderlying(address)": {
        "notice": "Currently unused. For future compatability"
      },
      "constructor": "Construct a new YAM",
      "delegateToImplementation(bytes)": {
        "notice": "Delegates execution to the implementation contract"
      },
      "delegateToViewImplementation(bytes)": {
        "notice": "Delegates execution to an implementation contract"
      },
      "delegates(address)": {
        "notice": "Get the current allowance from `owner` for `spender`"
      },
      "mint(address,uint256)": {
        "notice": "Sender supplies assets into the market and receives cTokens in exchange"
      },
      "transfer(address,uint256)": {
        "notice": "Transfer `amount` tokens from `msg.sender` to `dst`"
      },
      "transferFrom(address,address,uint256)": {
        "notice": "Transfer `amount` tokens from `src` to `dst`"
      }
    }
  }
}